:020000040800F2
:10000000C02200207D020008C32500081324000838
:10001000C1250008CD0E0008012C000800000000DA
:10002000000000000000000000000000E5010008E2
:10003000CF0E000800000000290200087528000803
:10004000970200089702000897020008970200082C
:10005000970200089702000897020008970200081C
:10006000970200089702000897020008970200080C
:1000700097020008970200089702000897020008FC
:1000800097020008970200089702000897020008EC
:1000900097020008970200089702000897020008DC
:1000A00097020008970200089702000897020008CC
:1000B000970200089702000801290008970200082B
:1000C00097020008970200089702000897020008AC
:1000D0009702000897020008E92B0008F52B00089A
:1000E000970200089702000897020008970200088C
:1000F000970200089702000897020008970200087C
:1001000097020008CD250008970200089702000812
:10011000970200089702000897020008970200085B
:10012000970200089702000897020008970200084B
:1001300000F002F800F047F80AA090E8000C8244B2
:100140008344AAF10107DA4501D100F03CF8AFF28F
:10015000090EBAE80F0013F0010F18BFFB1A43F0A5
:1001600001031847B0420000D0420000103A24BFFB
:1001700078C878C1FAD8520724BF30C830C144BF0C
:1001800004680C607047000000230024002500264E
:10019000103A28BF78C1FBD8520728BF30C148BFEA
:1001A0000B607047642900F0C980002070471FB5BC
:1001B0009DE8030000F05CFC00F04EFA1FBD10B596
:1001C00000F0B3FA10BD00F016FB1146FFF7EFFF89
:1001D00002F034FD00F01AFC03B4FFF7F0FF03BC9B
:1001E00000F0D8FD224B19680868B0E8F00F80F3E2
:1001F0000988BFF36F8F4FF0000080F311884EF035
:100200000D0E70470000000006480068006880F38B
:10021000088862B661B6BFF34F8FBFF36F8F00DF00
:1002200000BF00BF08ED00E0EFF30980BFF36F8F60
:100230000F4B1A6820E9F00F106008B54FF050001E
:1002400080F31188BFF34F8FBFF36F8F03F0B8FBBC
:100250004FF0000080F31188BDE808401968086875
:10026000B0E8F00F80F30988BFF36F8F704700BFCD
:1002700014000020EFF30580704700000948804714
:1002800009480047FEE7FEE7FEE7FEE7FEE7FEE778
:10029000FEE7FEE7FEE7FEE704480549054A064B90
:1002A00070470000FF28000831010008C01C002032
:1002B000C0220020C01E0020C01E00200FB4044930
:1002C00010B503AA029800F045F910BC5DF814FBC4
:1002D000B81B00202DE9F0410E46044600202062A4
:1002E0002046E168884730B3252805D0D4E90121AC
:1002F0009047206A401CF2E7E168204600278847C3
:10030000050018D0A5F14100192802D820354FF476
:1003100000673246294620462760FFF743FF40B179
:10032000012804D0F61D26F007060836D8E7361D4A
:10033000D6E72846DAE7206ABDE8F0812DE9F041EA
:100340000646002410687529314616A510D0AFF373
:100350000080002802DA404213A507E031688A07CE
:1003600001D512A502E0490704D511A5012401E039
:10037000AFF3008000210A2206F1240709E0B0FB58
:10038000F2FCB0FBF2F302FB1C003030785418464C
:10039000491C0028F3D123462A463046BDE8F041E7
:1003A00000F07FB8000000002D0000002B000000CE
:1003B00020000000032A40F2308010F0030C00F00F
:1003C000158011F8013BBCF1020F624498BF11F88F
:1003D00001CB00F8013B38BF11F8013BA2F1040248
:1003E00098BF00F801CB38BF00F8013B11F00303C0
:1003F00000F0C280083AC0F0088051F8043B083A87
:1004000051F804CBA0E80810F5E7121D5CBF51F8C5
:10041000043B40F8043BAFF30080D20724BF11F83F
:10042000013B11F801CB48BF11F8012B24BF00F8A4
:10043000013B00F801CB48BF00F8012B704702F0E8
:10044000FF0343EA032242EA024200F0C9B84FF038
:10045000000200B5134694469646203922BFA0E814
:100460000C50A0E80C50B1F12001BFF4F7AF090720
:1004700028BFA0E80C5048BF0CC05DF804EB890011
:1004800028BF40F8042B08BF704748BF20F8022B54
:1004900011F0804F18BF00F8012B7047704770476C
:1004A00070472DE9F0470D4699469246044600F103
:1004B00024080168880604D5E06921F01001216054
:1004C00000E00120A84201DD471B00E00027A169F0
:1004D0007A1902EB0900081AA0612078C00602D43C
:1004E0002046AFF30080002608E0D4E901211AF885
:1004F00006009047206A401C761C20624E45F4DBC3
:100500002078C0060AD52046AFF3008006E0D4E983
:10051000012130209047206A401C2062381EA7F13C
:100520000107F4DC07E0D4E9012118F80500904741
:10053000206A401C2062281EA5F10105F3DC20463C
:10054000AFF300802078000602D50220BDE8F087D6
:100550000120FBE7074B70B50D467B4400F065F8C2
:100560000446284600F074F810B14FF0FF3070BD1B
:10057000204670BDC726000010B5203AC0F00B80A1
:10058000B1E81850203AA0E81850B1E81850A0E897
:100590001850BFF4F5AF5FEA027C24BFB1E81850F1
:1005A000A0E8185044BF18C918C0BDE810405FEA61
:1005B000827C24BF51F8043B40F8043B08BF7047DD
:1005C000D20728BF31F8023B48BF11F8012B28BFE2
:1005D00020F8023B48BF00F8012B70474FF00002A3
:1005E0000429C0F0128010F0030C3FF432AFCCF1BC
:1005F000040CBCF1020F18BF00F8012BA8BF20F8B3
:10060000022BA1EB0C01FFF724BF5FEAC17C24BFE2
:1006100000F8012B00F8012B48BF00F8012B7047B0
:1006200001694A1C02610878704700B58FB0CDE9B6
:1006300001310021059105497944CDE903101146A6
:100640006846FFF747FE0FB000BD0000E5FFFFFF63
:10065000007B00F08000704710B542485421FFF73E
:10066000F6FE41485421FFF7F2FE40485421FFF7BF
:10067000EEFE3F493B483C4A3F4B08603D490A601B
:100680003A491960531C0365481C10650120086530
:100690003B48344A39A1784400F01CF920B9384865
:1006A00078440A3800F0BBF937482F4A35A178441E
:1006B00000F010F920B9344878440A3800F0AFF956
:1006C00032482A4A2FA1784400F004F920B92F4873
:1006D00078440A3800F0A3F940232248DC000021C6
:1006E000224600F0D4F820B125487844543800F070
:1006F00096F91D4822464023002100F0C8F820B199
:1007000021487844543800F08AF9184822461023CA
:10071000002100F0BCF8002806D01C487844BDE851
:100720001040563800F07BB910BD104870B5006D10
:1007300020F001040B4800F043F90B4800F040F9A9
:100740000A4800F03DF909E0206D20F0010520463F
:1007500000F036F9204600F073F82C46002CF3D157
:1007600070BD0000641B0020B81B00200C1C002082
:100770008C000020900000209400002072000000F7
:10078000603D0000770000004C3D0000383D000057
:100790000EB5CDE9000100F0DDFA029069460120B6
:1007A000ABBE0EBD08B5694600900220ABBE08BDC9
:1007B0001FB58DE8070069460520ABBE04B010BD2B
:1007C0001FB58DE80F0069460620ABBEF6E708B5F9
:1007D000694600900920ABBE08BD1CB5CDE90001FB
:1007E00069460A20ABBE1CBD704708B5694600903B
:1007F0000C20ABBE08BD754600F018F9AE460500EA
:100800006946534620F00700854618B020B5FFF72B
:1008100043FDBDE820404FF000064FF000074FF0C9
:1008200000084FF0000B21F00701AC46ACE8C0090E
:10083000ACE8C009ACE8C009ACE8C0098D46704717
:1008400070B50446051F00F0F7F80068002C14BFCF
:10085000446870BD002C18BFAC423CBF20466468A1
:10086000F8D301680A18AA4218BF456003D12A6864
:1008700005461144016028684119A1421CBF6C6003
:1008800070BD6168696021680844286070BD70B5FA
:10089000C468A50713D0650211D4B2F5807F09D0D2
:1008A000B2F5007F06D0B2F5806F08D1012300F1C8
:1008B000240106E05D1E6FF07F46B54201D30120A2
:1008C00070BD0161C361416024F470611143C16076
:1008D000002070BD2DE9F0410C4607461646104633
:1008E00000F06EF82078611C61280AD0722802D0CE
:1008F00077283CD102E00125002405E002250424EC
:1009000002E0082448F2020511F8010B2B2806D05A
:10091000622809D011F8010C74280AD00BE045F0C8
:10092000030544F00204EFE745F0040544F0010438
:10093000EAE744F0100438462146FFF729FF411C3E
:1009400015D00021316171604FF40071F560F161E3
:100950007061200704D530460222002100F0E6F83D
:10096000306D40F0010030653046BDE8F081002078
:10097000FBE72DE9F0410D460646104C206DC107FE
:1009800004D0410804D020F00104F7E722460EE02D
:10099000542000F09CF807000ED0206D47F00101B4
:1009A0000843542120653846FFF751FD3A46294651
:1009B0003046BDE8F0418DE70020D6E7641B0020FB
:1009C0002DE9F04704464FF000094FF0FF37C568A6
:1009D000D4E90486A80707D0204600F057F930462E
:1009E000FFF7E0FE002802DA3846BDE8F087280568
:1009F00002D54046FFF724FF4C212046FFF727FD94
:100A0000206D20F0010020654846EEE710B5044651
:100A1000AFF300802046BDE81040FFF7DDBB10B506
:100A200000F07EF9BDE8104000F074B9004870474E
:100A3000601C00207047000000487047681C0020C0
:100A4000704770477047704738B504460A46002023
:100A50006946AFF30080002808BF38BD0246009900
:100A6000204600F0A4F9012038BD012000F0F3B9C0
:100A7000F8B5AFF30080054600200C46102000BFFB
:100A80000646A819A0420DD9324669460020AFF3A8
:100A90000080070008BF00F0DEF90098A04218BFF0
:100AA0000546C419FFF7C8FF05600746F01D20F092
:100AB00007004619284600F073F9B44208BFF8BD94
:100AC000A21B31463868BDE8F84000F070B970B537
:100AD0000646FFF7B1FF056806F10B0020F007049A
:100AE000B4429CBF002070BD2B466A68BAB1106842
:100AF000A04210D304F1080188423CBF50685860FE
:100B000007D35168101941601168091B01605860D2
:100B10001460101D70BD13465268002AE7D12146AB
:100B20002846FFF791FF0028DED170BD2DE9F04186
:100B3000044616460D464769007B80072ED038468E
:100B4000FFF745FE50BB3EB3012E02D0022E25D149
:100B500004E0204600F045F905441DE03846FFF763
:100B600044FEE168002841F01001E16005DA20460A
:100B700000F058F80120BDE8F081C9030BD5626888
:100B8000E16A914200D81146A26911442269891A8A
:100B9000814200DD08460544002D01DA0220EAE723
:100BA000E16A6068E268814206D29103E06203D59F
:100BB00022F4003141F01002A6690027AE4213DC96
:100BC000E16A814201D90B4600E0034603EB060CC3
:100BD0002369ACEB030CAC4506DD814201D98C46A0
:100BE00000E084469C4505D1A760276042F02000C4
:100BF000A5620DE0AD1BE669AE1B8142A66000D97F
:100C00000846C01A281A20605819606022F0200097
:100C100003490840E060002084F84870ABE700001A
:100C2000BFCFD7FFC16821F4001141F08001C1603E
:100C300000218160016070472DE9F047814614462C
:100C40000E464FF0FF383248D5685769054209D043
:100C50003846A169FFF7C1FD002811DB2C48C043CD
:100C60000540E5602B46324649463846FFF7A0FD71
:100C7000A16920F00042B21A11440028A16103D0FA
:100C80002046FFF7CFFF4046BDE8F08770B5044629
:100C90000569C06A6168884200D80846E16821F4A5
:100CA0002011E160C90312D5A84208D02246411B99
:100CB0002846FFF7C1FF10B14FF0FF3070BD002094
:100CC000E562C4E90150E06820F48030E060002073
:100CD00070BD10B50446C06820F02000E060A16A35
:100CE000A06988420DD02046FFF7D0FFE06820F4CD
:100CF000405040F01000E060A06AA0612069E0620E
:100D0000606044F24001E0688843E06010BD00008C
:100D100010000200002801D000F03CB8704700002D
:100D200010B5014602A000F07DF8012010BD0000C2
:100D300053494752545245443A205265646972659A
:100D400063743A2063616E2774206F70656E3A2079
:100D50000000000010B5431C02E010F8011B71B147
:100D60008107FAD14FF0013202C88C1A8C4314EA81
:100D7000C211F9D0C01A0A0603D0C01E10BDC01A95
:100D800010BD0A0401D0801E10BD0902FCD0401E17
:100D900010BD000001491820ABBEFEE7260002008E
:100DA00000210160C0E90110704710207047034620
:100DB00040688C46002818BF88423CBF0346406804
:100DC000F8D318681844884207D00CF1030020F0CB
:100DD0000700001D411A521A0146081D0A60FFF75C
:100DE0002FBD10B50146C268900703D0900607D505
:100DF000886A0AE000F03EF801210160881E10BDFB
:100E00008B69486818440B69C01A91F848301BB1C7
:100E100091F84910401A10BD1103FCD50028FADDE5
:100E2000401E10BD70B505460C460A2000E06D1C42
:100E300000F018F835B128780028F8D102E0641CD9
:100E400000F010F814B120780028F8D1BDE8704007
:100E50000A2000F007B810B500F010F8BDE8104007
:100E6000FFF758BF08B569468DF800000320ABBEF8
:100E700008BD000000487047601C002010B5012824
:100E800005D0002103A0FFF7CDFF012010BD09A16F
:100E9000F8E7000053494752544D454D3A204F75ED
:100EA00074206F662068656170206D656D6F727962
:100EB000000000003A2048656170206D656D6F721A
:100EC0007920636F7272757074656400FEE7704715
:100ED00072B6FEE710B590F821100022022905D065
:100EE0000421816380F82020012010BD01680B6877
:100EF00023F00E030B6001680B6823F001030B6005
:100F000090F84030C46B012101FA03F3636080F86C
:100F1000211080F82020104610BD00002DE9F05F60
:100F200090F821100024022903D0042181630124B8
:100F300085E001680A6822F00E020A6001680A680A
:100F400022F001020A603F4E3E4FB215DFF8F4C0B6
:100F5000DFF8F090DFF8ECA0DFF8E8B0DFF8E4E0CD
:100F60000168783F13011502ACF1640CA9F1500936
:100F7000AAF13C0AABF1280BAEF1140E4FF4801825
:100F8000B14227D9B9420ED0614512D049451DD092
:100F9000514518D0594518D0714501D1424615E048
:100FA000294EB14201D1012210E0274E1436B14240
:100FB00001D110220AE0244E2836B14206D0224A3E
:100FC0003C32914201D11A4600E02A461E49091FCF
:100FD0000A602BE0B94213D0614517D0494522D0B1
:100FE00051451DD059451DD0714501D142461AE0E9
:100FF000B14202D14FF0807215E0134EB14201D1DF
:10100000012210E0104E1436B14201D110220AE044
:101010000D4E2836B14206D00B4A3C32914201D1E6
:101020001A4600E02A46074980394A60012180F8C3
:101030002110002180F82010416B01B18847204623
:10104000BDE8F09F80000240080402402DE9F84FFF
:10105000DFF8C8910024A9F1040B23460F2709F1FA
:10106000040AABF1040ED1E00125A54006EA050211
:10107000AA4276D1DFF8A8C14E68A6EB0C086645F7
:101080002BD00DDC032E34D005DC36B3012E19D065
:10109000022E2FD11BE0112E16D0122E2AD119E0CC
:1010A000B8F5881F19D006DCB8F5803F15D0B8F523
:1010B000801F1FD111E0B8F5001F0ED0B8F5041F36
:1010C00018D10AE0CB6815E0CB681B1D12E0CB6895
:1010D00008330FE0CB680C330CE08B682BB1012B8D
:1010E0004FF0080303D0456104E0042302E00561EA
:1010F00000E00023FF2A01D8064601E000F10406C3
:101100004FEA840501D9A5F12005D6F8008007FA39
:1011100005FC28EA0C0803FA05F548EA0508C6F8B4
:1011200000804D68ED0070D53E4DAE6946F0010679
:10113000AE61AD6924F0030605F0010500953A4D56
:1011400006EB050CDCF80850A607360F07FA06F880
:1011500025EA0805DFF8D480404503D14FF00008A8
:1011600025E052E0DFF8C880404502D14FF0010889
:101170001DE0DFF8C080404502D14FF0020816E0C4
:10118000DFF8B480404502D14FF003080FE0DFF8EC
:10119000AC80404502D14FF0040808E0DFF8A080A1
:1011A000404502D14FF0050801E04FF0060808FA6B
:1011B00006F848EA0508CCF808804D68D9F80060C0
:1011C000ED024D4601D5164300E096432E604D6872
:1011D000DAF80060AD02554601D5164300E09643AB
:1011E0002E604D68DBF80060AD035D4601D5164307
:1011F00000E096432E604D68DEF80060ED03754612
:1012000001D5164300E096432E60641C0A6816461A
:10121000E2407FF429AFBDE8F88F000008040140E8
:1012200000001110001002400000014000080140C1
:10123000000C014000100140001401400018014062
:10124000001C0140C26821EA02030A4043EA02414D
:10125000016170470AB1016170470904FBE70000B2
:1012600001488068704700000400002070B5040049
:1012700025D094F83D00002520B984F83C50204644
:1012800000F0B8F8242084F83D002068016821F0BF
:10129000010101602068016841F40041016020689B
:1012A000016821F40041016000F052FA4D4A616882
:1012B000914201D84C4900E04C49884201D20120BA
:1012C00070BD4B492368B0FBF1F15E6826F03F0624
:1012D0000E435E606368934206D94FF49673594398
:1012E0004FF47A73B1FBF3F12368491C1E6A26F0B0
:1012F0003F06314319626168914210D84900401E8F
:10130000B0FBF1F2521CC2F30B02042A01D20420FA
:1013100022E0B0FBF1F0401CC0F30B001CE0A2681F
:10132000F2B301EBC10303EB0116431EB3FBF6F36B
:101330005B1C43F480431B0549D092B301EBC1020F
:1013400002EB0111401EB0FBF1F0401CC0F30B009A
:1013500040F4804040F400402168CA694CF6FF73B5
:101360009A431043C861D4E907100143206802681A
:1013700022F0C00211430160D4E903010143206857
:10138000826848F2FF339A4311438160D4E9050132
:1013900008432168CA6822F0FF021043C86001E0D8
:1013A0000EE016E02068016841F00101016025644B
:1013B000202084F83D00256384F83E50002070BD55
:1013C00001EB4106431EB3FBF6F35B1CB3E70120C0
:1013D000C2E701EB4101401EB0FBF1F0401CC0F33D
:1013E0000B00B7E7A086010080841E0000093D00C5
:1013F00040420F0010B586B000210091019102918A
:10140000039100680F4988421AD10F4CA06940F03F
:101410000800A061A069694600F008000490C0209F
:10142000009012200190032003900848FFF70EFE61
:10143000E06940F40010E061E06900F400100490FD
:1014400006B010BD0054004000100240000C0140E6
:1014500002488168027811448160704704000020CE
:10146000074810B5016841F010010160032000F049
:10147000A7F80F2000F006F800F050F8002010BD8B
:101480000020024030B505461F4887B0C16941F0D1
:101490000401C161C06906A900F00400009001A820
:1014A00000F036F90498B0B100F052F94000174945
:1014B000174AB0FBF1F11748491E0260416040F243
:1014C000E7320021C0E903218160816100F02EFC38
:1014D000040003D015E000F03BF9E8E70D4800F008
:1014E00053FC04000DD11E2000F03CF8102D07D253
:1014F000002229461E2000F043F80748056000E05E
:10150000012407B0204630BD0010024040420F00C9
:101510000008004048020020080000200F4808B5DD
:10152000816941F001018161816901F0010100914E
:10153000C16941F08051C161C069002200F0805052
:1015400000900F21901E00F01BF80548416821F023
:10155000E06141F00071416008BD000000100240F0
:1015600000000140002809DB00F01F02012191402A
:101570004009800000F1E020C0F800117047000031
:10158000F0B40E4B1B680C46C3F30223C3F10705EE
:10159000042D00D90425191D072901D2002300E0DC
:1015A000DB1E012606FA05F1491E214099409E40A6
:1015B000761E16403143F0BC01F023BB0CED00E079
:1015C000064900F0070208684FF6FF03184040EA9A
:1015D0000220034A10430860704700000CED00E051
:1015E0000000FA052DE9F0470F46050061D0434E93
:1015F000306800F00700B84209D2306820F00700D8
:1016000038433060306800F00700B84251D1286894
:101610003B4C810712D5400703D5606840F4E06079
:1016200060602878000703D5606840F4605060600F
:101630006068A96820F0F000084360602878C0075F
:1016400028D06868012810D02168022810D08907A6
:1016500000292EDA616821F0030101436160FFF780
:10166000FFFD804641F288390DE021688903EFE7EC
:101670008901EDE7FFF7F4FDA0EB0801494502D928
:101680000320BDE8F0876068696800F00C00B0EBEB
:10169000810FEFD1306800F00700B8420BD93068F5
:1016A00020F0070038433060306800F00700B8428F
:1016B00001D00120E5E72878400705D56068E96892
:1016C00020F4E060084360602878000706D5606871
:1016D000296920F4605040EAC100606000F058F8C9
:1016E0006168084AC1F30311515CC84006490860AB
:1016F00006480068FFF7C6FE0020C2E7002002404F
:1017000000100240E2430008100000200800002002
:101710000F2202600C4A536803F0030343605368CE
:1017200003F0F0038360536803F4E063C36052681E
:101730004FF4E06303EAD20202610448006800F05B
:1017400007000860704700000010024000200240BF
:101750000448054900684968044AC1F30221515C04
:10176000C84070471000002000100240F2430008FB
:101770000448054900684968044AC1F3C221515C24
:10178000C84070471000002000100240F2430008DB
:101790000E4A51680E4801F00C03042B11D0082B9F
:1017A0000FD10C48C1F38343C903C05C0AD551680B
:1017B000084AC1F34041921E515C054A5043B0FBB8
:1017C000F1F07047044948437047000000100240A0
:1017D00000127A00D243000800093D002DE9F84FBD
:1017E000040070D02078C04DC00749D06868C0F3AD
:1017F0008100012807D06868C0F38100022809D160
:101800006868C00306D52868800339D56068002859
:10181000E7D035E06068B0F5803F0BD010B1B0F58F
:10182000A02F11D0286820F480302860286820F488
:10183000802002E0286840F480302860606890B121
:10184000FFF70EFD06460AE0286840F48020286075
:10185000F0E700BFFFF704FD801B642873D82868F9
:101860008003F7D50CE0FFF7FBFC064605E000BF60
:10187000FFF7F6FC801B6428F0D828688003F7D4B3
:1018800020789A4E80074FF001094FF0000839D5B3
:10189000686810F00C0F07D06868C0F38100022858
:1018A00009D16868C00306D42868800714D5206968
:1018B000012808D110E02069B0B1C6F80090FFF708
:1018C000CFFC074605E00AE1FFF7CAFCC01B02286F
:1018D000C4D828688007F7D52868616920F0F80027
:1018E00040EAC10028600DE0C6F80080FFF7B8FCB0
:1018F000074604E0FFF7B4FCC01B022823D8286881
:101900008007F7D4207800072CD57948A169D9B190
:10191000C0F80090FFF7A4FC074604E0FFF7A0FC26
:10192000C01B02280FD8686A8007F7D571484FF4AA
:10193000FA510068B0FBF1F0009000BF0098411E22
:101940000091FAD20EE080E0C0F80080FFF788FC3A
:10195000074604E0FFF784FCC01B022875D8686ABC
:101960008007F7D42078400760D5E8690027C000D9
:1019700008D4E86940F08050E861E869012700F088
:10198000805000905C480168C90513D40168834603
:1019900041F480710160FFF763FC824606E000BFFE
:1019A000FFF75EFCA0EB0A0064284ED8DBF80000CD
:1019B000C005F5D5E06801280AD008B1052813D084
:1019C000286A20F001002862286A20F0040002E062
:1019D000286A40F001002862E06841F2883B98B133
:1019E000FFF73EFC82460BE0286A40F004002862C4
:1019F000EEE700BFFFF734FCA0EB0A0159455AD8C7
:101A0000286A8007F6D50CE0FFF72AFC824605E03D
:101A1000FFF726FCA0EB0A0159454CD8286A80073D
:101A2000F6D41FB1E86920F08050E861E06988B31E
:101A30006968C1F38101022944D00228C6F8608098
:101A400004D0FFF70DFC044638E034E0FFF708FC53
:101A5000074604E0FFF704FCC01B02282BD82868C7
:101A60008001F7D4206AB0F5803F05D16868A1688D
:101A700020F4003008436860D4E90801084369682D
:101A800021F4741108436860C6F86090FFF7E8FB22
:101A9000044606E025E000BFFFF7E2FB001B02283A
:101AA00009D828688001F7D51BE000BFFFF7D8FBF5
:101AB000001B022802D90320BDE8F88F28688001A6
:101AC000F4D40EE00128F7D06868226A00F480316F
:101AD000914204D1616A00F47010884201D0012063
:101AE000EAE70020E8E70000001002400000424260
:101AF0008004424210000020007000407047704790
:101B000070B50446B0F8500000250104206800F0CC
:101B10007BFD18B1A16B0143A16304E000212068A3
:101B200000F050FD0546C5F3432070BDF8B5056BC8
:101B300004460068416B09041BD5290719D5D4E96F
:101B40000A56002E14D00027206800F045FD05F845
:101B5000010B010A05F8011B010C05F8021B000E20
:101B6000361F7F1C05F8010C082FEDD3C4E90A5677
:101B7000F8BD416B4FF00006C9054FF0010744D591
:101B8000390281632068C16B4CF23A129143C16300
:101B90002068C16A21F00101C16228071DD515F036
:101BA000220F09D0206800F049FD28B1A16B014344
:101BB000A1632046FFF7A3FF216840F23A508863F3
:101BC00084F834702663A80703D0204600F0AAF8F2
:101BD000F8BD204600F0A7F8F8BD2806FCD5A806F9
:101BE00009D5206800F02AFD28B1A16B0143A1634B
:101BF0002046FFF784FFA807EED12068C16A21F0D4
:101C00000801C16284F83470E3E7416B490424D5CC
:101C1000290722D5D4E90856002EDDD05FF0000751
:101C200015F8010B009015F8011B361F40EA012042
:101C3000009015F8021B40EA0140009015F8011CC5
:101C400040EA016000906946206800F0D8FC7F1CE3
:101C5000082FE5D3C4E90856F8BD416B11F03A0FDF
:101C6000FAD0416B890703D5A16B41F00201A16352
:101C7000416B090703D5A16B41F00801A163416BDA
:101C8000890603D5A16B41F02001A163416BC90610
:101C900003D5A16B41F01001A16340F23A71816359
:101CA0002068C16B40F23A329143C163206800F072
:101CB000C5FCA16B0843A063280706D584F83470DF
:101CC00026632046FFF71BFFF8BD2806FCD515F05C
:101CD000300F0CD0E16B11484863E06BFFF71EF941
:101CE0000028F1D0E06BBDE8F84000F073BDA80714
:101CF0000CD0216C0A484863206CFFF70FF90028CC
:101D0000E2D0206CBDE8F84000F042BDA66384F844
:101D1000347026632046FFF7F1FEF8BDD527000892
:101D200091270008704770477047704710B504004E
:101D300003D094F83D0010B107E0012010BD002051
:101D400084F83C00204600F01EF8022084F83D0094
:101D5000211D206800F0DAFD012084F8460084F897
:101D60003E0084F83F0084F8400084F8410084F885
:101D7000420084F8430084F8440084F8450084F865
:101D80003D00002010BD704790F83D10012901D0A2
:101D900001207047022180F83D100168CA6842F0B6
:101DA0000102CA6000680E4988420ED00D4988427F
:101DB0000BD0B0F1804F08D00B49884205D00B49B9
:101DC000884202D00A49884204D1816801F00701A3
:101DD000062903D0016841F001010160002070472D
:101DE000002C014000340140000400400008004085
:101DF000000C0040704770B50446006801694FF060
:101E00000005C943890715D4C168C943890711D49E
:101E1000E91E016101202077206880698007204643
:101E200002D0FFF7E7FF04E000F098F8204600F04A
:101E300096F8257720680169C943490717D4C16816
:101E4000C943490713D46FF00401016102202077D0
:101E50002068806910F4407F204602D0FFF7CAFF57
:101E600004E000F07BF8204600F079F82577206840
:101E70000169C943090716D4C168C943090712D4C7
:101E80006FF008010161042020772068C069800795
:101E9000204602D0FFF7AEFF04E000F05FF82046D6
:101EA00000F05DF8257720680169C943C90617D499
:101EB000C168C943C90613D46FF01001016108203D
:101EC00020772068C06910F4407F204602D0FFF7D9
:101ED00091FF04E000F042F8204600F040F825773A
:101EE00020680169C943C90708D1C168C943C90746
:101EF00004D1891E0161204600F032F82068016992
:101F0000C943090609D4C168C943090605D46FF05D
:101F1000800101612046FFF707FF20680169C9437E
:101F2000490609D4C168C943490605D46FF0400188
:101F30000161204600F01EF820680169C943890646
:101F40000BD4C168C943890607D46FF02001016131
:101F50002046BDE87040FFF7E8BE70BD704770478F
:101F600000680349884201D1FFF772BA7047000048
:101F7000000800407047704770470000F8B50168DE
:101F800004460868CA684B6910F00F0F4FF000054F
:101F900059D003F0010602F49077374365D0C107AA
:101FA00005D0D10503D5616C41F0010161644107A1
:101FB00005D5D90703D0616C41F002016164810746
:101FC00005D5D90703D0616C41F0040161640107B4
:101FD00007D502F02001314303D0616C41F00801C4
:101FE0006164616C00293AD0800604D5900602D560
:101FF000204600F000FD20684069616CC0F380104D
:10200000090700D460B3204600F0CEFC2068406988
:10201000400621D52068143050E8001F21F040010F
:1020200040E80012002AF5D1E06BA8B16D49416388
:10203000E06BFEF773FF002811D0E06B416B01B03D
:10204000BDE8F040084783060FD593060DD520461E
:10205000BDE8F84000F0CFBC2046FFF78DFFF8BD8B
:102060002046FFF789FF6564F8BD266B2023012E0B
:102070007CD1C6067AD5D60678D50868486800901F
:1020800048694FF00206400640D5E16B0868406899
:102090000004000CE8D0A28D8242E5D9E085886971
:1020A00020282DD020680C3050E8001F21F48071CA
:1020B00040E80012002AF5D12068143050E8001FD3
:1020C00021F0010140E80012002AF5D12068143007
:1020D00050E8001F21F0400140E80012002AF5D12D
:1020E00084F84230256320680C3050E8001F21F04E
:1020F000100140E80012002AF5D1E06BFEF7EAFE7D
:102100006663A08DE18D401A81B22AE0A08DE18D39
:10211000401A81B2E08D0028A6D00029A4D0226800
:102120000C3252E8000F20F4907042E80007002FB4
:10213000F5D12068143050E8002F22F0010240E869
:102140000027002FF5D184F84230256320680C3039
:1021500050E8002F22F0100240E80023002BF5D1B8
:1021600066632046FFF707FFF8BDFFE705062BD59E
:10217000150629D594F841002128F5D1A068B0F5BD
:10218000805F01D12069B0B1206A411C21622168C1
:1021900000784860E08C401E0004000CE084E3D12D
:1021A0002068C16821F08001C1602068C16841F0E9
:1021B0004001C160D8E7206A0088C0F30800486089
:1021C000206A801C2062E5E74006CDD55006CBD5BD
:1021D000CA68204622F04002CA6084F8413000F00C
:1021E00017F9C1E79929000870B5040004D094F8E4
:1021F0004100002510B106E0012070BD84F8405078
:10220000204600F023F8242084F841002068C168AB
:1022100021F40051C160204600F04EFC20680169A5
:1022200021F4904101612068416921F02A01416156
:102230002068C16841F40051C1606564202084F8C1
:10224000410084F842006563002070BDF0B585B0A0
:102250000024009401940294039403683F4F0220E9
:102260003F4903223F4D4602BB4220D18B6943F4D4
:1022700080438B618B6903F4804304938B6943F043
:1022800004038B618969039201F004010491010246
:10229000CDE9001069462846FEF7D8FECDE9006476
:1022A000694628460294FEF7D1FE05B0F0BD2E4FD8
:1022B000BB4226D1CB6943F40033CB61CB6903F435
:1022C000003304938B6943F004038B6189690392A3
:1022D00001F0040104910421CDE90010694628466B
:1022E000FEF7B4FE0820CDE90004694628460294B2
:1022F000FEF7ACFE002205212620FFF741F926203B
:1023000028E01A4DAB42D0D1CB6943F48023CB6196
:10231000CB6903F4802304938B6943F008038B613A
:102320008969134D01F00801CDE90321CDE9006071
:1023300069462846FEF78AFEE814CDE9000469469E
:1023400028460294FEF782FE002205212720FFF78F
:1023500017F92720FFF706F9A7E70000003801402A
:1023600000100240000801400044004000480040C6
:10237000000C014070472DE9F843044690F84100F5
:102380001F4616460D46202802D00220BDE8F883DD
:102390007DB176B100206064212084F84100FEF711
:1023A0005FFFA6848046E684A068B0F5805F02D017
:1023B00003E00120EAE7206910B12E4600250EE077
:1023C00000260CE08021204600F0D2FBA0B9AEB17F
:1023D00016F8010B21684860E08C401EE084E08C18
:1023E00043464FF0000200970028EBD14FF0400128
:1023F000204600F0BDFB30B10320C7E735F8020BE3
:10240000C0F30800E6E7202084F841000020BDE783
:102410007047FEE710B5044A0021044800F07AFC3A
:102420000349086010BD0000AC43000819280008EB
:102430000000002070B586B0002423480094019469
:1024400002940394816941F010018161816901F076
:1024500010010491816941F004018161816901F0F9
:1024600004010491816941F008018161816901F0F1
:1024700008010491816941F0200181618069134E56
:1024800000F020000490012220213046FEF7E2FEF9
:10249000701401258DE8310069460D48FEF7D6FD20
:1024A000CDE9005469460B480295FEF7CFFD202088
:1024B000CDE900050220CDE9024069463046FEF72D
:1024C000C5FD06B070BD000000100240000C0140C8
:1024D00000100140000801400D4810B50B49016093
:1024E0000C49416000214FF480428160C0E9031231
:1024F00041618161C1610162FEF7B8FE002803D02D
:10250000BDE81040FEF7E4BC10BD000000540040E0
:1025100098000020A08601000C4810B50A4901600F
:102520004FF4E1314160002181600C22C160C0E9BB
:1025300004128161C161FFF757FE002803D0BDE896
:102540001040FEF7C5BC10BD0038014070010020EE
:102550000C4810B50A4901604FF416514160002142
:1025600081600C22C160C0E904128161C161FFF782
:102570003BFE002803D0BDE81040FEF7A9BC10BD0B
:1025800000440040B80100200C4810B50A49016021
:102590004FF416514160002181600C22C160C0E9F6
:1025A00004128161C161FFF71FFE002803D0BDE85E
:1025B0001040FEF78DBC10BD004800400002002016
:1025C000FEE7FEE708444069704700000148FFF756
:1025D000ADBA0000EC000020D0F8800070470A6817
:1025E0008260D1E901231A43D1E903310B43C16869
:1025F0001A436FF30B011143C16000207047096853
:10260000C0F880100020704710B585B004460D203A
:10261000CDE9001040200290002003904FF480602C
:10262000049069462046FFF7DAFF41F288320D2117
:10263000204600F01DF805B010BD000010B585B0B3
:10264000044600210C20CDE900104020CDE9020114
:102650000001049069462046FFF7C1FF034A0C21A0
:10266000204600F005F805B010BD000000E1F505BA
:10267000454B10B51B684FF4FA54B3FBF4F35343C6
:102680005B1E02D24FF0004010BD426B12F0450FAE
:10269000F6D01205F4D4426B520703D504218163AE
:1026A000084610BD426BD20702D00121816305E0CC
:1026B000C52282630269D2B28A4201D0012010BDD4
:1026C0000021FFF77FFF3149084201D1002010BDF2
:1026D000002802DA4FF0007010BD410001D5402003
:1026E00010BD810001D5802010BDC10002D54FF47E
:1026F000807010BD010102D54FF4007010BD410182
:1027000002D54FF4806010BDC10102D54FF40060C6
:1027100010BD010202D54FF4805010BD410202D518
:102720004FF4005010BD810202D54FF4804010BD1F
:10273000C10202D54FF4004010BD410302D54FF451
:10274000003010BD810302D54FF4802010BDC103BD
:1027500002D54FF4002010BD010402D54FF48010C3
:1027600010BD410402D54FF4001010BD810402D504
:102770004FF4800010BD000702D54FF4000010BDDB
:102780004FF4803010BD00001000002008E0FFFD75
:1027900010B5446A40F23A50216888632046FFF73A
:1027A000AFF9012184F8341000212163062801D0FB
:1027B000052805D12068FFF741FFA16B0843A063FE
:1027C000A06B0028204602D0FFF799F910BDFFF753
:1027D00095F910BD10B5446A40F23A5021688863FB
:1027E0002046FFF78DF9012184F834100021216380
:1027F000062801D0052805D12068FFF71FFFA16B2F
:102800000843A063A06B0028204602D0FFF777F9A9
:1028100010BDFFF773F910BD084C4FF47A7500BF77
:1028200001F000F9014606A0FDF748FD20212046F1
:10283000FEF708FD284600F017FAF1E7000C01400A
:102840005B53595354454D5D204672656552544F54
:10285000532069732072756E6E696E672C206865EF
:10286000617020667265653A20256420627974651E
:10287000730D0A0010B5502080F31188BFF34F8FFD
:10288000BFF36F8F01F0F0FB18B104494FF0805097
:102890000860002080F3118810BD000004ED00E006
:1028A00030B58FB028216846FDF7D1FD14210AA864
:1028B000FDF7CDFD01210804CDE9001000240294AC
:1028C00002250491CDE907504FF4E01009906846C5
:1028D000FEF784FF08B172B6FEE70F20CDE90A05C6
:1028E0004FF48060CDE90C4002210AA80E94FEF757
:1028F00079FE002801D072B6FEE70FB030BD7047F8
:102900000148FFF778BA000048020020F0B50268DD
:102910001C4B1D4D1D4E1E4F1E4C4FF0804C9842BF
:1029200009D0A04207D0604505D0A84203D0B042EC
:1029300001D0B84204D122F0700E4A6842EA0E0279
:10294000984209D0A04207D0604505D0A84203D0E4
:10295000B04201D0B84203D122F44075CA682A437C
:102960004D6922F080022A4302608A68C2620A68C6
:102970008262984201D0A04201D10969016301211C
:102980004161F0BD002C01400004004000080040FF
:10299000000C00400034014010B5406A0021C185A0
:1029A000C184FFF7E9FA10BD01680C3151E8002F2E
:1029B00022F4907241E80023002BF5D10168143114
:1029C00051E8002F22F0010241E80023002BF5D14D
:1029D000016B012909D101680C3151E8002F22F067
:1029E000100241E80023002BF5D1202180F842108D
:1029F00000210163704708B590F84210222901D0E8
:102A0000022008BD82684FF480539A4201D10169C7
:102A100021B1816A9A421BD04AB10AE00268816AF8
:102A20005268C2F308020A80816A891C08E00269C0
:102A300072B10268526802F07F020A70816A491C12
:102A40008162C18D491E0904090CC18503D01BE0B8
:102A500002685268F1E70168CA6822F02002CA6081
:102A60000168CA6822F48072CA6001684A6922F06B
:102A700001024A61202180F8421000214163026B6B
:102A8000012A03D0FFF776FC002008BD016301682E
:102A90000C3151E8002F22F0100241E80023002BF6
:102AA000F5D101680A68D20602D50A684968009122
:102AB000818DFFF760FAE7E770B5044600680169A9
:102AC000E26821F44051114301612169A068084383
:102AD000616908432168CA6841F20C639A43024362
:102AE000CA6020684169A26921F4407111434161C3
:102AF0001E492068884202D1FEF73AFE01E0FEF747
:102B000027FE00EBC00101EB001260686421800029
:102B1000B2FBF0F3B3FBF1F36FF018067343B2FBB3
:102B2000F0F5B2FBF0F605EB8305322303EB051558
:102B3000B5FBF1F5B6FBF1F605F0F00505EB061572
:102B4000B2FBF0F6B2FBF0F0B0FBF1F06FF0180260
:102B5000504306EB800003EB0010B0FBF1F021685E
:102B600000F00F002844886070BD0000003801406C
:102B70002DE9F041984617460E460446069D27E08B
:102B8000681C25D02DB1FEF76BFBA0EB0800A84216
:102B90001ED920680C3050E8001F21F4D07140E8A5
:102BA0000012002AF5D12068143050E8001F21F0EF
:102BB000010140E80012002AF5D1202084F84100EC
:102BC00084F84200002084F840000320BDE8F08132
:102BD0002068006836EA000004D00020B842CFD058
:102BE0000020F3E70120F9E70148FFF7C7B900002B
:102BF000B80100200148FFF7C1B900000002002021
:102C0000FEE70907090E002804DB00F1E02080F848
:102C10000014704700F00F0000F1E02080F8141D50
:102C20007047000013B54FF0FF3301226946024898
:102C3000FFF7A1FB00981CBD70010020FEF710FCFF
:102C4000FFF72EFEFFF7F6FBFFF746FCFFF780FCD1
:102C5000FFF79AFCFFF760FC00F020F8FFF7DAFBC3
:102C600000F038F8FEE7000010B5EFF3058149B930
:102C7000EFF3108131B908490968022905D1EFF352
:102C8000118111B16FF0050403E0002408B100F0D8
:102C9000E3FD204610BD000064000020EFF3058036
:102CA00058B9EFF3108040B909490868022801D0EB
:102CB00030B109E0EFF3118030B16FF005007047DB
:102CC00001200860002070474FF0FF30704700007F
:102CD0006400002010B5EFF3058060B9EFF31080B9
:102CE00048B90B490868022802D0012806D00BE039
:102CF000EFF3118040B16FF0050010BD02200860B5
:102D000000F012FE002010BD4FF0FF3010BD00009B
:102D100064000020F0B585B04FEA01034FF00004D5
:102D2000EFF305810394A1BBEFF3108189BB214927
:102D30000968022902D1EFF3118151BB48B3802603
:102D400018218DF8104004AD42B3176807B13D4615
:102D500097691FB139467F1E382F02D21779FF07B6
:102D600002D0002005B0F0BD576907B1BE08D2F807
:102D700008C0BCF1000F0DD0D4685C2C18D31269C8
:102D80003AB137B18DE806103246294601F02DF9E7
:102D900003900DE0D7685FB912694AB903AACDE97B
:102DA0000012B2B2294601F0F3F8012800D00394D2
:102DB0000398D7E7640000202DE9F041134C0F463B
:102DC000054666692068001D00F016FC681C07D1E6
:102DD00037B12168BDE8F0410D48091D00F05CBC29
:102DE00020683544B5424560216805D2A068BDE839
:102DF000F041091D00F038BC6068091D00F034FC8A
:102E0000206B854200D22563BDE8F08114000020CC
:102E1000800700202DE9F041054600F049FC2D4CCB
:102E20002069401C206120682B4F10B1E06930B34D
:102E30002BE025602069012827D1002606EB8600BB
:102E400007EB800000F002FC761C382EF6D32348F6
:102E500000F0FCFB2148143000F0F8FB1F4828303C
:102E600000F0F4FB1D483C3000F0F0FB1B485030F4
:102E700000F0ECFB194860601430A06005E02068A9
:102E8000E96AC06A884200D82560E06A401CE062B6
:102E90006864E86AA169884200D9A06100EB8000FB
:102EA00007EB8000291D00F0F7FB00F021FCE06932
:102EB00000280CD02068E96AC06A884207D2084915
:102EC0004FF080500860BFF34F8FBFF36F8FBDE8A6
:102ED000F081000014000020D00200203007002004
:102EE00004ED00E038B500F0E3FB104CA068C8B971
:102EF0000F4800F0ABFB0E48143000F0A7FB0C4865
:102F00002060143060600A4B00202833009003F1E9
:102F1000500210210A2000F0DFFDA06010B105A1D1
:102F200000F064FCBDE8384000F0E2BB5000002037
:102F300094070020546D72510000000030B4026C00
:102F40000B46002A0BD0C1681144C1604468A142FD
:102F500001D30168C16030BC1846FDF72BBA30BC04
:102F600070472DE9F041856B174604460026026C38
:102F700082B1C7B1E068FDF71DFAE168206C091A5B
:102F8000E1602268914202D26168081AE060022F73
:102F900016D017E02068A8B9606801F0C9F80646A5
:102FA000002060600EE0A068FDF704FA216CA068C4
:102FB0000844A0606168884204D32068A06001E0F2
:102FC00005B16D1E6D1CA5633046BDE8F08110B5DE
:102FD000044690F8590058B101280CD002280FD0AF
:102FE000502080F31188BFF34F8FBFF36F8FFEE740
:102FF000206B00F091FB2046BDE8104000F08CBB38
:1030000010BD000010484FF44061420706D0C01DBB
:103010000D4920F00700411AC1F540610B4A002319
:103020000144C2E900030839103A21F00701116098
:103030004B600B600B1AC0E9001393604FF0004027
:103040005360D06070470000640F002078000020BB
:10305000144E154CA6F29C474FF08058DFF84C9068
:1030600012E000BF00F024FBF068C568281D00F0E6
:10307000C3FA2069401E2061E068401EE06000F055
:1030800037FB2846FFF7A3FFE0680028EAD138683D
:103090000128F9D9C9F80080BFF34F8FBFF36F8FB4
:1030A000F2E700006C0700201400002004ED00E0AF
:1030B00070B51D46049C51B1C4F80020C4E90F014D
:1030C0000121204600F03CFD84F84C5070BD246086
:1030D000F4E72DE9F0470E46DDE9098417468246FC
:1030E00091009946089DA522206BFDF7A8F96FF085
:1030F0000301206B01EB8701084420F007077807E4
:1031000007D0502080F31188BFF34F8FBFF36F8F2C
:10311000FEE72218315C82F83410315C11B1401C9A
:103120001028F6D3002684F84360382D00D33725C5
:10313000E562C4E91356201D00F093FA04F118006B
:1031400000F08FFA2461C5F138006462A061666501
:1031500084F858604A465146384600F03BFA2060F1
:10316000B8F1000F01D0C8F80040BDE8F0870000BA
:1031700030B5114900E011460A688242FBD34B6822
:103180005C18844203D1406818444860084643688C
:103190001C18944209D1084C103C2468A24209D062
:1031A00052681A4442600A6812680260814200D084
:1031B000086030BD0460F9E77800002070B5002495
:1031C00041600B4D0061914206D8D11A826991424B
:1031D00006D2011D686807E09A4203D2994201D3E2
:1031E000012403E0011D286800F03EFA204670BD6E
:1031F0005000002010B5044600F05AFAA06B28B128
:103200005FF0000400F074FA204610BD0124F9E7D5
:1032100030B589B0304D55E00498002806DADDE974
:103220000601059A9047049800284BDB069C6069CC
:1032300010B1201D00F0E0F902A800F0B9F8024634
:1032400004980A283ED2DFE800F00505053D263740
:1032500005053D260598A169034601442046FFF770
:10326000ADFF00B3616A20468847E069012829D193
:10327000002000900598A1690023421819462046B5
:1032800001F060F878B9502080F31188BFF34F8FB8
:10329000BFF36F8FFEE70598A06128B18118134630
:1032A0002046FFF78BFF0DE0502080F31188BFF31D
:1032B0004F8FBFF36F8FFEE794F82C0010B92046B4
:1032C00000F02AFA002204A9A86800F08BFD00286B
:1032D000A2D109B030BD0000500000202DE9FC4112
:1032E0000F46054600F064FB01A800F061F80446B3
:1032F000019818B100F094FFBDE8FC81224EAFB1F7
:1033000070680068A8B30027291B3A46B06800F02F
:1033100081FA00F085FF0028EED11C494FF0805063
:103320000860BFF34F8FBFF36F8FE5E7A542EBD87F
:1033300000F076FF30682746C068C468201D00F0A2
:103340005BF9E069012810D1A0692B4641193A4682
:103350002046FFF733FF40B10020034601460090AE
:103360002A46204600F0EEFF20B1616A20468847D9
:10337000C2E707E0502080F31188BFF34F8FBFF3FF
:103380006F8FFEE70127BFE75000002004ED00E04B
:1033900006484168096829B14168C968C96849682F
:1033A000016370474FF0FF31FAE70000140000207E
:1033B00070B5054600F052FE064E04463069844260
:1033C00003D200F009F8012000E000202860204628
:1033D000346170BD50000020F8B5194D1FE0C06881
:1033E000C4680668201D00F007F9616A2046884716
:1033F000E069012813D1A0693044B04206D92461A4
:103400006060211D286800F02FF908E000200346C5
:10341000014600903246204600F094FF38B12868FB
:1034200001680029DBD16968C5E90010F8BD5020AA
:1034300080F31188BFF34F8FBFF36F8FFEE700005B
:103440005000002008484068401C4FF0500080F3B6
:10345000118804D0BFF34F8FBFF36F8FFEE7BFF328
:103460004F8FBFF36F8FFEE780000020074C20686E
:10347000016841B1C0680021D0F80000FFF72EFFBD
:10348000FFF7C6FEF3E701210020F7E75000002018
:103490002DE9F041044600F00BF994F9455004F190
:1034A000240609E0606A48B1304600F081FE08B1A8
:1034B00000F000FA6D1E6DB2002DF3DC4FF0FF3608
:1034C00084F8456000F014F900F0F2F894F94450E3
:1034D00004F1100709E0206948B1384600F068FEA1
:1034E00008B100F0E7F96D1E6DB2002DF3DC84F831
:1034F0004460BDE8F04100F0FBB800002DE9F04168
:103500000546002700F054FA314E306808B9FFF73D
:1035100079FDF06805424BD1C5B3083568070ED078
:1035200005F00700C0F108000544680707D05020E7
:1035300080F31188BFF34F8FBFF36F8FFEE72DB37A
:103540007068854234D82248103001460C6801E08A
:1035500020460C466168A94202D221680029F7D1B1
:1035600031688C4224D007682168016060680837A0
:10357000411B10290FD96019420708D0502080F351
:103580001188BFF34F8FBFF36F8FFEE710E04160EC
:103590006560FFF7EDFD61687068401A7060B268A1
:1035A000904200D2B060F06801430020C4E90001FD
:1035B00000F036FE780707D0502080F31188BFF363
:1035C0004F8FBFF36F8FFEE73846BDE8F0810000F4
:1035D0006800002010B5031F4FF080741C601B1F93
:1035E00021F001011960191F024B0B60143940389A
:1035F0000A6010BD45340008D0E9013201699A60C3
:10360000D0E901235A604A68824201D182684A6047
:10361000002202610868401E0860086870470000C8
:10362000034B036003F15C0008608020106070476A
:10363000AC080020044B036003F15C0008604FF409
:103640008070106070470000080B002000F1080136
:103650004FF0FF32C0E90112C16001610021016039
:10366000704700210161704730B50B685A1C02D0C9
:1036700000F1080202E0026904E02246546825686D
:103680009D42FAD953684B6099608A605160086125
:103690000168491C016030BD42684A6093688B60D4
:1036A00093685960916008610168491C0160704726
:1036B000502080F31188BFF34F8FBFF36F8F0A49FB
:1036C0004868401C486001280CD10848006810F088
:1036D000FF0F07D0502080F31188BFF34F8FBFF347
:1036E0006F8FFEE7704700008000002004ED00E0CF
:1036F0000849486828B1401E486001D180F311880C
:103700007047502080F31188BFF34F8FBFF36F8F46
:10371000FEE700008000002070B5002827D0144D7F
:10372000A0F108046168E868014207D1502080F3E5
:103730001188BFF34F8FBFF36F8FFEE722683AB156
:10374000502080F31188BFF34F8FBFF36F8FFEE7D8
:103750008143616000F02CF9606869680844686022
:103760002046FFF705FDBDE8704000F059BD70BD73
:10377000680000204FF0E0200021016181610549CF
:103780004FF47A720968B1FBF2F1491E41610721D9
:10379000016170471000002010B5FCF76BFD114966
:1037A00010280ED300F1E02090F8F0030A78904240
:1037B00007D2502080F31188BFF34F8FBFF36F8F74
:1037C000FEE709480068896800F4E060884207D98C
:1037D000502080F31188BFF34F8FBFF36F8FFEE748
:1037E00010BD0000800000200CED00E010B5084B7B
:1037F000002200BF53F832401CB1521C082AF9D3F2
:1038000010BD43F8321003EBC201486010BD000048
:103810009002002070B515460E460446FFF748FF9B
:1038200094F944100020491C01D184F8440094F913
:103830004510491C01D184F84500FFF759FFA06BE2
:1038400028B92A46314604F1240000F051F82046F8
:10385000BDE87040FFF71CBE10B5020014D00F4841
:10386000806B38B1502080F31188BFF34F8FBFF3C6
:103870006F8FFEE700F09CF800211046FFF79CFADE
:1038800000F0CEFC002807D105494FF080500860B9
:10389000BFF34F8FBFF36F8F10BD000014000020E7
:1038A00004ED00E002498A6A02604969416070479C
:1038B00014000020014901204862704714000020D4
:1038C00010B50C4650B1094909681831FFF7CCFE14
:1038D0002046BDE810400121FFF76EBA502080F36A
:1038E0001188BFF34F8FBFF36F8FFEE714000020E6
:1038F00070B514460D4668B10A4909681831FFF7DA
:10390000CBFE0CB14FF0FF3521462846BDE8704094
:10391000FFF752BA502080F31188BFF34F8FBFF3E7
:103920006F8FFEE71400002030B587B000240394A9
:1039300005AA04A903A80494FFF772FEDDE90301B8
:103940000094CDE90110002315A11748059A00F055
:103950004CFB164D002868631FD000F0C3FC012803
:1039600009D0401C19D1502080F31188BFF34F8F2C
:10397000BFF36F8FFEE7502080F31188BFF34F8FA6
:10398000BFF36F8F4FF0FF3028630120E8616C6157
:1039900007B0BDE8304000F04BB807B030BD0000C4
:1039A00049444C450000000051300008140000203C
:1039B0000248816B491C816370470000140000209D
:1039C000164810B5816B11B10121416210BD002173
:1039D00041628169124A01E0B9B1491E01EB8103DC
:1039E00052F82330002BF7D001EB810302EB830266
:1039F00002F1080453685B685360A34201D15B681D
:103A00005360DA680260816110BD502080F3118834
:103A1000BFF34F8FBFF36F8FFEE70000140000204D
:103A2000D002002001484068704700006800002074
:103A30001CB5264908780190FF20087008788DF899
:103A400000009DF800009DF8002000F0F00090427A
:103A500007D0502080F31188BFF34F8FBFF36F8FD3
:103A6000FEE79DF800001A4B00F050001870072088
:103A7000986005E09DF8002052008DF80020401E5F
:103A80009DF800201206F5D49860032807D0502036
:103A900080F31188BFF34F8FBFF36F8FFEE74FF4B2
:103AA00040709860019808700A48016841F47001FC
:103AB0000160016841F070410160FFF75BFE00208A
:103AC0005860FCF7A1FB00201CBD000000E400E0F2
:103AD0008000002020ED00E038B5049D18B153B1FE
:103AE000CAB181B120E0502080F31188BFF34F8F1D
:103AF000BFF36F8FFEE7502080F31188BFF34F8F25
:103B0000BFF36F8FFEE7502080F31188BFF34F8F14
:103B1000BFF36F8FFEE739B1502080F31188BFF3F8
:103B20004F8FBFF36F8FFEE750241C46012384F8AC
:103B300046302B460094FFF7BBFA204638BD000004
:103B400070B50D46040025D0FFF7B2FDD4E90F2073
:103B5000216802FB001161600021A1632168A1605E
:103B60000A46D4E90F01401E00FB0121E160214615
:103B70004FF0FF3001F8440F487004F110008DB190
:103B8000FFF764FD04F12400FFF760FDFFF7B0FDCF
:103B9000012070BD502080F31188BFF34F8FBFF319
:103BA0006F8FFEE721690029F0D000F001FB0028AB
:103BB000ECD004494FF080500860BFF34F8FBFF343
:103BC0006F8FE3E704ED00E02DE9FF4782B01D466B
:103BD0008A464FF00008040003D0BAF1000F08D065
:103BE00011E0502080F31188BFF34F8FBFF36F8F28
:103BF000FEE7206C38B1502080F31188BFF34F8F5F
:103C0000BFF36F8FFEE7022D0AD1E06B012807D0CA
:103C1000502080F31188BFF34F8FBFF36F8FFEE703
:103C200000F00EFA3F4F4FF000094FF0805648B9B0
:103C3000049838B1502080F31188BFF34F8FBFF341
:103C40006F8FFEE7FFF734FDA06BE16B884207D36F
:103C5000022D05D00498D0B1B8F1000F1AD01EE0A3
:103C60002A4651462046FFF77CF9616A19B104F1F2
:103C7000240000F09DFA20B13E60BFF34F8FBFF3E8
:103C80006F8FFFF735FD012006B0BDE8F087FFF725
:103C90002FFD22E06846FFF705FE4FF00108FFF711
:103CA00027FDFFF785FEFFF703FD94F94400401C54
:103CB00001D184F8449094F94500401C01D184F866
:103CC0004590FFF715FD04A9684600F027F930B1CB
:103CD0002046FFF7DDFB00F0A3FA0020D4E7FFF752
:103CE000E7FCA06BE16B884213D1FFF701FD04F103
:103CF00010000499FFF7E4FD2046FFF7C9FB00F030
:103D00008FFA00289ED13E60BFF34F8FBFF36F8FB5
:103D100098E7FFF7EDFC2046FFF7BAFB00F080FACA
:103D200090E7000004ED00E02DE9F0471F469046C3
:103D30008946040003D0B9F1000F08D011E05020EB
:103D400080F31188BFF34F8FBFF36F8FFEE7206CB6
:103D500038B1502080F31188BFF34F8FBFF36F8FBE
:103D6000FEE7022F0AD1E06B012807D0502080F334
:103D70001188BFF34F8FBFF36F8FFEE7FFF70CFD86
:103D80005020EFF3118680F31188BFF34F8FBFF3FC
:103D90006F8FA06BE16B884206D3022F04D0002006
:103DA00086F31188BDE8F08794F945503A464946B4
:103DB0002046FFF7D6F8681C04D06D1C84F84550E7
:103DC0000120EDE7606A0028FAD004F1240000F039
:103DD000EFF90028F4D0B8F1000FF1D00121C8F8B4
:103DE0000010EDE72DE9F747002683B08A4604006E
:103DF00003D0BAF1000F08D011E0502080F31188F1
:103E0000BFF34F8FBFF36F8FFEE7206C38B15020A8
:103E100080F31188BFF34F8FBFF36F8FFEE700F081
:103E20000FF9DFF8F4804FF000094FF0805748B9E0
:103E3000059838B1502080F31188BFF34F8FBFF33E
:103E40006F8FFEE7FFF734FCA56BC5B151462046E6
:103E5000FFF774F86D1EA563206950B104F11000DE
:103E600000F0A6F928B1C8F80070BFF34F8FBFF378
:103E70006F8FFFF73DFC012006B0BDE8F087059885
:103E800008B11EB106E0FFF733FC27E06846FFF7F4
:103E900009FD0126FFF72CFCFFF78AFDFFF708FC60
:103EA00094F94400401C01D184F8449094F94500F1
:103EB000401C01D184F84590FFF71AFC05A968461B
:103EC00000F02CF8002820460AD0FFF7E1FA00F0B5
:103ED000A7F92046FFF78EF90028B3D00020CBE7E2
:103EE000FFF788F990B104F124000599FFF7E8FC89
:103EF0002046FFF7CDFA00F093F90028A2D1C8F8C8
:103F00000070BFF34F8FBFF36F8F9BE72046FFF723
:103F1000BFFA00F085F995E704ED00E02DE9F041E6
:103F20000C46050011D0C4B1FFF7C2FB174B5A690C
:103F30006E682068911B471C17D02F689B6A9F42B0
:103F400019D0964217D8012410E0502080F3118830
:103F5000BFF34F8FBFF36F8FFEE7502080F31188C0
:103F6000BFF34F8FBFF36F8FFEE70024FFF7C0FB57
:103F70002046BDE8F081884205D9401A20602846D5
:103F8000FFF790FCF1E700202060DCE71400002040
:103F90002DE9FF5F8346DDE90E87994616468A467E
:103FA0009000FFF7ABFA05001CD05C20FFF7A6FAE3
:103FB000040014D00020256384F85900CDE90240A4
:103FC000CDE900874B46324651465846FFF781F807
:103FD0002046FEF71FFF012004B0BDE8F09F2846F1
:103FE000FFF79AFB4FF0FF30F6E7F0B585B0DDE95B
:103FF0000B640A9DA6B1DCB15C27009726630226FC
:1040000084F85960002604AFCDE90246CDE9005797
:10401000FFF75FF82046FEF7FDFE049805B0F0BDFF
:10402000502080F31188BFF34F8FBFF36F8FFEE7EF
:10403000502080F31188BFF34F8FBFF36F8FFEE7DF
:104040000548C16919B1806B18B100207047012083
:1040500070470220704700001400002001484069AA
:1040600070470000140000202DE9F0412E4C00277D
:10407000A06B40B1206A401C2062606A00B1012739
:104080003846BDE8F0816669761C666113D16068C8
:10409000006838B1502080F31188BFF34F8FBFF311
:1040A0006F8FFEE76068A1686160A060A06A401C35
:1040B000A062FFF76DF9206BDFF87080864209D3AC
:1040C0006068006880B16068C068C56868688642DA
:1040D0000DD220632068C06A00EB800158F82100EF
:1040E0000128CAD90127C8E74FF0FF30F1E7281DA2
:1040F000FFF782FAA86A18B105F11800FFF77CFAF9
:10410000E86AA169884200D9A06100EB800108EB50
:104110008100291DFFF7C0FAE86A2168C96A884250
:10412000CED30127CCE7000014000020D0020020ED
:1041300070B504004FF0000133D01B4D2868844255
:1041400007D0502080F31188BFF34F8FBFF36F8FDC
:10415000FEE7206D38B1401E2065E36CE26A9A42AA
:104160001FD040B11DE0502080F31188BFF34F8F66
:10417000BFF36F8FFEE7201DFFF73EFAE06CE062B1
:10418000C0F13800A061E06AA969884200D9A8613D
:10419000064900EB800001EB8000211DFFF77CFA4F
:1041A0000121084670BD000014000020D00200204C
:1041B00070B5C068C46854B104F118000646FFF732
:1041C0001BFA144DA86B50B13146134815E050202E
:1041D00080F31188BFF34F8FBFF36F8FFEE7201D71
:1041E000FFF70AFAE06AA969884200D9A8610B4979
:1041F00000EB800001EB8000211DFFF74DFAE06A23
:104200002968C96A884202D90120686270BD00200D
:1042100070BD00001400002058070020D0020020CC
:104220002DE9F0472C4D00242746A86B38B1FFF745
:104230003FFAA86B401EA863A86B40B146E050202F
:1042400080F31188BFF34F8FBFF36F8FFEE72969AB
:10425000224E0120D1B3A6F5916980463068E0B1C5
:10426000F068C46804F11800FFF7C6F9201DFFF7D5
:10427000C3F9E06AA969884200D9A86100EB80010E
:1042800009EB8100211DFFF707FAE06A2968C96A76
:104290008842E3D3C5F82480E0E70CB1FFF778F853
:1042A0002C6A4CB14FEA0806FFF7DEFE00B16E62E1
:1042B000641EF9D100202862686A38B108490127D4
:1042C00038070860BFF34F8FBFF36F8FFFF710FA07
:1042D0003846BDE8F0870000140000205807002091
:1042E00004ED00E010B586B0FEF7FCFD114CA068AF
:1042F000B8B100200390049005AA04A903A8FFF711
:1043000099F9DDE9032102208DE8070000230AA1C5
:104310000B48059AFFF769FEE06010B106B0012076
:1043200010BD502080F31188BFF34F8FBFF36F8F04
:10433000FEE7000050000020546D722053766300A9
:104340006D3400082DE9FF411E46134602000A9D08
:104350004FF0000016D0144CA768002F0FD0CDE905
:1043600000130292062917DAFFF76AFE02284FF0BF
:1043700000030FD000226946A068FFF725FC04B0B7
:10438000BDE8F081502080F31188BFF34F8FBFF359
:104390006F8FFEE72A46EEE700233246694638462D
:1043A000FFF7C2FCEBE700005000002008440008C3
:1043B00000000000000000000000000000000000FD
:1043C00000020000180000000000000000000000D3
:1043D000010202030405060708090A0B0C0D0E0F63
:1043E0001010000000000000000001020304060796
:1043F000080900000000010203043A7474003A74D2
:1044000074003A747400000064656661756C7454DD
:1044100061736B0034440008000000209800000025
:104420006C010008CC4400089800002028220000FD
:1044300088010008000000000100000010000000DA
:104440000000000000127A000000000000000000E0
:10445000000000000000000000000000000000005C
:10446000000000000000000000000000000000004C
:10447000000000000000000000000000000000003C
:10448000000000000000000000000000000000002C
:10449000000000000000000000000000000000001C
:1044A000000000000000000000000000000000000C
:1044B0000000000000000000AAAAAAAA0000000054
:0C44C000000000000000000000000000F0
:0400000508000131BD
:00000001FF
