:020000040800F2
:10000000783F0020DD010008971E0008A5190008B0
:10001000951E000899020008192900080000000038
:100020000000000000000000000000004501000882
:100030009B0200080000000089010008C524000898
:10004000F7010008F7010008F7010008F7010008B0
:10005000F7010008F7010008F7010008F7010008A0
:10006000F7010008F7010008F7010008F701000890
:10007000F7010008F7010008F7010008F701000880
:10008000F7010008F7010008F7010008F701000870
:10009000F7010008F7010008F7010008F701000860
:1000A000F7010008F7010008F7010008F701000850
:1000B000F7010008F701000851250008F7010008C2
:1000C000F7010008F7010008F7010008F701000830
:1000D000F7010008F7010008C1270008CD27000834
:1000E000F7010008F7010008F7010008F701000810
:1000F000F7010008F7010008F7010008F701000800
:10010000F7010008F7010008F7010008F7010008EF
:10011000F7010008F7010008F7010008F7010008DF
:10012000F7010008F7010008F7010008F7010008CF
:10013000DFF80CD000F09EF800480047A13400081A
:10014000783F0020224B19680868B0E8F00F80F370
:100150000988BFF36F8F4FF0000080F311884EF0D5
:100160000D0E70470000000006480068006880F32C
:10017000088862B661B6BFF34F8FBFF36F8F00DFA1
:1001800000BF00BF08ED00E0EFF30980BFF36F8F01
:100190000F4B1A6820E9F00F106008B54FF05000BF
:1001A00080F31188BFF34F8FBFF36F8F04F014FA01
:1001B0004FF0000080F31188BDE808401968086816
:1001C000B0E8F00F80F30988BFF36F8F704700BF6E
:1001D00014000020EFF305807047000006488047B8
:1001E00006480047FEE7FEE7FEE7FEE7FEE7FEE71C
:1001F000FEE7FEE7FEE7FEE74F25000831010008B5
:1002000040EA01039B0703D009E008C9121F08C098
:10021000042AFAD203E011F8013B00F8013B521E18
:10022000F9D27047D2B201E000F8012B491EFBD28F
:1002300070470022F6E710B513460A4604461946F1
:10024000FFF7F0FF204610BD30B50B4601460020F9
:100250002022012409E021FA02F59D4205D303FA88
:1002600002F5491B04FA02F52844151EA2F1010209
:10027000F1DC30BD064C074D06E0E06840F00103BC
:1002800094E8070098471034AC42F6D3FFF754FFC8
:10029000245A0008445A0008FEE7704772B6FEE789
:1002A000002200F001B8000030B50E4B05460120D9
:1002B0005C7A012C15D8587A00241C54587A03EB28
:1002C000800045605D7A03F108002A54587A421C88
:1002D0005A72303008703A2048702F208870CC70E5
:1002E000002030BD6C3B002010B590F8211000229A
:1002F000022905D00421816380F82020012010BD4F
:1003000001680B6823F00E030B6001680B6823F093
:1003100001030B6090F84030C46B012101FA03F334
:10032000636080F8211080F82020104610BD000086
:100330002DE9F05F90F821100024022903D0042158
:100340008163012485E001680A6822F00E020A60D8
:1003500001680A6822F001020A603F4E3E4FB21562
:10036000DFF8F4C0DFF8F090DFF8ECA0DFF8E8B0D9
:10037000DFF8E4E00168783F13011502ACF1640C8A
:10038000A9F15009AAF13C0AABF1280BAEF1140E09
:100390004FF48018B14227D9B9420ED0614512D02E
:1003A00049451DD0514518D0594518D0714501D146
:1003B000424615E0294EB14201D1012210E0274EFC
:1003C0001436B14201D110220AE0244E2836B1423F
:1003D00006D0224A3C32914201D11A4600E02A4618
:1003E0001E49091F0A602BE0B94213D0614517D09E
:1003F000494522D051451DD059451DD0714501D1E7
:1004000042461AE0B14202D14FF0807215E0134E1D
:10041000B14201D1012210E0104E1436B14201D197
:1004200010220AE00D4E2836B14206D00B4A3C326B
:10043000914201D11A4600E02A46074980394A60B4
:10044000012180F82110002180F82010416B01B1BA
:1004500088472046BDE8F09F800002400804024023
:100460002DE9F84FDFF8C8910024A9F1040B2346C9
:100470000F2709F1040AABF1040ED1E00125A540D4
:1004800006EA0502AA4276D1DFF8A8C14E68A6EBBB
:100490000C0866452BD00DDC032E34D005DC36B3BA
:1004A000012E19D0022E2FD11BE0112E16D0122EA4
:1004B0002AD119E0B8F5881F19D006DCB8F5803FBD
:1004C00015D0B8F5801F1FD111E0B8F5001F0ED070
:1004D000B8F5041F18D10AE0CB6815E0CB681B1DE6
:1004E00012E0CB6808330FE0CB680C330CE08B686C
:1004F0002BB1012B4FF0080303D0456104E0042326
:1005000002E0056100E00023FF2A01D8064601E071
:1005100000F104064FEA840501D9A5F12005D6F8BB
:10052000008007FA05FC28EA0C0803FA05F548EAFA
:100530000508C6F800804D68ED0070D53E4DAE69E7
:1005400046F00106AE61AD6924F0030605F0010531
:1005500000953A4D06EB050CDCF80850A607360F5F
:1005600007FA06F825EA0805DFF8D480404503D1EC
:100570004FF0000825E052E0DFF8C880404502D186
:100580004FF001081DE0DFF8C080404502D14FF078
:10059000020816E0DFF8B480404502D14FF00308AE
:1005A0000FE0DFF8AC80404502D14FF0040808E0CE
:1005B000DFF8A080404502D14FF0050801E04FF080
:1005C000060808FA06F848EA0508CCF808804D68DD
:1005D000D9F80060ED024D4601D5164300E0964380
:1005E0002E604D68DAF80060AD02554601D516431D
:1005F00000E096432E604D68DBF80060AD035D4679
:1006000001D5164300E096432E604D68DEF8006089
:10061000ED03754601D5164300E096432E60641C39
:100620000A681646E2407FF429AFBDE8F88F000063
:1006300008040140000011100010024000000140B9
:1006400000080140000C014000100140001401406E
:1006500000180140001C0140C26821EA02030A4060
:1006600043EA0241016170470AB101617047090420
:10067000FBE700000148806870470000040000208C
:1006800070B5040025D094F83D00002520B984F809
:100690003C50204600F050F9242084F83D002068AA
:1006A000016821F0010101602068016841F4004106
:1006B00001602068016821F40041016000F0EAFA5D
:1006C0004D4A6168914201D84C4900E04C4988424A
:1006D00001D2012070BD4B492368B0FBF1F15E6887
:1006E00026F03F060E435E606368934206D94FF4DE
:1006F000967359434FF47A73B1FBF3F12368491CA5
:100700001E6A26F03F06314319626168914210D893
:100710004900401EB0FBF1F2521CC2F30B02042A46
:1007200001D2042022E0B0FBF1F0401CC0F30B002A
:100730001CE0A268F2B301EBC10303EB0116431EF8
:10074000B3FBF6F35B1C43F480431B0549D092B323
:1007500001EBC10202EB0111401EB0FBF1F0401CA5
:10076000C0F30B0040F4804040F400402168CA69A7
:100770004CF6FF739A431043C861D4E90710014354
:100780002068026822F0C00211430160D4E903012D
:1007900001432068826848F2FF339A431143816025
:1007A000D4E9050108432168CA6822F0FF0210431A
:1007B000C86001E00EE016E02068016841F0010128
:1007C00001602564202084F83D00256384F83E50B4
:1007D000002070BD01EB4106431EB3FBF6F35B1C2A
:1007E000B3E70120C2E701EB4101401EB0FBF1F08D
:1007F000401CC0F30B00B7E7A086010080841E00F8
:1008000000093D0040420F002DE9FF4F83B09A469A
:10081000DDE9119793460446DDF84080FFF72AFF93
:10082000054694F83D0020287FD119230122404934
:100830002046009501F04EF9002876D194F83C004E
:10084000012872D0012084F83C0020680168C907A3
:1008500003D1016841F0010101602068016821F4C1
:1008600000610160212084F83D00402084F83E00B2
:1008700000262664C4F82480A4F82A90608D208580
:100880002C48E062CDE9007553465A46204604994B
:1008900001F0A0F870B930E02A463946204601F050
:1008A000BFF958B1206C042804D12068016841F4D4
:1008B00000710160012007B0BDE8F08F606A216817
:1008C00000780861606A401C6062218D491E89B20F
:1008D0002185628D521E628522685369DB435B0766
:1008E0000BD469B100781061606A401C6062208D91
:1008F000401E2085608D401E6085208D0028CBD154
:100900002A463946204601F0B9F80028CAD154F8E1
:100910003D0B016841F400710160202004F81E09BC
:10092000E67766770020C6E7FFE70220C3E700000E
:10093000020010000000FFFF10B586B000210091FA
:1009400001910291039100680F4988421AD10F4C1E
:10095000A06940F00800A061A069694600F00800A5
:100960000490C020009012200190032003900848BA
:10097000FFF776FDE06940F40010E061E06900F403
:100980000010049006B010BD00540040001002405A
:10099000000C014002488168027811448160704770
:1009A00004000020074810B5016841F01001016003
:1009B000032000F0A7F80F2000F006F800F050F830
:1009C000002010BD0020024030B505461F4887B00A
:1009D000C16941F00401C161C06906A900F00400C9
:1009E000009001A800F036F90498B0B100F052F977
:1009F00040001749174AB0FBF1F11748491E026041
:100A0000416040F2E7320021C0E903218160816149
:100A100000F0A1FC040003D015E000F03BF9E8E78A
:100A20000D4800F0C7FC04000DD11E2000F03CF87A
:100A3000102D07D2002229461E2000F043F8074857
:100A4000056000E0012407B0204630BD00100240E0
:100A500040420F000008004038020020080000203B
:100A60000F4808B5816941F001018161816901F098
:100A700001010091C16941F08051C161C06900224A
:100A800000F0805000900F21901E00F01BF80548E8
:100A9000416821F0E06141F00071416008BD000053
:100AA0000010024000000140002809DB00F01F0296
:100AB000012191404009800000F1E020C0F80011C0
:100AC00070470000F0B40E4B1B680C46C3F30223C2
:100AD000C3F10705042D00D90425191D072901D2EA
:100AE000002300E0DB1E012606FA05F1491E214025
:100AF00099409E40761E16403143F0BC01F022BF63
:100B00000CED00E0064900F0070208684FF6FF030D
:100B1000184040EA0220034A104308607047000072
:100B20000CED00E00000FA052DE9F0470F46050046
:100B300061D0434E306800F00700B84209D23068F7
:100B400020F0070038433060306800F00700B842FA
:100B500051D128683B4C810712D5400703D5606806
:100B600040F4E06060602878000703D5606840F4D6
:100B7000605060606068A96820F0F0000843606021
:100B80002878C00728D06868012810D0216802287A
:100B900010D0890700292EDA616821F00301014392
:100BA0006160FFF767FD804641F288390DE02168FA
:100BB0008903EFE78901EDE7FFF75CFDA0EB080192
:100BC000494502D90320BDE8F0876068696800F0F4
:100BD0000C00B0EB810FEFD1306800F00700B84295
:100BE0000BD9306820F0070038433060306800F0DF
:100BF0000700B84201D00120E5E72878400705D575
:100C00006068E96820F4E0600843606028780007C5
:100C100006D56068296920F4605040EAC100606030
:100C200000F058F86168084AC1F30311515CC840EC
:100C30000649086006480068FFF7C6FE0020C2E7C4
:100C40000020024000100240D6530008100000208F
:100C5000080000200F2202600C4A536803F00303CF
:100C60004360536803F0F0038360536803F4E06368
:100C7000C36052684FF4E06303EAD20202610448A1
:100C8000006800F007000860704700000010024094
:100C9000002002400448054900684968044AC1F33D
:100CA0000221515CC8407047100000200010024033
:100CB000E65300080448054900684968044AC1F33E
:100CC000C221515CC8407047100000200010024053
:100CD000E65300080E4A51680E4801F00C03042B3D
:100CE00011D0082B0FD10C48C1F38343C903C05C5A
:100CF0000AD55168084AC1F34041921E515C054A29
:100D00005043B0FBF1F0704704494843704700007E
:100D10000010024000127A00C653000800093D008E
:100D20002DE9F84F040070D02078C04DC00749D09D
:100D30006868C0F38100012807D06868C0F38100AB
:100D4000022809D16868C00306D52868800339D510
:100D500060680028E7D035E06068B0F5803F0BD0D0
:100D600010B1B0F5A02F11D0286820F48030286091
:100D7000286820F4802002E0286840F48030286051
:100D8000606890B1FFF776FC06460AE0286840F4F8
:100D900080202860F0E700BFFFF76CFC801B642810
:100DA00073D828688003F7D50CE0FFF763FC06468C
:100DB00005E000BFFFF75EFC801B6428F0D82868C0
:100DC0008003F7D420789A4E80074FF001094FF046
:100DD000000839D5686810F00C0F07D06868C0F3B8
:100DE0008100022809D16868C00306D428688007FA
:100DF00014D52069012808D110E02069B0B1C6F8E7
:100E00000090FFF737FC074605E00AE1FFF732FCE8
:100E1000C01B0228C4D828688007F7D528686169F4
:100E200020F0F80040EAC10028600DE0C6F800801C
:100E3000FFF720FC074604E0FFF71CFCC01B02285C
:100E400023D828688007F7D4207800072CD5794864
:100E5000A169D9B1C0F80090FFF70CFC074604E087
:100E6000FFF708FCC01B02280FD8686A8007F7D577
:100E700071484FF4FA510068B0FBF1F0009000BFE8
:100E80000098411E0091FAD20EE080E0C0F8008088
:100E9000FFF7F0FB074604E0FFF7ECFBC01B02285E
:100EA00075D8686A8007F7D42078400760D5E8696C
:100EB0000027C00008D4E86940F08050E861E86984
:100EC000012700F0805000905C480168C90513D4E8
:100ED0000168834641F480710160FFF7CBFB8246D5
:100EE00006E000BFFFF7C6FBA0EB0A0064284ED85F
:100EF000DBF80000C005F5D5E06801280AD008B18C
:100F0000052813D0286A20F001002862286A20F002
:100F1000040002E0286A40F001002862E06841F223
:100F2000883B98B1FFF7A6FB82460BE0286A40F0A9
:100F300004002862EEE700BFFFF79CFBA0EB0A016C
:100F400059455AD8286A8007F6D50CE0FFF792FB7E
:100F5000824605E0FFF78EFBA0EB0A0159454CD80D
:100F6000286A8007F6D41FB1E86920F08050E86154
:100F7000E06988B36968C1F38101022944D002287D
:100F8000C6F8608004D0FFF775FB044638E034E013
:100F9000FFF770FB074604E0FFF76CFBC01B02285D
:100FA0002BD828688001F7D4206AB0F5803F05D19E
:100FB0006868A16820F4003008436860D4E908013B
:100FC0000843696821F4741108436860C6F86090AA
:100FD000FFF750FB044606E025E000BFFFF74AFBA1
:100FE000001B022809D828688001F7D51BE000BF44
:100FF000FFF740FB001B022802D90320BDE8F88F51
:1010000028688001F4D40EE00128F7D06868226ACD
:1010100000F48031914204D1616A00F4701088427A
:1010200001D00120EAE70020E8E7000000100240BC
:101030000000424280044242100000200070004044
:1010400070B5040009D0606A002540B12561656172
:10105000A56294F8510040B10CE0012070BD6068B9
:10106000B0F5827FF4D0E561F2E784F85050204675
:1010700000F040F8022084F851002068016821F057
:1010800040010160A088218900F4827001F40441CC
:101090000843A18901F400610843217C01F00201A9
:1010A0000843217D01F001010843218B01F4007107
:1010B0000843217F01F03801084394F8201001F023
:1010C00080010843218D01F4005108432168086024
:1010D000A069042101EA1040216848602068C169C4
:1010E00021F40061C1616565012084F85100002090
:1010F00070BD000030B585B00024009401940294C6
:10110000039400681449884223D11448816941F44A
:1011100080518161816901F480510491816941F0BC
:101120000401816180690E4D00F004000490A0204C
:101130000090022001900320039069462846FFF7A3
:101140008FF94020CDE90004694628460294FFF754
:1011500087F905B030BD00000030014000100240AA
:10116000000801402DE9FF4F81B0044690F850007F
:1011700000260E9F1D4693464FF0010901280FD00F
:101180004FF0010A84F850A0FFF774FA804694F8F3
:101190005100616801280DD0B1F5827F08D103E0CC
:1011A000022005B0BDE8F08FA16809B9042801D07C
:1011B0000226C9E00298002865D0BBF1000FFBD0E1
:1011C000002DF9D094F85100042802D0052084F8AD
:1011D000510000206065C4F838B0E587A587029902
:1011E0002163E586A586206460642068016849065D
:1011F00003D4016841F040010160E068B0F5006F80
:10120000606803D0F0B3012D47D081E008B1012D13
:101210003CD1206B21680088C860206B801C206353
:10122000E08E401EE08631E02068816889070FD596
:10123000E18E69B1B9F1010F0AD1216B0988C16052
:10124000206B801C2063E08E401EE0864FF000097A
:1012500020688168C9070CD0E18F51B1C068A16BCB
:101260000880A06B801CA063E08F401EE0874FF0D9
:101270000109FFF7FFF9A0EB0800B84206D3781C7C
:1012800004D001E009E05BE003265BE0E08E00288B
:10129000CAD1E08F0028C7D140E0206B21680078D8
:1012A0000873206B401C2063E08E401EE0862FE018
:1012B0002068816889070FD5E18E69B1B9F1010F06
:1012C0000AD1216B09780173206B401C2063E08EEA
:1012D000401EE0864FF0000920688168C9070CD0E5
:1012E000E18F51B1C068A16B0870A06B401CA06376
:1012F000E08F401EE0874FF00109FFF7BBF9A0EB3C
:101300000800B84202D3781C02D0BAE7002FB8D048
:10131000E08E0028CCD1E08F0028C9D14246394662
:10132000204600F09FFE18B10126202060650BE0EA
:10133000A06818B92068C16880680090606D08B125
:10134000012601E084F851A0002084F850003046C6
:1013500027E77047704710B5040003D094F83D00AC
:1013600010B107E0012010BD002084F83C002046A9
:1013700000F01EF8022084F83D00211D206801F0D5
:10138000EDF8012084F8460084F83E0084F83F0020
:1013900084F8400084F8410084F8420084F8430057
:1013A00084F8440084F8450084F83D00002010BD16
:1013B0007047000090F83D10012901D001207047CE
:1013C000022180F83D100168CA6842F00102CA603B
:1013D00000680E4988420ED00D4988420BD0B0F10A
:1013E000804F08D00B49884205D00B49884202D073
:1013F0000A49884204D1816801F00701062903D017
:10140000016841F00101016000207047002C01409B
:10141000003401400004004000080040000C00407F
:10142000704770B50446006801694FF00005C94374
:10143000890715D4C168C943890711D4E91E016120
:1014400001202077206880698007204602D0FFF7BE
:10145000E7FF04E000F098F8204600F096F82577C2
:1014600020680169C943490717D4C168C9434907BE
:1014700013D46FF004010161022020772068806995
:1014800010F4407F204602D0FFF7CAFF04E000F0CE
:101490007BF8204600F079F8257720680169C94378
:1014A000090716D4C168C943090712D46FF00801AF
:1014B0000161042020772068C0698007204602D09F
:1014C000FFF7AEFF04E000F05FF8204600F05DF8A3
:1014D000257720680169C943C90617D4C168C94383
:1014E000C90613D46FF0100101610820207720682D
:1014F000C06910F4407F204602D0FFF791FF04E05E
:1015000000F042F8204600F040F825772068016995
:10151000C943C90708D1C168C943C90704D1891E95
:101520000161204600F032F820680169C9430906CC
:1015300009D4C168C943090605D46FF0800101616F
:101540002046FFF706FF20680169C943490609D410
:10155000C168C943490605D46FF0400101612046C6
:1015600000F01EF820680169C94389060BD4C168E0
:10157000C943890607D46FF0200101612046BDE808
:101580007040FFF7E7BE70BD7047704700680349C1
:10159000884201D1FFF7FEB9704700000008004003
:1015A0007047704770470000F8B501680446086846
:1015B000CA684B6910F00F0F4FF0000559D003F0C7
:1015C000010602F49077374365D0C10705D0D105F5
:1015D00003D5616C41F001016164410705D5D9076C
:1015E00003D0616C41F002016164810705D5D90720
:1015F00003D0616C41F004016164010707D502F07A
:101600002001314303D0616C41F008016164616CD9
:1016100000293AD0800604D5900602D5204601F074
:1016200012F820684069616CC0F38010090700D48B
:1016300060B3204600F0E0FF20684069400621D5F5
:101640002068143050E8001F21F0400140E80012EB
:10165000002AF5D1E06BA8B16D494163E06BFEF75C
:1016600067FE002811D0E06B416B01B0BDE8F0408F
:10167000084783060FD593060DD52046BDE8F840F0
:1016800000F0E1BF2046FFF78DFFF8BD2046FFF7D1
:1016900089FF6564F8BD266B2023012E7CD1C60628
:1016A0007AD5D60678D508684868009048694FF022
:1016B0000206400640D5E16B086840680004000C53
:1016C000E8D0A28D8242E5D9E085886920282DD016
:1016D00020680C3050E8001F21F4807140E80012AF
:1016E000002AF5D12068143050E8001F21F00101D4
:1016F00040E80012002AF5D12068143050E8001F9D
:1017000021F0400140E80012002AF5D184F842306F
:10171000256320680C3050E8001F21F0100140E8DC
:101720000012002AF5D1E06BFEF7DEFD6663A08DA6
:10173000E18D401A81B22AE0A08DE18D401A81B27C
:10174000E08D0028A6D00029A4D022680C3252E8EF
:10175000000F20F4907042E80007002FF5D12068B8
:10176000143050E8002F22F0010240E80027002F3B
:10177000F5D184F84230256320680C3050E8002F02
:1017800022F0100240E80023002BF5D166632046CA
:10179000FFF707FFF8BDFFE705062BD5150629D58E
:1017A00094F841002128F5D1A068B0F5805F01D1FF
:1017B0002069B0B1206A411C21622168007848602C
:1017C000E08C401E0004000CE084E3D12068C16876
:1017D00021F08001C1602068C16841F04001C16012
:1017E000D8E7206A0088C0F308004860206A801C9F
:1017F0002062E5E74006CDD55006CBD5CA68204625
:1018000022F04002CA6084F8413000F0CAF8C1E713
:10181000E925000870B5040004D094F841000025C3
:1018200010B106E0012070BD84F84050204600F061
:1018300023F8242084F841002068C16821F4005175
:10184000C160204600F060FF2068016921F49041EA
:1018500001612068416921F02A0141612068C16865
:1018600041F40051C1606564202084F8410084F88F
:1018700042006563002070BDF0B585B0002400947F
:1018800001940294039403683F4F02203F490322CE
:101890003F4D4602BB4220D18B6943F480438B61AC
:1018A0008B6903F4804304938B6943F004038B61D9
:1018B0008969039201F0040104910102CDE900104D
:1018C00069462846FEF7CCFDCDE900646946284606
:1018D0000294FEF7C5FD05B0F0BD2E4FBB4226D1E8
:1018E000CB6943F40033CB61CB6903F40033049339
:1018F0008B6943F004038B618969039201F0040151
:1019000004910421CDE9001069462846FEF7A8FDA0
:101910000820CDE90004694628460294FEF7A0FDA0
:10192000002205212620FFF7CDF8262028E01A4DB9
:10193000AB42D0D1CB6943F48023CB61CB6903F4B4
:10194000802304938B6943F008038B618969134DED
:1019500001F00801CDE90321CDE900606946284680
:10196000FEF77EFDE814CDE900046946284602949E
:10197000FEF776FD002205212720FFF7A3F8272098
:10198000FFF792F8A7E7000000380140001002407E
:10199000000801400044004000480040000C0140A5
:1019A00070477047FEE701684A69D24352050FD479
:1019B0006FF480624A61002140F8301F2022427398
:1019C0008173026942F004020261017301207047D1
:1019D000002070472DE9F843044600680D46DDE914
:1019E000089701689846164641F4807101604B469D
:1019F00000224FF001112046009700F06BF848B12B
:101A000020680068C00502D54FF4007020640320F0
:101A1000BDE8F883216805F0FE0008613B464A46B0
:101A20001549204600F09EF888B920684169806910
:101A300000903A464946204600F0F2F848B1206C42
:101A4000042804D12068016841F40071016001207C
:101A5000DEE7F5B2B8F1010F09D02168300A08615C
:101A60003A464946204600F0DBF80028E7D12068D6
:101A700005610020CCE700000200010070B51646A9
:101A80000D4604461EE02046FFF78DFF08B10120F9
:101A900070BD681C16D0FEF7EDFD801BA84200D873
:101AA00085B920684069C04340070BD5002044F841
:101AB000300F20216173A073216941F02001216161
:101AC0002073E4E720684069C0434007DBD400206E
:101AD00070BD00002DE9F047984617460D460446B4
:101AE000C1F30746DDF820902AE000BFB8F1FF3FC0
:101AF00026D0FEF7BFFDA0EB0901414502D8B8F1A1
:101B0000000F1DD12068012E16D0806925EA000043
:101B10000004000C12D00020B84211D1002044F87B
:101B2000300F20216173A073216941F020012161F0
:101B300020730120BDE8F0874069E7E70120EBE76B
:101B40002068012E0AD0806925EA00000004000CFC
:101B500006D00020B842C9D00020EBE74069F3E787
:101B60000120F7E72DE9F047984616460D46044652
:101B70004FF000094FF0200AC1F3074723E0206827
:101B80004069C043400515D42068016841F40071E4
:101B9000016021686FF480604861C4F8309084F877
:101BA0003DA084F83E90216C41F00401216484F84A
:101BB0003C9021E0701C06D0FEF75CFDA0EB080015
:101BC000B04203D816B1012F1FD021E02068012FA9
:101BD00015D0806925EA00000004000C18D000BF71
:101BE00044F8309F84F80DA084F80E90216941F0EC
:101BF0002001216184F80C900120BDE8F087406944
:101C000025EA00000004000CEAD12068406901E0E8
:101C10002068806925EA00000004000CAFD1ECE7E1
:101C200070B516460D4604461EE02046FFF7BBFE83
:101C300008B1012070BD681C16D0FEF71BFD801B8B
:101C4000A84200D885B920684069C04300060BD57A
:101C5000002044F8300F20216173A073216941F006
:101C6000200121612073E4E720684069C043000639
:101C7000DBD4002070BD000010B504490448FEF715
:101C80000FFB0249491E087010BD00008D000020A6
:101C9000A000002010B5044A0021044801F088FD8E
:101CA0000349086010BD0000A0530008B9230008D4
:101CB00000000020F0B585B000252648009501956C
:101CC00002950395816941F010018161816901F0FC
:101CD00010010491816941F004018161816901F081
:101CE00004010491816941F00801816180691A4E03
:101CF00000F008000122049011463046FEF7B4FCC3
:101D0000164F012220213846FEF7AEFC7014CDE9B3
:101D100000050124694602943046FEF7A1FB03202A
:101D2000CDE902500094694601943046FEF798FBD5
:101D3000CDE9004569460A480294FEF791FB202050
:101D40008DE831000220039069463846FEF788FB93
:101D500005B0F0BD0010024000100140000C014031
:101D6000000801400D4810B50B4901600C49416065
:101D700000214FF480428160C0E90312416181611A
:101D8000C1610162FEF77CFC002803D0BDE8104071
:101D9000FEF784BA10BD000000540040B4000020DB
:101DA000A0860100104810B50E4901604FF4827101
:101DB000416000218160C1604FF400720161C0E99F
:101DC00005121022C0E90721416281620A21C16225
:101DD000FFF736F9002803D0BDE81040FEF75EBAE1
:101DE00010BD000000300140080100200C4810B573
:101DF0000A4901604FF4E1314160002181600C2209
:101E0000C160C0E904128161C161FFF703FD0028D0
:101E100003D0BDE81040FEF741BA10BD00380140C4
:101E2000600100200C4810B50A4901604FF41651BA
:101E30004160002181600C22C160C0E9041281610F
:101E4000C161FFF7E7FC002803D0BDE81040FEF7B2
:101E500025BA10BD00440040A80100200C4810B570
:101E60000A4901604FF416514160002181600C2243
:101E7000C160C0E904128161C161FFF7CBFC002899
:101E800003D0BDE81040FEF709BA10BD004800407D
:101E9000F0010020FEE7FEE730B40021084C0A46BE
:101EA000002004EBC1131A54401CC0B28028FAD39E
:101EB000491CC9B20829F3D330BC00F05DB800005A
:101EC0005437002010B5AE2000F0BAF8202000F002
:101ED000B7F8022000F0B4F8B02000F0B1F8C82044
:101EE00000F0AEF8002000F0ABF8102000F0A8F8E9
:101EF000402000F0A5F8812000F0A2F8FF2000F0BB
:101F00009FF8A12000F09CF8A62000F099F8A820E6
:101F100000F096F83F2000F093F8A42000F090F82D
:101F2000D32000F08DF8002000F08AF8D52000F0D2
:101F300087F8802000F084F8D92000F081F8222072
:101F400000F07EF8DA2000F07BF8122000F078F83C
:101F5000DB2000F075F8202000F072F88D2000F0F2
:101F60006FF8142000F06CF8AF2000F069F8BDE8BD
:101F70001040FFF791BF0000FEB50024651E0F4F13
:101F8000802600BF04F1B000C0B200F059F8002074
:101F900000F056F8102000F053F807EBC410CDE91C
:101FA000000601234022782102950548FEF72CFC0B
:101FB000641CE4B2082CE5D3FEBD000054370020B9
:101FC000B400002030B5203AD4B2782802D90020DD
:101FD000891CC9B2102B12D1094B0A4D002205EB06
:101FE000C11103EB041384189D5C0D559D180C441E
:101FF000521C2D7AD2B284F88050082AF3D330BD17
:10200000EE530008543700202DE9F041984617465A
:102010000E46044600250DE0434631462046FFF7B4
:10202000D1FF0834E4B2782C02D90024B61CF6B2F1
:102030006D1CEDB27A5D002AEED1BDE8F0810000A2
:1020400001B584B00121642204A88DE807000B4685
:10205000002278210248FEF7D7FB05B000BD000042
:10206000B400002038B50B460092044600228021BF
:1020700000F046F9002804D0606D40F02000606553
:10208000032038BD2DE9F041134F14460D46064696
:10209000002201213846FEF7E7FA032000F0F0F8AD
:1020A000C5F3074000F0ECF8C5F3072000F0E8F8AE
:1020B000E8B200F0E5F804E0FF2000F0E1F806F8EF
:1020C000010B641EA4B2F7D23846BDE8F0410122EC
:1020D0001146FEF7C9BA0000001001402DE9F04793
:1020E00007460E4611F0FF00C0F10001CDB24FEAE5
:1020F000122402F0FF094FF4807A13D0F0B240426C
:10210000C0B206EB00080CB3501B80B2040A00F00A
:10211000FF092A463146384600F03EF83D4446461F
:1021200057462AE06CB15546641EE4B20CD32A46E9
:102130003146384600F030F806F5807607F58077AE
:10214000F2E73146384621E04A46FAE7A945F8D990
:10215000A9EB0500C4B22A463146384600F01CF807
:1021600041467819224611E03A463146284600F0A9
:1021700013F805F5807506F58076641EE4B2F3D297
:10218000B9F1000006D0024631462846BDE8F047C6
:1021900000F002B8BDE8F0872DE9F04114460D4685
:1021A000064600F099F8124F002201213846FEF74A
:1021B0005BFA022000F064F8C5F3074000F060F815
:1021C000C5F3072000F05CF8E8B200F059F803E02E
:1021D000307800F055F8761C641EA4B2F8D20122C3
:1021E00011463846FEF740FABDE8F04100F05CB811
:1021F0000010014070B50E4D002201212846FEF767
:1022000033FA9F2000F03CF8FF2000F039F8040278
:10221000FF2000F035F820430402FF2000F030F8E2
:102220000443012211462846FEF71EFA204670BDDF
:102230000010014070B5044600F04EF800F034F88C
:102240000E4D002201212846FEF70EFA202000F054
:1022500017F8C4F3074000F013F8C4F3072000F0A8
:102260000FF8E0B200F00CF8012211462846FEF704
:10227000FBF9BDE8704000F017B800000010014005
:1022800001B582B000208DF804004FF47A70009000
:10229000012301AA02A90348FEF764FF9DF8040088
:1022A0000EBD00000801002010B50A4C00220121DB
:1022B0002046FEF7D9F90520FFF7E2FFFF20FFF7E0
:1022C000DFFFC007FAD120460122BDE810401146C9
:1022D000FEF7CAB90010014010B5084C00220121D8
:1022E0002046FEF7C1F90620FFF7CAFF204601226B
:1022F000BDE810401146FEF7B7B9000000100140DC
:102300002DE9F8431E46914688460446089DFEF78F
:10231000B1F9401B351AFEF7ADF9074625480068AC
:10232000C0F3CB30684338E0701C37D0FEF7A2F919
:10233000C01BA84203D215B1009860B32CE02068FE
:10234000416821F0E00141606068B0F5827F0BD107
:10235000A068B0F5004F02D0B0F5806F04D12068BE
:10236000016821F040010160A06AB0F5005F09D169
:102370002068016821F4005101602068016841F47F
:1023800000510160012084F85100002084F85000C1
:102390000320BDE8F8830025401E00902068816876
:1023A00038EA010004D000214945BDD10020F0E702
:1023B0000121F9E710000020ADF5127D642001F045
:1023C000B5F8FFF77FFD0021102325A20846FFF78F
:1023D0001BFE102326A202210020FFF715FE10236A
:1023E00027A204210020FFF70FFEFFF7C5FD012201
:1023F00026A1684600F09EFE02460D2814D1102347
:1024000023A204210020FFF7FFFDFFF7B5FD002206
:1024100001211EA000F0F2FB020006D101221BA147
:10242000684600F087FE0246B2B11DA18DA800F0FB
:1024300075FA10238DAA06210020FFF7E5FDFFF7AE
:102440009BFD1B4C4FF4FA7520212046FEF704F942
:10245000284601F06BF8F7E7102316A2EBE700001F
:102460004D7573696320506C6179657200000000DE
:1024700053746F726167653A2057323451363400B5
:102480004D6F756E74696E672E2E2E00303A2F00D8
:10249000466F726D617474696E672E2E2E20200057
:1024A00045727220436F64653A2025640000000085
:1024B000000C0140466C617368204D6F756E743A74
:1024C000204F4B0010B5502080F31188BFF34F8F81
:1024D000BFF36F8F02F086FD18B104494FF08050B2
:1024E0000860002080F3118810BD000004ED00E0BA
:1024F00030B58FB028216846FDF79BFE14210AA84D
:10250000FDF797FE01210804CDE900100024029494
:1025100002250491CDE907504FF4E0100990684678
:10252000FEF7FEFB08B172B6FEE70F20CDE90A0503
:102530004FF48060CDE90C4002210AA80E94FEF70A
:10254000F3FA002801D072B6FEE70FB030BD704735
:102550000148FEF766BF000038020020F0B50268AF
:102560001C4B1D4D1D4E1E4F1E4C4FF0804C984273
:1025700009D0A04207D0604505D0A84203D0B042A0
:1025800001D0B84204D122F0700E4A6842EA0E022D
:10259000984209D0A04207D0604505D0A84203D098
:1025A000B04201D0B84203D122F44075CA682A4330
:1025B0004D6922F080022A4302608A68C2620A687A
:1025C0008262984201D0A04201D1096901630121D0
:1025D0004161F0BD002C01400004004000080040B3
:1025E000000C00400034014010B5406A0021C18554
:1025F000C184FEF7D7FF10BD01680C3151E8002FF0
:1026000022F4907241E80023002BF5D101681431C7
:1026100051E8002F22F0010241E80023002BF5D100
:10262000016B012909D101680C3151E8002F22F01A
:10263000100241E80023002BF5D1202180F8421040
:1026400000210163704708B590F84210222901D09B
:10265000022008BD82684FF480539A4201D101697B
:1026600021B1816A9A421BD04AB10AE00268816AAC
:102670005268C2F308020A80816A891C08E0026974
:1026800072B10268526802F07F020A70816A491CC6
:102690008162C18D491E0904090CC18503D01BE06C
:1026A00002685268F1E70168CA6822F02002CA6035
:1026B0000168CA6822F48072CA6001684A6922F01F
:1026C00001024A61202180F8421000214163026B1F
:1026D000012A03D0FFF764F9002008BD01630168F7
:1026E0000C3151E8002F22F0100241E80023002BAA
:1026F000F5D101680A68D20602D50A6849680091D6
:10270000818DFEF74EFFE7E770B50446006801696A
:10271000E26821F44051114301612169A068084336
:10272000616908432168CA6841F20C639A43024315
:10273000CA6020684169A26921F440711143416176
:102740001E492068884202D1FEF7B4FA01E0FEF784
:10275000A1FA00EBC00101EB001260686421800067
:10276000B2FBF0F3B3FBF1F36FF018067343B2FB67
:10277000F0F5B2FBF0F605EB8305322303EB05150C
:10278000B5FBF1F5B6FBF1F605F0F00505EB061526
:10279000B2FBF0F6B2FBF0F0B0FBF1F06FF0180214
:1027A000504306EB800003EB0010B0FBF1F0216812
:1027B00000F00F002844886070BD00000038014020
:1027C0000148FEF7F1BE0000A80100200148FEF715
:1027D000EBBE0000F001002010B5FFF70BFD08492B
:1027E000884203D06FF07F41884206D005480178C7
:1027F00021F001010170002010BD032010BD000078
:102800001740EF009C0000200C480078C00701D062
:1028100003207047012039B1012907D0022908D0CF
:102820000329F6D108201060002070474FF4804043
:10283000F9E74FF400701080F6E700009C000020DC
:102840000846084910B50978C90701D0032010BD12
:102850004FF6FF7101EA432351021A46FFF712FCBB
:10286000002010BD9C000020014800787047000047
:102870009C0000202DE9FF5F26480078C00703D0A8
:10288000032004B0BDE8F09F4FF4805554025E026F
:10289000284601F081FB5FEA000B17D04FEA14399C
:1028A000C4F30B07C7F580544FF0000AA64200D8C6
:1028B000B4B2A8464FEA0935424629465846FFF7C2
:1028C000E1FB2846FFF7B6FC00200AE00120D8E72C
:1028D0000AEB000201993B18401C8A5C0BF80320AC
:1028E00080B2A042F4D3294642465846FFF7F6FB91
:1028F000A6420AD00027361B09F10109A244464529
:1029000001D94446D6E7B4B2D4E7584601F09CFC5E
:102910000020B6E79C000020FEE700000FB4084B43
:1029200010B504A902AA039800F02CF8044602A9E5
:10293000002000F0D1F8204610BC5DF814FB000028
:10294000D92A00080907090E002804DB00F1E0205D
:1029500080F80014704700F00F0000F1E02080F8CC
:10296000141D704702E008C8121F08C1002AFAD1DE
:1029700070477047002001E001C1121F002AFBD1FF
:10298000704700002DE9FF4F89B09B4604460025A3
:1029900006E025280BD05A460B999047641C6D1C05
:1029A00020780028F5D10DB02846BDE8F08F00272B
:1029B000B8460122474900E0074314F8013F203B95
:1029C00002FA03F00842F7D120782E2819D114F822
:1029D000010F47F004072A280ED06FF02F0220784D
:1029E000A0F1300109290CD808EB880102EB410164
:1029F00000EB0108641CF2E70A98641C50F8048B91
:102A00000A9020780028CED0642808D0692806D003
:102A100075281ED05A460B9990476D1C58E00A99AC
:102A20004FF00A0901C90A91002802DA40422D211B
:102A300002E0390504D52B218DF82010012103E097
:102A4000F90704D02021F7E78A4608AE0DE00021FF
:102A5000FAE70A994FF00A0901C90A91F7E74946CE
:102A6000FDF7F2FB303106F8011D0028F7D1ADEB80
:102A7000060000F12009780701D44FF00108C8458D
:102A800002DDA8EB090000E000208046002706E0F8
:102A900008A85A46C05D0B9990476D1C7F1C57458E
:102AA000F6DB04E030205A460B9990476D1CB8F1D4
:102AB0000001A8F10108F5DC05E016F8010B5A4603
:102AC0000B9990476D1CB9F10001A9F10109F4DCE3
:102AD000641C65E7092801000A68531C0B6010702C
:102AE0007047000010B50446002084F80402401E20
:102AF000C4F83002204600F0FDFC08B1032010BDF0
:102B0000B4F8FE01A0F52A41553901D0022010BDCC
:102B100094F83600B4F8371040EA01210848B0EBC9
:102B2000012F08D094F85210B4F8532041EA022142
:102B3000B0EB012F01D1002010BD012010BD00001D
:102B40000046415430B50021064A0C4601EB4103D2
:102B500052F82350854201D142F82340491C0229F2
:102B6000F4D330BD543B0020084910B50B5C002263
:102B700053B901220A540A1801EB8000127A406806
:102B80000168104688470246104610BD6C3B002085
:102B900030B4054C231804EB80001B7A40680469AC
:102BA0001846A44630BC60476C3B002030B4054D4D
:102BB0002C1805EB8000247A406885682046AC46D6
:102BC00030BC60476C3B0020044A111802EB8000C7
:102BD000097A406842680846104700006C3B0020B4
:102BE00030B4054D2C1805EB8000247A4068C56888
:102BF0002046AC4630BC60476C3B00202DE9F74FC7
:102C00008EB015460F98012803D9132011B0BDE8E6
:102C1000F08F0EA800F022FC002801DA0B20F5E767
:102C2000FE4951F8204054B1002184F80012C0B28E
:102C30000390FFF799FFC10703D00320E6E70C20BC
:102C4000E4E7400701D50A20E0E708AA012103983C
:102C5000FFF79EFF00287DD1089980297AD30F982D
:102C600008B1002000E03F208046A1EB0801681E6B
:102C70000542089100D17DB94FF4FA60B1FBF0F242
:102C80000020E74B00E0401C33F810509542FAD882
:102C9000E34A163232F81050B5F5007F00D36D0AC2
:102CA00085B1802D00D98025B1FBF5F0012640F6D5
:102CB000F672904200D302264FF6F672904203D38A
:102CC000032620E00125EFE7032E1CD0012E23D0A0
:102CD0004000001D00F2FF10470A4FF001092020BC
:102CE000834608EB090A0AEB070058444219009092
:102CF000A2EB0800884247D809AA03210398FFF7EE
:102D000047FFA0B90EE040F2072202EB8000470A1D
:102D10004FF020090020E3E700EB4000401C400892
:102D2000C01CD7E7099810B1B0F5004F01D90120B8
:102D30000990099900980844401E491E884300994B
:102D4000401A0990032E12D007440898A0EB0901FD
:102D5000CA1B00E0DDE0A2EB0B01B1FBF5F10D9128
:102D6000022E07D0032E0AD0012E15D019E081447F
:102D70008244EAE740F6F672914205D311E0084634
:102D80004FF6F671884201D20E203FE70C200290E8
:102D90000F9868B1F02045E0B0F5803F06D20120E1
:102DA000F5E7B0F5803F01D20420F0E70620EEE71A
:102DB0004FF400720021204600F095FB04F5DF700F
:102DC0000121417081700021C170029A0271FE22BE
:102DD0004271089B08EB030243F6C163B2FBF3F2B6
:102DE0003F2343EA920C099280F806C0C271037235
:102DF00041728172C172089901730A0A42730A0C06
:102E00008273090EC173552084F8FE01AA2084F84C
:102E1000FF010123002221460398FFF7E1FE00286D
:102E200077D1F82002904FF400720021204600F084
:102E30005AFB0B227BA1204600F04CFB0021E172E3
:102E400002202073657384F80E904FEA1920E07316
:102E500001202074032E0BD040026074000AA0747D
:102E60000898B0F5803F05D2E074000A20750CE0A8
:102E70000020F2E784F82000020A84F82120020CE6
:102E800084F82220000E84F82300029860753F2009
:102E90002076002060764FF0FF0984F81A90E076E3
:102EA00084F81C804FEA182060774FEA1840A0771A
:102EB0004FEA1860E07700F0CFFA802129220990CC
:102EC000032E27D084F82700030A84F82830030C47
:102ED00084F82930000E84F82A00A775380AE075B6
:102EE00084F8241084F82620132251A104F12B0029
:102EF00000F0F0FA552084F8FE01AA2084F8FF01C2
:102F00000123424621460398FFF76AFE002800D1BC
:102F100033E0BDE084F84300030A84F84430030C36
:102F200084F84530000E84F8460084F82470380A8E
:102F300084F82500380C84F82600380E84F8270021
:102F4000022084F82C00002084F82D0084F82E0044
:102F500084F82F00012384F8303084F831000623F0
:102F600084F8323084F8330084F8401084F842202A
:102F7000132234A104F14700BAE7032E06D101233E
:102F800008F1060221460398FFF72AFE4FF400726B
:102F90000021204600F0A7FA02990991032E12D0D1
:102FA000012E0ED06FF0FF000843099020700998A1
:102FB000000A60700998000CA0700998000EE0707B
:102FC0001EE02548F0E761F0FF00099020700998A5
:102FD000000A60700998000CA0700998000EE0705B
:102FE00084F8049084F8059084F8069084F807909B
:102FF00084F8089084F8099084F80A900F20E07211
:1030000052460AF10109012321460398FFF7E8FD22
:10301000F0BB4FF40072002120461FE09800002012
:10302000EC590008EBFE904D53444F53352E3000C1
:103030004E4F204E414D4520202020464154202017
:10304000202020004E4F204E414D4520202020467C
:10305000415433322020200000FFFF0000F043FAEB
:1030600001200AE04A4609F101090123214603989B
:10307000FFF7B6FD60B90998401C0990B842F1D33A
:10308000032E00D05D464A4609F10109012300E004
:1030900042E021460398FFF7A3FDE8BB6D1EF2D185
:1030A000032E3CD15220207060706120A07041211D
:1030B000E170722284F8E42184F8E52184F8E611B5
:1030C00084F8E7010D980123401E84F8E801010A05
:1030D00084F8E911010C84F8EA11000E84F8EB0180
:1030E000022084F8EC01002084F8ED0184F8EE0160
:1030F00084F8EF01552084F8FE01AA2084F8FF012E
:1031000008F1010221460398FFF76AFD012308F147
:1031100007022146039800E009E0FFF761FD002265
:1031200011460398FFF734FD00283FF478AD0120E5
:103130006CE500002DE9F74181B0904602980090BF
:10314000684600F08BF9040003D50B2004B0BDE8FD
:10315000F081184E002756F824504DB12846FFF74D
:10316000F1FCD5F80C0200F033F8A0B185F800723C
:10317000019939B181F80072E0B201F5037100F0F4
:103180001BF840B1019846F8240010B1B8F1010FC6
:1031900003D00020DAE70220D8E7002202A901A824
:1031A00000F028F804460146019800F0AFFF2046E1
:1031B000CCE700009800002010B50C460121002249
:1031C000084600F065FA2060002800D0012010BDFC
:1031D00010B500F03BFA012010BD00F0B1BA10B5F7
:1031E0004FF47A7100F0F8F908B1002010BD012009
:1031F00010BD00002DE9FF474FF000090746C0F859
:1032000000901646084600F029F9050003D50B206A
:1032100004B0BDE8F0878D4850F82540C4B1204681
:1032200000F03AF9B0B13C6094F8000228B194F88B
:103230000102FFF7C9FCC1070ED084F80092E8B282
:1032400084F80102FFF790FCC1070AD00320DFE7F2
:103250000C20DDE70F20DBE70EB1400704D400208F
:10326000D6E71EB1400701D50A20D1E7002529463F
:103270002046FFF737FC012823D100204FEA0D0735
:1032800004EB001191F8C22101F5DF712AB10A7A2D
:10329000D1F8091042EA012100E0002147F820108E
:1032A000401C0428ECD3002657F826502DB129469F
:1032B0002046FFF717FC08B909E00220761C042E0F
:1032C000F2D3032801D0E0BB01E00120A0E7B4F86D
:1032D0000B00B0F5007F60D1E28A2AB994F824008F
:1032E000D4F8251040EA0122C4F81C22217C84F87D
:1032F0000312012901D002294FD1607B514384F888
:103300000202F0B1431E184247D1B4F81130A4F8BC
:1033100008321E0741D1B4F813602EB994F820602A
:10332000D4F8217046EA0726B4F80EC0BCF1000FAD
:1033300033D00CEB010707EB1317BE422DD3F61B5E
:1033400000E02AE0B6FBF0F038B3012640F6F6784C
:10335000404500D302264FF6F678404500D30326B9
:10336000801C2F44C4F82C72AC44C4F81802C4E981
:10337000885C032E13D083B16144C4F82812022E56
:1033800019D000F0010100EB400001EB500000BF3C
:1033900000F2FF10B2EB502F0FD20D2038E7002BB8
:1033A000FBD194F82C10D4F82D30800041EA032191
:1033B000C4F82812ECE74000EAE74FF0FF30C4F809
:1033C0001402C4F81002802084F80502032E30D1C4
:1033D000208E01282DD12046691C00F08BF840BBBF
:1033E00084F80592B4F8FE01A0F52A41553920D1A0
:1033F0002078D4F8011040EA01201549884218D1FC
:1034000094F8E401D4F8E51140EA0120114988421A
:103410000FD194F8E801D4F8E91140EA0120C4F88A
:10342000140294F8EC01D4F8ED1140EA0120C4F83C
:103430001002064984F80062091F0888401C0880B1
:10344000A4F806022046FFF77DFB08E7980000205D
:1034500052526141727241610020704710B50446BA
:103460004FF0FF302268002A13D0114600E0491CBB
:103470000B78202B0ED33A2BF9D112F8013B303BBD
:103480000A2B06D28A4204D1002B02D1491C1846CD
:10349000216010BD002010BDD0F80C02FFF79FBEC8
:1034A000FDF780FAFFF724F8FEF704FCFEF7BAFCFC
:1034B000FEF7D4FCFEF79AFCFEF754FCFEF7DCFBAB
:1034C000FEF770FC00F04CF8FEF7E4FB00F064F847
:1034D000FEE7000004E000BF11F8013B00F8013BEB
:1034E000521EF9D27047C9B201E000F8011B521E0A
:1034F000FBD2704770B50546D0F830020C46002666
:10350000A04210D0284600F0D1FD06000BD195F85E
:103510000102012322462946FFF748FB08B1741E29
:103520000126C5F83042304670BD000010B5EFF3FB
:10353000058149B9EFF3108131B9084909680229B9
:1035400005D1EFF3118111B16FF0050403E0002400
:1035500008B100F045FF204610BD000064000020C7
:10356000EFF3058058B9EFF3108040B909490868B6
:10357000022801D030B109E0EFF3118030B16FF0D3
:103580000500704701200860002070474FF0FF30B1
:10359000704700006400002010B5EFF3058060B9AB
:1035A000EFF3108048B90B490868022802D00128BF
:1035B00006D00BE0EFF3118040B16FF0050010BDB5
:1035C0000220086000F0BCFF002010BD4FF0FF306B
:1035D00010BD000064000020F8B50D460024211F36
:1035E0004E1C00280ED000BFEFF305824AB9EFF35E
:1035F000108232B9134A1268022A17D1EFF31182EE
:10360000A2B10DB10C461BE000216A46009101F009
:1036100039FB012813D1009890B10B494FF080502D
:103620000860BFF34F8FBFF36F8F09E0294601F0A9
:1036300077FB012804D015B16FF0010400E0344697
:103640002046F8BD6400002004ED00E070B505469A
:10365000EFF3058048B9EFF3108030B90B480068EC
:10366000022805D1EFF3118010B16FF0050407E0D7
:1036700045B1284600F07EFE0024284600F062FE98
:10368000204670BD6FF00304FAE7000064000020DC
:10369000F8B5144603460E464FF00005EFF30580DB
:1036A000E8BBEFF31080D0BB24480068022802D1A9
:1036B000EFF3118098BB93B39E423DD84CB1A06804
:1036C0000028E06803D0502836D3012002E008B17A
:1036D00032E00020012B05D010B31846A26801F09B
:1036E0001EF820E040B10320009000221146012086
:1036F000A36801F058F804E003220021012001F042
:103700002EF8050018D086B100231A46194601F09C
:10371000C1F8012809D0284600F014FE00250BE06E
:10372000184600F0DFFF050006D00CB1216800E06C
:103730000021284600F0F2FD2846F8BD6400002074
:1037400038B50024E51E002804D000BFEFF3058142
:1037500069B902E06FF0030423E0EFF3108131B99F
:1037600011490968022914D1EFF3118189B10021AF
:103770000091694601F09CF9012811D1009880B1AF
:103780000A494FF080500860BFF34F8FBFF36F8F2F
:1037900007E000231A46194601F07CF8012800D002
:1037A0002C46204638BD00006400002004ED00E0F7
:1037B000F0B585B04FEA01034FF00004EFF3058147
:1037C0000394A1BBEFF3108189BB21490968022949
:1037D00002D1EFF3118151BB48B3802618218DF837
:1037E000104004AD42B3176807B13D4697691FB159
:1037F00039467F1E382F02D21779FF0702D00020EA
:1038000005B0F0BD576907B1BE08D2F808C0BCF1D9
:10381000000F0DD0D4685C2C18D312693AB137B1BF
:103820008DE806103246294601F09DFB03900DE01D
:10383000D7685FB912694AB903AACDE90012B2B2DA
:10384000294601F063FB012800D003940398D7E7D1
:10385000640000202DE9F041134C0F4605466669CF
:103860002068001D00F061FC681C07D137B1216899
:10387000BDE8F0410D48091D00F0A6BC20683544A4
:10388000B5424560216805D2A068BDE8F041091D38
:1038900000F082BC6068091D00F07EFC206B854250
:1038A00000D22563BDE8F0811400002070070020DD
:1038B0002DE9F041054600F093FC2D4C2069401C99
:1038C000206120682B4F10B1E06930B32BE02560F8
:1038D0002069012827D1002606EB860007EB80002F
:1038E00000F04CFC761C382EF6D3234800F046FC42
:1038F0002148143000F042FC1F48283000F03EFC04
:103900001D483C3000F03AFC1B48503000F036FCBB
:10391000194860601430A06005E02068E96AC06A58
:10392000884200D82560E06A401CE0626864E86A6A
:10393000A169884200D9A06100EB800007EB8000FC
:10394000291D00F041FC00F06BFCE06900280CD060
:103950002068E96AC06A884207D208494FF080505F
:103960000860BFF34F8FBFF36F8FBDE8F081000099
:1039700014000020C00200202007002004ED00E019
:1039800038B500F02DFC104CA068C8B90F4800F005
:10399000F5FB0E48143000F0F1FB0C4820601430A9
:1039A00060600A4B00202833009003F15002102180
:1039B0000A2000F0F8FEA06010B105A100F0AEFCF6
:1039C000BDE8384000F02CBC5000002084070020E7
:1039D000546D72510000000030B4026C0B46002A96
:1039E0000BD0C1681144C1604468A14201D3016891
:1039F000C16030BC1846FCF703BC30BC70472DE9F1
:103A0000F041856B174604460026026C82B1C7B1AF
:103A1000E068FCF7F5FBE168206C091AE1602268B8
:103A2000914202D26168081AE060022F16D017E0B6
:103A30002068A8B9606801F039FB06460020606084
:103A40000EE0A068FCF7DCFB216CA0680844A060D5
:103A50006168884204D32068A06001E005B16D1E52
:103A60006D1CA5633046BDE8F08110B5044690F8A2
:103A7000590058B101280CD002280FD0502080F3F3
:103A80001188BFF34F8FBFF36F8FFEE7206B00F0FD
:103A9000DBFB2046BDE8104000F0D6BB10BD0000A7
:103AA00010484FF42051420706D0C01D0D4920F0A8
:103AB0000700411AC1F520510B4A00230144C2E915
:103AC00000030839103A21F0070111604B600B60C8
:103AD0000B1AC0E9001393604FF000405360D060B0
:103AE00070470000540F002078000020144E154C41
:103AF000A6F29C474FF08058DFF84C9012E000BFD0
:103B000000F06EFBF068C568281D00F00EFB206910
:103B1000401E2061E068401EE06000F081FB284606
:103B2000FFF7A3FFE0680028EAD138680128F9D937
:103B3000C9F80080BFF34F8FBFF36F8FF2E700002B
:103B40005C0700201400002004ED00E070B51D4665
:103B5000049C51B1C4F80020C4E90F0101212046A2
:103B600000F054FE84F84C5070BD2460F4E72DE959
:103B7000F0470E46DDE909841746824691009946D2
:103B8000089DA522206BFCF74DFB6FF00301206B15
:103B900001EB8701084420F00707780707D0502081
:103BA00080F31188BFF34F8FBFF36F8FFEE72218AA
:103BB000315C82F83410315C11B1401C1028F6D30E
:103BC000002684F84360382D00D33725E562C4E928
:103BD0001356201D00F0DDFA04F1180000F0D9FAA8
:103BE0002461C5F138006462A061666584F858609C
:103BF0004A465146384600F047FA2060B8F1000FB7
:103C000001D0C8F80040BDE8F087000030B5114988
:103C100000E011460A688242FBD34B685C1884427C
:103C200003D1406818444860084643681C18944211
:103C300009D1084C103C2468A24209D052681A44A9
:103C400042600A6812680260814200D0086030BD9C
:103C50000460F9E77800002070B5002441600B4D46
:103C60000061914206D8D11A8269914206D2011DA3
:103C7000686807E09A4203D2994201D3012403E025
:103C8000011D286800F088FA204670BD5000002011
:103C900010B5044600F0A4FAA06B28B15FF0000450
:103CA00000F0BEFA204610BD0124F9E730B589B016
:103CB000304D55E00498002806DADDE90601059A42
:103CC0009047049800284BDB069C606910B1201DCA
:103CD00000F02BFA02A800F0B9F8024604980A286E
:103CE0003ED2DFE800F00505053D263705053D26F7
:103CF0000598A169034601442046FFF7ADFF00B3D4
:103D0000616A20468847E069012829D10020009097
:103D10000598A169002342181946204601F00CFBC2
:103D200078B9502080F31188BFF34F8FBFF36F8FA6
:103D3000FEE70598A06128B1811813462046FFF7D9
:103D40008BFF0DE0502080F31188BFF34F8FBFF33E
:103D50006F8FFEE794F82C0010B9204600F074FA3B
:103D6000002204A9A86800F0F1FE0028A2D109B041
:103D700030BD0000500000202DE9FC410F460546F3
:103D800000F022FC01A800F061F80446019818B187
:103D900001F040FABDE8FC81224EAFB170680068C6
:103DA000A8B30027291B3A46B06800F0F7FA01F0E3
:103DB00031FA0028EED11C494FF080500860BFF363
:103DC0004F8FBFF36F8FE5E7A542EBD801F022FAE2
:103DD00030682746C068C468201D00F0A6F9E06975
:103DE000012810D1A0692B4641193A462046FFF719
:103DF00033FF40B100200346014600902A4620468A
:103E000001F09AFA20B1616A20468847C2E707E0CC
:103E1000502080F31188BFF34F8FBFF36F8FFEE701
:103E20000127BFE75000002004ED00E0064841688C
:103E3000096829B14168C968C96849680163704760
:103E40004FF0FF31FAE700001400002070B505467E
:103E500001F0C2F8064E04463069844203D200F0F5
:103E600009F8012000E0002028602046346170BD80
:103E700050000020F8B5194D1FE0C068C4680668FE
:103E8000201D00F052F9616A20468847E069012848
:103E900013D1A0693044B04206D924616060211D6D
:103EA000286800F079F908E00020034601460090F8
:103EB0003246204601F040FA38B1286801680029EE
:103EC000DBD16968C5E90010F8BD502080F3118886
:103ED000BFF34F8FBFF36F8FFEE70000500000204D
:103EE00008484068401C4FF0500080F3118804D00F
:103EF000BFF34F8FBFF36F8FFEE7BFF34F8FBFF35B
:103F00006F8FFEE780000020074C2068016841B1F8
:103F1000C0680021D0F80000FFF72EFFFFF7C6FEB3
:103F2000F3E701210020F7E7500000202DE9F041E0
:103F3000044600F055F994F9455004F1240609E0CF
:103F4000606A48B1304601F02DF908B100F076FA08
:103F50006D1E6DB2002DF3DC4FF0FF3684F8456026
:103F600000F05EF900F03CF994F9445004F11007B8
:103F700009E0206948B1384601F014F908B100F0B1
:103F80005DFA6D1E6DB2002DF3DC84F84460BDE86F
:103F9000F04100F045B900002DE9F0410546002749
:103FA00000F012FB314E306808B9FFF779FDF06878
:103FB00005424BD1C5B3083568070ED005F00700A0
:103FC000C0F108000544680707D0502080F311882D
:103FD000BFF34F8FBFF36F8FFEE72DB3706885423D
:103FE00034D82248103001460C6801E020460C46C7
:103FF0006168A94202D221680029F7D131688C4258
:1040000024D007682168016060680837411B1029C7
:104010000FD96019420708D0502080F31188BFF3F0
:104020004F8FBFF36F8FFEE710E041606560FFF7D1
:10403000EDFD61687068401A7060B268904200D20D
:10404000B060F06801430020C4E9000101F0E2F82B
:10405000780707D0502080F31188BFF34F8FBFF34C
:104060006F8FFEE73846BDE8F08100006800002051
:104070000449086818B10868026D521C0265086896
:10408000704700001400002010B5031F4FF080742B
:104090001C601B1F21F001011960191F024B0B60EE
:1040A000143940380A6010BDE13E00082DE9F041A6
:1040B000044690F80402002728B3D4F8305294F84C
:1040C000010201232A462146FEF78AFD08B1012795
:1040D00019E0002084F80402D4F82402D4F81C1259
:1040E000281A88420FD294F803620AE0D4F81C021E
:1040F0000123054494F801022A462146FEF770FD8B
:10410000761E022EF2D23846BDE8F08100280BD090
:104110000C2909D00B2907D0092905D00F2903D074
:10412000D0F80C02FFF759B87047D0E901320169A5
:104130009A60D0E901235A604A68824201D18268BC
:104140004A60002202610868401E086008687047E3
:10415000034B036003F15C0008608020106070472F
:104160009C080020044B036003F15C0008604FF4DE
:104170008070106070470000F80A002000F108010C
:104180004FF0FF32C0E90112C160016100210160FE
:10419000704700210161704730B50B685A1C02D08E
:1041A00000F1080202E0026904E022465468256832
:1041B0009D42FAD953684B6099608A6051600861EA
:1041C0000168491C016030BD42684A6093688B6099
:1041D00093685960916008610168491C01607047EB
:1041E000502080F31188BFF34F8FBFF36F8F0A49C0
:1041F0004868401C486001280CD10848006810F04D
:10420000FF0F07D0502080F31188BFF34F8FBFF30B
:104210006F8FFEE7704700008000002004ED00E093
:104220000849486828B1401E486001D180F31188D0
:104230007047502080F31188BFF34F8FBFF36F8F0B
:10424000FEE700008000002070B5002827D0144D44
:10425000A0F108046168E868014207D1502080F3AA
:104260001188BFF34F8FBFF36F8FFEE722683AB11B
:10427000502080F31188BFF34F8FBFF36F8FFEE79D
:104280008143616000F0A0F9606869680844686073
:104290002046FFF7BBFCBDE8704000F0BBBF70BD1F
:1042A000680000204FF0E020002101618161054994
:1042B0004FF47A720968B1FBF2F1491E416107219E
:1042C000016170471000002010B5FBF783FF114912
:1042D00010280ED300F1E02090F8F0030A78904205
:1042E00007D2502080F31188BFF34F8FBFF36F8F39
:1042F000FEE709480068896800F4E060884207D951
:10430000502080F31188BFF34F8FBFF36F8FFEE70C
:1043100010BD0000800000200CED00E010B5084B3F
:10432000002200BF53F832401CB1521C082AF9D3B6
:1043300010BD43F8321003EBC201486010BD00000D
:104340008002002010B504000AD000F013F894F8A1
:10435000460000280CD12046BDE81040FFF774BF8E
:10436000502080F31188BFF34F8FBFF36F8FFEE7AC
:1043700010BD0000084A002102EBC1035B688342C4
:1043800006D1002042F8310002EBC10148607047BD
:10439000491C0829F0D370478002002070B51546EB
:1043A0000E460446FFF71CFF94F944100020491CF8
:1043B00001D184F8440094F94510491C01D184F8D6
:1043C0004500FFF72DFFA06B28B92A46314604F1BE
:1043D000240000F051F82046BDE87040FFF7A6BD6C
:1043E00010B5020014D00F48806B38B1502080F314
:1043F0001188BFF34F8FBFF36F8FFEE700F0E4F833
:1044000000211046FFF726FA00F004FF002807D12C
:1044100005494FF080500860BFF34F8FBFF36F8F97
:1044200010BD00001400002004ED00E002498A6A7B
:104430000260496941607047140000200149012071
:10444000486270471400002010B50C4650B109496D
:1044500009681831FFF7A0FE2046BDE81040012191
:10446000FFF7F8B9502080F31188BFF34F8FBFF3E7
:104470006F8FFEE71400002070B514460D4668B13A
:104480000A4909681831FFF79FFE0CB14FF0FF355C
:1044900021462846BDE87040FFF7DCB9502080F384
:1044A0001188BFF34F8FBFF36F8FFEE7140000201A
:1044B00070B504003ED0226DA2B1E06C884200D3FA
:1044C0000146E06A884235D0012A33D11A4D2A6864
:1044D00094420FD1502080F31188BFF34F8FBFF368
:1044E0006F8FFEE7502080F31188BFF34F8FBFF32B
:1044F0006F8FFEE7E162A269002A02DBC1F1380199
:10450000A1610E4E00EB8000616906EB80008142E4
:1045100010D1201DFFF709FEE06AA969884200D981
:10452000A86100EB800006EB8000211DBDE8704013
:10453000FFF74ABE70BD000014000020C00200203A
:1045400030B587B00024039405AA04A903A80494F5
:10455000FFF7FEFDDDE903010094CDE90110002322
:1045600015A11748059A00F0FEFC164D0028686357
:104570001FD000F0B1FE012809D0401C19D15020F5
:1045800080F31188BFF34F8FBFF36F8FFEE750208A
:1045900080F31188BFF34F8FBFF36F8F4FF0FF3061
:1045A00028630120E8616C6107B0BDE8304000F08D
:1045B00045B807B030BD000049444C45000000003C
:1045C000ED3A0008140000200248816B491C816309
:1045D0007047000014000020164810B5816B11B11F
:1045E0000121416210BD002141628169124A01E04E
:1045F000B9B1491E01EB810352F82330002BF7D0EB
:1046000001EB810302EB830202F1080453685B684B
:104610005360A34201D15B685360DA680260816134
:1046200010BD502080F31188BFF34F8FBFF36F8F01
:10463000FEE7000014000020C00200201CB526493F
:1046400008780190FF20087008788DF800009DF828
:1046500000009DF8002000F0F000904207D05020AC
:1046600080F31188BFF34F8FBFF36F8FFEE79DF884
:1046700000001A4B00F0500018700720986005E009
:104680009DF8002052008DF80020401E9DF800206B
:104690001206F5D49860032807D0502080F31188C3
:1046A000BFF34F8FBFF36F8FFEE74FF440709860FA
:1046B000019808700A48016841F4700101600168BE
:1046C00041F070410160FFF7EDFD00205860FBF7FD
:1046D0004BFD00201CBD000000E400E08000002035
:1046E00020ED00E010B50C4648B184420FD95020AF
:1046F00080F31188BFF34F8FBFF36F8FFEE7502019
:1047000080F31188BFF34F8FBFF36F8FFEE7022254
:10471000002100F024F8002800D0846310BD38B5D3
:104720000C4648B184420FD9502080F31188BFF362
:104730004F8FBFF36F8FFEE7502080F31188BFF3D8
:104740004F8FBFF36F8FFEE70221134600220091C7
:10475000114600F028F8002800D0846338BDF8B571
:1047600017460E46050014D0DEB105FB06F05030AA
:10477000FFF712FC04000AD0002084F8460004F180
:1047800050023B46314628460094FFF7DFF92046A9
:10479000F8BD502080F31188BFF34F8FBFF36F8FA8
:1047A000FEE70020E3E738B5049D18B153B1CAB164
:1047B00081B120E0502080F31188BFF34F8FBFF309
:1047C0006F8FFEE7502080F31188BFF34F8FBFF348
:1047D0006F8FFEE7502080F31188BFF34F8FBFF338
:1047E0006F8FFEE739B1502080F31188BFF34F8FF0
:1047F000BFF36F8FFEE750241C46012384F8463038
:104800002B460094FFF7A2F9204638BD70B50D463F
:10481000040025D0FFF7E4FCD4E90F20216802FB57
:10482000001161600021A1632168A1600A46D4E9FA
:104830000F01401E00FB0121E16021464FF0FF30D7
:1048400001F8440F487004F110008DB1FFF796FC99
:1048500004F12400FFF792FCFFF7E2FC012070BD99
:10486000502080F31188BFF34F8FBFF36F8FFEE7A7
:1048700021690029F0D000F095FC0028ECD0044913
:104880004FF080500860BFF34F8FBFF36F8FE3E7A7
:1048900004ED00E02DE9FF4782B01D468A464FF047
:1048A0000008040003D0BAF1000F08D011E0502036
:1048B00080F31188BFF34F8FBFF36F8FFEE7206C3B
:1048C00038B1502080F31188BFF34F8FBFF36F8F43
:1048D000FEE7022D0AD1E06B012807D0502080F3BB
:1048E0001188BFF34F8FBFF36F8FFEE700F066FBB9
:1048F0003F4F4FF000094FF0805648B9049838B147
:10490000502080F31188BFF34F8FBFF36F8FFEE706
:10491000FFF766FCA06BE16B884207D3022D05D040
:104920000498D0B1B8F1000F1AD01EE02A465146C3
:104930002046FFF764F8616A19B104F1240000F021
:1049400031FC20B13E60BFF34F8FBFF36F8FFFF795
:1049500067FC012006B0BDE8F087FFF761FC22E0AC
:104960006846FFF763FD4FF00108FFF759FCFFF7BA
:104970002BFEFFF735FC94F94400401C01D184F86C
:10498000449094F94500401C01D184F84590FFF70C
:1049900047FC04A9684600F07FFA30B12046FFF7D3
:1049A000C5FA00F037FC0020D4E7FFF719FCA06B34
:1049B000E16B884213D1FFF733FC04F11000049936
:1049C000FFF742FD2046FFF7B1FA00F023FC002874
:1049D0009ED13E60BFF34F8FBFF36F8F98E7FFF715
:1049E0001FFC2046FFF7A2FA00F014FC90E700003D
:1049F00004ED00E02DE9F0471F469046894604008B
:104A000003D0B9F1000F08D011E0502080F31188D5
:104A1000BFF34F8FBFF36F8FFEE7206C38B150208C
:104A200080F31188BFF34F8FBFF36F8FFEE7022F24
:104A30000AD1E06B012807D0502080F31188BFF322
:104A40004F8FBFF36F8FFEE7FFF73EFC5020EFF371
:104A5000118680F31188BFF34F8FBFF36F8FA06B68
:104A6000E16B884206D3022F04D0002086F3118820
:104A7000BDE8F08794F945503A4649462046FEF78E
:104A8000BEFF681C04D06D1C84F845500120EDE782
:104A9000606A0028FAD004F1240000F083FB0028AB
:104AA000F4D0B8F1000FF1D00121C8F80010EDE703
:104AB00070B50E46040009D0206C78B1502080F308
:104AC0001188BFF34F8FBFF36F8FFEE7502080F345
:104AD0001188BFF34F8FBFF36F8FFEE7206848B98F
:104AE000606838B1502080F31188BFF34F8FBFF357
:104AF0006F8FFEE7FFF7E8FB5020EFF3118580F39F
:104B00001188BFF34F8FBFF36F8FA16BE06B8842AB
:104B100018D994F94500491CA163411C04D0401CDC
:104B200084F8450001200EE0606A0028FAD004F104
:104B3000240000F037FB0028F4D0002EF2D0012032
:104B40003060EFE7002085F3118870BD2DE9F7474D
:104B5000002683B08A46040003D0BAF1000F08D0C3
:104B600011E0502080F31188BFF34F8FBFF36F8F98
:104B7000FEE7206C38B1502080F31188BFF34F8FCF
:104B8000BFF36F8FFEE700F019FADFF8F4804FF003
:104B900000094FF0805748B9059838B1502080F38C
:104BA0001188BFF34F8FBFF36F8FFEE7FFF718FB3E
:104BB000A56BC5B151462046FEF70EFF6D1EA563DD
:104BC000206950B104F1100000F0ECFA28B1C8F8E7
:104BD0000070BFF34F8FBFF36F8FFFF721FB0120F2
:104BE00006B0BDE8F087059808B11EB106E0FFF7F2
:104BF00017FB27E06846FFF719FC0126FFF710FBBB
:104C0000FFF7E2FCFFF7ECFA94F94400401C01D1F5
:104C100084F8449094F94500401C01D184F84590F3
:104C2000FFF7FEFA05A9684600F036F9002820468D
:104C30000AD0FFF77BF900F0EDFA2046FFF728F8DD
:104C40000028B3D00020CBE7FFF722F890B104F1A1
:104C500024000599FFF7F8FB2046FFF767F900F0FD
:104C6000D9FA0028A2D1C8F80070BFF34F8FBFF364
:104C70006F8F9BE72046FFF759F900F0CBFA95E7D5
:104C800004ED00E02DE9F04790468946040003D08A
:104C9000B9F1000F08D011E0502080F31188BFF364
:104CA0004F8FBFF36F8FFEE7206C38B1502080F339
:104CB0001188BFF34F8FBFF36F8FFEE7FFF704FB41
:104CC0005020EFF3118680F31188BFF34F8FBFF3AD
:104CD0006F8FA76BF7B194F9445049462046FEF711
:104CE0007BFE7F1EA763681C04D06D1C84F84450B3
:104CF000012010E020690028FAD004F1100000F033
:104D000051FA0028F4D0B8F1000FF1D00121C8F811
:104D10000010EDE7002086F31188BDE8F087000061
:104D20002DE9F343002683B00400354609D0206CFA
:104D300078B1502080F31188BFF34F8FBFF36F8F8E
:104D4000FEE7502080F31188BFF34F8FBFF36F8FC2
:104D5000FEE700F033F9DFF83C814FF000094FF037
:104D6000805748B9049838B1502080F31188BFF3B8
:104D70004F8FBFF36F8FFEE7FFF732FAA06BC8B11A
:104D8000401EA063206810B9FFF772F960602069C7
:104D900050B104F1100000F005FA28B1C8F8007015
:104DA000BFF34F8FBFF36F8FFFF73AFA012005B0C3
:104DB000BDE8F083049808B166B10FE03DB1502022
:104DC00080F31188BFF34F8FBFF36F8FFEE7FFF7BC
:104DD00027FA5DE06846FFF729FB0126FFF720FA76
:104DE000FFF7F2FBFFF7FCF994F94400401C01D1F6
:104DF00084F8449094F94500401C01D184F8459012
:104E0000FFF70EFA04A9684600F046F8002820468D
:104E100012D0FFF78BF800F0FDF92046FEF738FFBF
:104E20000028A9D09DB3FFF7DBF9606A50B3206B6F
:104E30000068C0F1380126E0FEF72AFFE0B12068E3
:104E400038B9FFF7CDF9606800F070F90546FFF753
:104E5000E7F904F124000499FFF7F6FA2046FFF77A
:104E600065F800F0D7F9002886D1C8F80070BFF3C4
:104E70004F8FBFF36F8F7FE72046FFF757F800F0A3
:104E8000C9F979E700216068FFF712FB9FE7FFE7A8
:104E900000208CE704ED00E02DE9F0410C46050010
:104EA00011D0C4B1FFF79CF9174B5A696E6820689E
:104EB000911B471C17D02F689B6A9F4219D09642BE
:104EC00017D8012410E0502080F31188BFF34F8FD2
:104ED000BFF36F8FFEE7502080F31188BFF34F8F31
:104EE000BFF36F8FFEE70024FFF79AF92046BDE875
:104EF000F081884205D9401A20602846FFF796FACB
:104F0000F1E700202060DCE7140000202DE9FF5FBE
:104F10008346DDE90E87994616468A469000FFF7DC
:104F20003BF805001CD05C20FFF736F8040014D0D5
:104F30000020256384F85900CDE90240CDE90087BF
:104F40004B46324651465846FEF711FE2046FEF7C4
:104F5000AFFC012004B0BDE8F09F2846FFF774F9CC
:104F60004FF0FF30F6E7F0B585B0DDE90B640A9D40
:104F7000A6B1DCB15C2700972663022684F859604D
:104F8000002604AFCDE90246CDE90057FEF7EFFD5C
:104F90002046FEF78DFC049805B0F0BD502080F34C
:104FA0001188BFF34F8FBFF36F8FFEE7502080F360
:104FB0001188BFF34F8FBFF36F8FFEE70548C169BC
:104FC00019B1806B18B10020704701207047022092
:104FD000704700001400002001484069704700003D
:104FE000140000202DE9F0412E4C0027A06B40B1A9
:104FF000206A401C2062606A00B101273846BDE883
:10500000F0816669761C666113D16068006838B10A
:10501000502080F31188BFF34F8FBFF36F8FFEE7EF
:105020006068A1686160A060A06A401CA062FEF791
:10503000FDFE206BDFF87080864209D3606800684F
:1050400080B16068C068C568686886420DD2206318
:105050002068C06A00EB800158F821000128CAD9F5
:105060000127C8E74FF0FF30F1E7281DFFF75DF893
:10507000A86A18B105F11800FFF757F8E86AA169A6
:10508000884200D9A06100EB800108EB8100291D56
:10509000FFF79AF8E86A2168C96A8842CED30127E7
:1050A000CCE7000014000020C002002070B504000E
:1050B0004FF0000133D01B4D2868844207D05020A8
:1050C00080F31188BFF34F8FBFF36F8FFEE7206D22
:1050D00038B1401E2065E36CE26A9A421FD040B1AD
:1050E0001DE0502080F31188BFF34F8FBFF36F8F07
:1050F000FEE7201DFFF719F8E06CE062C0F1380010
:10510000A061E06AA969884200D9A861064900EB5C
:10511000800001EB8000211DFFF756F801210846B1
:1051200070BD000014000020C002002070B5040013
:105130004FF000002BD0194DE16A2A68D26A9142E3
:1051400026D2A069002804DB2868C06AC0F13800B4
:10515000A061134E01EB8101606906EB8101884279
:1051600011D1201DFEF7E1FF2868C06AE062A9693D
:10517000884200D9A86100EB800006EB8000211D69
:10518000FFF722F802E02868C06AE062012070BDE3
:10519000E16C2A68D26A9142F8D370BD14000020F5
:1051A000C002002070B5C068C46854B104F1180092
:1051B0000646FEF7BAFF144DA86B50B131461348AE
:1051C00015E0502080F31188BFF34F8FBFF36F8F2E
:1051D000FEE7201DFEF7A9FFE06AA969884200D911
:1051E000A8610B4900EB800001EB8000211DFEF758
:1051F000EBFFE06A2968C96A884202D90120686227
:1052000070BD002070BD0000140000204807002081
:10521000C00200202DE9F0472C4D00242746A86B42
:1052200038B1FEF7DDFFA86B401EA863A86B40B144
:1052300046E0502080F31188BFF34F8FBFF36F8F8C
:10524000FEE72969224E0120D1B3A6F59169804677
:105250003068E0B1F068C46804F11800FEF765FF3B
:10526000201DFEF762FFE06AA969884200D9A861A3
:1052700000EB800109EB8100211DFEF7A5FFE06A2C
:105280002968C96A8842E3D3C5F82480E0E70CB1F5
:10529000FEF7CCFD2C6A4CB14FEA0806FFF7A2FEE0
:1052A00000B16E62641EF9D100202862686A38B1CC
:1052B0000849012738070860BFF34F8FBFF36F8F8E
:1052C000FEF7AEFF3846BDE8F0870000140000206E
:1052D0004807002004ED00E010B586B0FEF750FB53
:1052E000114CA068B8B100200390049005AA04A94D
:1052F00003A8FEF737FFDDE9032102208DE8070050
:1053000000230AA10B48059AFFF72DFEE06010B1BB
:1053100006B0012010BD502080F31188BFF34F8FDD
:10532000BFF36F8FFEE7000050000020546D722025
:1053300053766300093F00082DE9FF411E461346DE
:1053400002000A9D4FF0000016D0144CA768002FF1
:105350000FD0CDE900130292062917DAFFF72EFECF
:1053600002284FF000030FD000226946A068FFF723
:1053700091FA04B0BDE8F081502080F31188BFF3AA
:105380004F8FBFF36F8FFEE72A46EEE700233246CA
:1053900069463846FFF72EFBEBE70000500000207F
:1053A000185A000800000000000000000000000083
:1053B00000000000000400001800000000000000D1
:1053C00000000000010202030405060708090A0B99
:1053D0000C0D0E0F10100000000000000000010274
:1053E000030406070809000000000102030400008E
:1053F00000000000000000000000000000000000AD
:105400000000F80000000000000033000000000071
:1054100000003C0000000000000000000000000050
:105420002020FC20FC20000002021F021F020000BE
:105430003008FC88700000000E113F100C000000C6
:105440001824A45800000000001A252418000000A9
:105450008058A464180000001926212618060000B0
:1054600000003C0000000000000000000000000000
:1054700000F0080400000000000F102000000000F1
:10548000000408F0000000000020100F00000000E1
:105490002040F0402000000002010701020000004F
:1054A0000000E0000000000001010F010100000009
:1054B00000000000000000000000708000000000FC
:1054C00000000000000000000101010101000000D7
:1054D000000000000000000000003000000000009C
:1054E00000008060180000001806010000000000A5
:1054F00000F8048444F80000001F2120201F000051
:105500001008FC000000000020203F2020000000C8
:105510000038040484780000382422212020000070
:10552000003884848478000000182020201F0000A8
:10553000C0201008FC000000030202023F0200002D
:10554000FC8484848404000000182020201F0000B4
:10555000F08884848408000007182020201F0000A1
:1055600004040484641C00000038060100000000EC
:105570000078848484780000001F2020201F000011
:105580000078848484F8000000182020201F000088
:105590000000600000000000000018000000000093
:1055A0000000600000000000000038400000000023
:1055B00080402010080400000102040810200000B0
:1055C000404040404040000002020202020200004F
:1055D0000408102040800000201008040201000090
:1055E000003804048478000000000033000000004C
:1055F00000F804C404F80000001F2023201F00004E
:105600000000FC30C0000000003F08080B3C000018
:105610000078848484FC0000001F2020203F0000CC
:1056200000F8040404180000001F202020180000C7
:1056300000F8040404FC0000001F2020203F0000AC
:1056400000FC848484040000003F2020202000000F
:1056500000FC848484040000003F0000000000007F
:1056600000F8040404180000001F2020211F00007F
:1056700000FC808080FC0000003F0000003F000034
:105680000000FC040400000000003F202000000097
:105690000000000000FC000000182020201F000077
:1056A00000FC4020100C0000003F01020438000004
:1056B00000FC000000000000003F2020202000002F
:1056C00000FC20C020FC0000003F0000003F000064
:1056D00000FC20C000FC0000003F0000013F000073
:1056E00000F8040404F80000001F2020201F000020
:1056F0000078848484FC0000003F0000000000006B
:1057000000F8040404F80000001F2030403F0000AF
:105710000078848484FC0000003F0000033C00000B
:10572000007884848418000000182020201F0000C6
:105730000004FC040404000000003F00000000001E
:1057400000FC000000FC0000001F2020201F0000C3
:1057500000FC000000FC000000010E300E01000003
:1057600000FC000000FC0000003F0403043F0000B8
:10577000001C6080601C0000003806010638000034
:10578000007C8000807C00000000013E01000000E1
:1057900000040484641C000000382621202000003E
:1057A0000000FC040400000000003F202000000076
:1057B00000186080000000000000000106180000D2
:1057C00000000404FC000000000020203F00000056
:1057D0000020100810200000000000000000000061
:1057E0000000000000000000404040404040000039
:1057F0000000081020000000000000000000000071
:105800000000404040800000001C2222223F000097
:1058100000FC804040800000003F2020201F00004E
:105820000080404040800000001F20202018000021
:105830000080404080FC0000001F2020203F00002E
:105840000080404040800000001F22222213000000
:105850000040F8444408000000003F000000000041
:105860000080404040C00000004F9090907F0000BA
:1058700000FC804040800000003F0000003F00002E
:105880000000E4000000000000003F2020000000B5
:1058900000000000E4000000006080807F00000045
:1058A00000FC000080400000003F020508300000BE
:1058B0000000FC000000000000003F20200000006D
:1058C00000C0408040800000003F003F003F0000DB
:1058D00000C0804040800000003F0000003F00000A
:1058E0000080404040800000001F2020201F00005A
:1058F00000C040404080000000FF1010100F00006A
:105900000080404040C00000000F101010FF000059
:1059100000C0804040800000003F00000000000008
:10592000008040404080000000112222221C000024
:105930000040FC404000000000001F20202000002C
:1059400000C0000000C00000001F2020103F000029
:1059500000C0000000C00000000718201807000069
:1059600000C0000000C00000001F201E201F00001B
:1059700000C0000000C0000000300906093000002F
:1059800000C0000000C0000000438484847F000049
:1059900000404040C0400000102826212020000088
:1059A00000C038040400000000031C202000000098
:1059B0000000FC000000000000007F00000000006C
:1059C0000000040438C00000000020201C03000078
:1059D000001008102010000000000000000001036B
:1059E0000507090E10121416181C1E0000040002F0
:1059F00000018000400020001000080004000200A8
:105A0000000000800040002000100008004000203E
:105A1000001000080004000264656661756C74542F
:105A200061736B00445A000800000020B4000000BD
:105A300064290008F85A0008B4000020C43E0000A1
:105A400074290008000000000100000010000000A0
:105A50000000000000127A000000000000000000BA
:105A60000000000000000000000000000000000036
:105A70000000000000000000000000000000000026
:105A80000000000000000000000000000000000016
:105A90000000000000000000000000000000000006
:105AA00000000000000000000000000000000000F6
:105AB00000000000000000000000000000000000E6
:105AC0000000000000000000AAAAAAAA000000002E
:105AD00000000000000000000000000000000000C6
