:020000040800F2
:10000000B85A0020DD010008172D0008152500084A
:10001000152D0008710300086D580008000000004D
:100020000000000000000000000000004501000882
:10003000730300080000000089010008213E000849
:10004000F7010008F7010008F7010008F7010008B0
:10005000F7010008F7010008F7010008F7010008A0
:10006000F7010008F7010008F7010008F701000890
:10007000F7010008F7010008F7010008F701000880
:10008000F7010008F7010008F7010008F701000870
:10009000B5560008F7010008F7010008F70100084D
:1000A000F7010008F7010008F7010008F701000850
:1000B000F7010008F7010008C93E0008F701000831
:1000C000F7010008F7010008F7010008F701000830
:1000D000F7010008F7010008394100084541000810
:1000E000F7010008F7010008F7010008F701000810
:1000F000F7010008F7010008F7010008F701000800
:10010000F7010008F7010008F7010008F7010008EF
:10011000F7010008F7010008F7010008F7010008DF
:10012000F7010008F7010008F7010008F7010008CF
:10013000DFF80CD000F0D0F80048004789790008BB
:10014000B85A0020224B19680868B0E8F00F80F315
:100150000988BFF36F8F4FF0000080F311884EF0D5
:100160000D0E70470000000006480068006880F32C
:10017000088862B661B6BFF34F8FBFF36F8F00DFA1
:1001800000BF00BF08ED00E0EFF30980BFF36F8F01
:100190000F4B1A6820E9F00F106008B54FF05000BF
:1001A00080F31188BFF34F8FBFF36F8F08F0ACFD62
:1001B0004FF0000080F31188BDE808401968086816
:1001C000B0E8F00F80F30988BFF36F8F704700BF6E
:1001D00014000020EFF305807047000006488047B8
:1001E00006480047FEE7FEE7FEE7FEE7FEE7FEE71C
:1001F000FEE7FEE7FEE7FEE7C53E00083101000826
:10020000202A04DB203A21FA02F00021704721FA6B
:1002100002F3D040C2F120029140084319467047D2
:1002200040EA01039B0703D009E008C9121F08C078
:10023000042AFAD203E011F8013B00F8013B521EF8
:10024000F9D27047D2B201E000F8012B491EFBD26F
:1002500070470022F6E710B513460A4604461946D1
:10026000FFF7F0FF204610BD421C10F8011B0029CB
:10027000FBD1801A70472DE9F05F054600209246B9
:100280009B4688460646814640241BE02846414658
:1002900047462246FFF7B4FF53465A46C01A9141DB
:1002A00010D311461846224600F028F82D1A67EBA5
:1002B00001084F4622460120002100F01FF817EBED
:1002C00000094E41201EA4F10104DFDC48463146FE
:1002D0002A464346BDE8F09F064C074D06E0E0681D
:1002E00040F0010394E8070098471034AC42F6D37D
:1002F000FFF722FF984E0308B84E0308202A04DBBC
:10030000203A00FA02F1002070479140C2F1200328
:1003100020FA03F319439040704770B58C1810F819
:10032000015B15F0070301D110F8013B2A1106D13A
:1003300010F8012B03E010F8016B01F8016B5B1E54
:10034000F9D12B0705D40023521E0DD401F8013B2F
:10035000FAE710F8013BCB1A921C03E013F8015B9B
:1003600001F8015B521EF9D5A142D8D3002070BD1F
:10037000FEE7704772B6FEE7002200F001B8000009
:1003800030B50E4B054601205C7A012C15D8587A01
:1003900000241C54587A03EB800045605D7A03F119
:1003A00008002A54587A421C5A72303008703A2099
:1003B00048702F208870CC70002030BD843C002015
:1003C00010B590F821100022022905D00421816384
:1003D00080F82020012010BD01680B6823F00E0377
:1003E0000B6001680B6823F001030B6090F840304C
:1003F000C46B012101FA03F3636080F8211080F8D7
:100400002020104610BD00002DE9F05F90F821106B
:100410000024022903D004218163012485E00168BE
:100420000A6822F00E020A6001680A6822F00102DE
:100430000A603F4E3E4FB215DFF8F4C0DFF8F0908F
:10044000DFF8ECA0DFF8E8B0DFF8E4E00168783F1F
:1004500013011502ACF1640CA9F15009AAF13C0A90
:10046000ABF1280BAEF1140E4FF48018B14227D92E
:10047000B9420ED0614512D049451DD0514518D022
:10048000594518D0714501D1424615E0294EB14277
:1004900001D1012210E0274E1436B14201D11022C1
:1004A0000AE0244E2836B14206D0224A3C3291421C
:1004B00001D11A4600E02A461E49091F0A602BE0B6
:1004C000B94213D0614517D0494522D051451DD0BE
:1004D00059451DD0714501D142461AE0B14202D1C1
:1004E0004FF0807215E0134EB14201D1012210E0AD
:1004F000104E1436B14201D110220AE00D4E2836BA
:10050000B14206D00B4A3C32914201D11A4600E07A
:100510002A46074980394A60012180F821100021CC
:1005200080F82010416B01B188472046BDE8F09F5C
:1005300080000240080402402DE9F84FDFF8C8911E
:100540000024A9F1040B23460F2709F1040AABF19B
:10055000040ED1E00125A54006EA0502AA4276D1A3
:10056000DFF8A8C14E68A6EB0C0866452BD00DDC61
:10057000032E34D005DC36B3012E19D0022E2FD134
:100580001BE0112E16D0122E2AD119E0B8F5881FC3
:1005900019D006DCB8F5803F15D0B8F5801F1FD103
:1005A00011E0B8F5001F0ED0B8F5041F18D10AE00D
:1005B000CB6815E0CB681B1D12E0CB6808330FE059
:1005C000CB680C330CE08B682BB1012B4FF0080388
:1005D00003D0456104E0042302E0056100E000234C
:1005E000FF2A01D8064601E000F104064FEA84051F
:1005F00001D9A5F12005D6F8008007FA05FC28EA04
:100600000C0803FA05F548EA0508C6F800804D68AD
:10061000ED0070D53E4DAE6946F00106AE61AD69A4
:1006200024F0030605F0010500953A4D06EB050C94
:10063000DCF80850A607360F07FA06F825EA080581
:10064000DFF8D480404503D14FF0000825E052E0A8
:10065000DFF8C880404502D14FF001081DE0DFF807
:10066000C080404502D14FF0020816E0DFF8B480A8
:10067000404502D14FF003080FE0DFF8AC80404561
:1006800002D14FF0040808E0DFF8A080404502D115
:100690004FF0050801E04FF0060808FA06F848EAAE
:1006A0000508CCF808804D68D9F80060ED024D4689
:1006B00001D5164300E096432E604D68DAF80060DD
:1006C000AD02554601D5164300E096432E604D68B5
:1006D000DBF80060AD035D4601D5164300E09643AC
:1006E0002E604D68DEF80060ED03754601D51643B7
:1006F00000E096432E60641C0A681646E2407FF4D0
:1007000029AFBDE8F88F0000080401400000111077
:10071000001002400000014000080140000C0140B0
:10072000001001400014014000180140001C01406D
:10073000C26821EA02030A4043EA024101617047AC
:100740000AB1016170470904FBE7000001488068B5
:10075000704700000400002070B5040025D094F814
:100760003D00002520B984F83C50204600F050F9A7
:10077000242084F83D002068016821F00101016017
:100780002068016841F4004101602068016821F49B
:100790000041016001F036F84D4A6168914201D88C
:1007A0004C4900E04C49884201D2012070BD4B49C0
:1007B0002368B0FBF1F15E6826F03F060E435E60F1
:1007C0006368934206D94FF4967359434FF47A7392
:1007D000B1FBF3F12368491C1E6A26F03F06314342
:1007E00019626168914210D84900401EB0FBF1F2D5
:1007F000521CC2F30B02042A01D2042022E0B0FBF7
:10080000F1F0401CC0F30B001CE0A268F2B301EB56
:10081000C10303EB0116431EB3FBF6F35B1C43F469
:1008200080431B0549D092B301EBC10202EB0111D9
:10083000401EB0FBF1F0401CC0F30B0040F48040C0
:1008400040F400402168CA694CF6FF739A43104394
:10085000C861D4E9071001432068026822F0C00291
:1008600011430160D4E9030101432068826848F222
:10087000FF339A4311438160D4E90501084321689D
:10088000CA6822F0FF021043C86001E00EE016E0E3
:100890002068016841F0010101602564202084F88E
:1008A0003D00256384F83E50002070BD01EB4106F9
:1008B000431EB3FBF6F35B1CB3E70120C2E701EB79
:1008C0004101401EB0FBF1F0401CC0F30B00B7E744
:1008D000A086010080841E0000093D0040420F00F8
:1008E0002DE9FF4F83B09A46DDE911979346044600
:1008F000DDF84080FFF72AFF054694F83D002028E8
:100900007FD11923012240492046009501F09AFE2B
:10091000002876D194F83C00012872D0012084F898
:100920003C0020680168C90703D1016841F001015A
:1009300001602068016821F400610160212084F8D1
:100940003D00402084F83E0000262664C4F8248040
:10095000A4F82A90608D20852C48E062CDE90075CE
:1009600053465A462046049901F0ECFD70B930E038
:100970002A463946204601F00BFF58B1206C042866
:1009800004D12068016841F400710160012007B0C2
:10099000BDE8F08F606A216800780861606A401CD9
:1009A0006062218D491E89B22185628D521E628549
:1009B00022685369DB435B070BD469B1007810618F
:1009C000606A401C6062208D401E2085608D401E44
:1009D0006085208D0028CBD12A463946204601F07B
:1009E00005FE0028CAD154F83D0B016841F400719E
:1009F0000160202004F81E09E67766770020C6E72C
:100A0000FFE70220C3E70000020010000000FFFF24
:100A100010B586B000210091019102910391006808
:100A20000F4988421AD10F4CA06940F00800A0611C
:100A3000A069694600F008000490C02000901220D0
:100A40000190032003900848FFF776FDE06940F429
:100A50000010E061E06900F40010049006B010BDE1
:100A60000054004000100240000C01400248816820
:100A7000027811448160704704000020074810B5D7
:100A8000016841F010010160032000F0A7F80F2079
:100A900000F006F800F050F8002010BD00200240E1
:100AA00030B505461F4887B0C16941F00401C161F6
:100AB000C06906A900F00400009001A800F082FEC1
:100AC0000498B0B100F09EFE40001749174AB0FBF1
:100AD000F1F11748491E0260416040F2E7320021FF
:100AE000C0E903218160816101F0EDF9040003D0C8
:100AF00015E000F087FEE8E70D4801F013FA040066
:100B00000DD11E2000F03CF8102D07D200222946FE
:100B10001E2000F043F80748056000E0012407B0FC
:100B2000204630BD0010024040420F000008004047
:100B300050030020080000200F4808B5816941F0EB
:100B400001018161816901F001010091C16941F0F8
:100B50008051C161C069002200F0805000900F21D7
:100B6000901E00F01BF80548416821F0E06141F05B
:100B70000071416008BD000000100240000001400B
:100B8000002809DB00F01F0201219140400980008C
:100B900000F1E020C0F8001170470000F0B40E4BE7
:100BA0001B680C46C3F30223C3F10705042D00D9CB
:100BB0000425191D072901D2002300E0DB1E0126B0
:100BC00006FA05F1491E214099409E40761E1640C6
:100BD0003143F0BC04F060BE0CED00E0064900F0CB
:100BE000070208684FF6FF03184040EA0220034A54
:100BF00010430860704700000CED00E00000FA05AB
:100C000010B50C0607D501F0070101EB810100EBDF
:100C1000C100283005E001EB810100EBC10000F5C7
:100C2000B47099B232B1012202730181190C418171
:100C3000002010BD00220273C180F9E7704701EB6C
:100C4000810200EBC202D0F8EC02D26B03F003BCCD
:100C500001EB810200EBC202D0F8EC02D2F87C2159
:100C600003F05CBC70B504460B0601F0070000EB16
:100C7000800104EBC1014FF001024FF0000503D5E4
:100C800081F82920283103E081F8695101F5B47118
:100C9000087094F8A802012808D084F8A8222068D7
:100CA00004F098F984F8A852002070BD022070BDAD
:100CB00070B5044601F00F006268904201D901202E
:100CC00070BD0B0601F0070000EB800104EBC101D1
:100CD0004FF001024FF0000503D581F8292028319B
:100CE00003E081F8695101F5B4718D70087094F8D2
:100CF000A802012808D084F8A822206804F007FA86
:100D000084F8A852002070BD022070BD2DE9F05F6C
:100D100004685FEA424C0B788D69B4F850C04FF01C
:100D200000064BF68F7948F2800A48F68F7B48F22E
:100D3000C00E4FF480672AD54FF0020808EBC308B5
:100D4000C44407EB4C07E45BC4F30904A54203D396
:100D50002D1B8D6101D00BE08E61066836F82350A3
:100D600005EA090585F4005545EA0A0526F82350E9
:100D7000520609D50D78036833F8252002EA0B02E4
:100D800042EA0E0223F8252084B30A8929E04FF0B5
:100D9000060808EBC308C44407EB4C07E45BC4F344
:100DA0000904A54203D32D1B8D6101D00BE08E6198
:100DB000066836F8235005EA090585F4005545EA2A
:100DC0000A0526F82350520609D40B78056835F831
:100DD000232002EA0B0242EA0E0225F823202CB15E
:100DE0004A8949690068234604F06EFC2046BDE844
:100DF000F09F2DE9F05F054600680C465FEA426C03
:100E000016468B692278B0F850C048F68F774CF2BE
:100E100080094FF4004B4FF6FF7E4FF4806A4FF08D
:100E2000000172D54FF0020808EBC208E0440AEB5B
:100E3000480C30F80C00C0F30900834211D91B1A8A
:100E4000A3610FD0730407D52E6836F822303B40DB
:100E500043EA090326F8223094F82420012A47D0D7
:100E600052E1A161607810B1012813D01AE028681E
:100E7000B0F85030184400EB0210B0F80424C2F36C
:100E80000902A0F80424B0F8042442F40042A0F8B7
:100E9000042407E02868B0F85030184400EB021032
:100EA000A0F804146278286812B1012A11D018E061
:100EB000B0F850100844217800EB0110B0F80C1481
:100EC000C1F30901A0F80C14B0F80C1441F400416E
:100ED00005E0B0F850201044227800EB0210A0F892
:100EE0000C1421782846FFF7AAFE700472D40BE197
:100EF000626902446261E2690244E2612369226A32
:100F00009A4203D31846111A04E03EE084F82410F4
:100F10000AB110462162617811B1012929D031E06E
:100F20002968B1F850201144227801EB0211B1F880
:100F30000424C2F30902A1F8042401F204413E286A
:100F400007D94209C30600D1521E0B884BEA822200
:100F500007E048B14208C30700D0521C0B880EEAD4
:100F6000822213430B800DE00A8842F400420A807B
:100F700008E02968B1F850201144227801EB0211F1
:100F8000A1F8040483B22289BAE04FF0060808EB06
:100F9000C208E0440AEB480C30F80C00C0F309002A
:100FA000834211D31B1AA3610FD0730407D42E6898
:100FB00036F822303B4043EA090326F8223094F801
:100FC0002420012A51D09FE0A161607818B1012846
:100FD00014D01BE03FE02868B0F85030184400EB14
:100FE0000210B0F80424C2F30902A0F80424B0F8F7
:100FF000042442F40042A0F8042407E02868B0F872
:101000005030184400EB0210A0F8041462782868ED
:1010100012B1012A11D018E0B0F85010084421781C
:1010200000EB0110B0F80C14C1F30901A0F80C1486
:10103000B0F80C1441F4004105E0B0F85020104421
:10104000227800EB0210A0F80C1421782846FFF754
:10105000F6FD700458D42278296831F8220038400F
:1010600040EA090021F822004EE062690244626110
:10107000E2690244E2612369226A9A4203D3184674
:10108000111A216204E00AB11046216284F824108A
:101090006278296812B1012A28D02FE0B1F85020D7
:1010A0001144227801EB0211B1F80C24C2F30902B9
:1010B000A1F80C2401F20C413E2807D94209C306CD
:1010C00000D1521E0B884BEA822207E048B1420849
:1010D000C30700D0521C0B880EEA822213430B80F8
:1010E0000CE00A8842F400420A8007E0B1F8502080
:1010F0001144227801EB0211A1F80C04628983B239
:101100006169286804F0FEFA2278296831F8220023
:1011100048F6BF73184080F0300048F2800318434F
:1011200021F822000020BDE8F09F10B5044690F899
:10113000A80201280AD0012084F8A802080607D5D1
:1011400001F00701206804F0B3FA04E0022010BDAA
:10115000206804F0ABFA002084F8A80210BD01F06A
:10116000070101EB810100EBC100D0F88401704759
:101170002DE9F04104460F0601F0070000EB800165
:1011800004EBC1014FF001064FF0000503D581F8D3
:101190002960283103E081F8695101F5B471022B0F
:1011A00008700A61CB7000D10D7194F8A802012873
:1011B00009D084F8A862206803F0BCFD284684F8B2
:1011C000A852BDE8F0810220FBE710B501F007044A
:1011D00004EB840100EBC101C1E95F230022C1F8E7
:1011E000842181F8692181F86841006801F5B471B2
:1011F00003F0E2FF002010BD70B504460D4601F07B
:1012000007006168884201D9012070BD29064FF0AE
:1012100000064FF0010207D500EB800104EBC1018D
:1012200081F82920283107E005EB850104EBC10195
:1012300081F8696101F5B4718A70087094F8A802A8
:10124000012807D084F8A822206803F09CFF6807D3
:1012500002D006E0022070BD04F52C71206803F076
:1012600054FF84F8A862002070BD10B501F0070497
:1012700004EB840100EBC101C1E90F23012281F8D5
:101280004C208B6400234B6481F8292001F8284FFF
:10129000006803F091FF002010BD00001FB5044658
:1012A000006804F00DFA010403D5204601F01AFE8F
:1012B0001FBD41050DD5206830F8441F21F4806121
:1012C0000180204600F010F90021204600F027F9A7
:1012D0001FBD410405D5206830F8441F21F480412A
:1012E00074E0810405D5206830F8441F21F40051D2
:1012F0006CE0C10414D5206830F8401F21F00401CF
:101300000180206830F8401F21F00801018020464C
:1013100000F0FDF8206830F8441F21F4805155E0BA
:10132000010540D5D4F800200020694632F820306D
:1013300021F81030401CC0B20828F7D332F8400F13
:1013400040F001001080206830F8402F22F00102A8
:1013500002802068B0F844205205FBD530F8442FB5
:1013600022F4806202800020236831F8102023F8E4
:101370002020401CC0B20828F6D3206830F8401F57
:1013800041F008010180206830F8441F21F4006119
:101390000180206830F8401F41F0040101802046A0
:1013A00000F0F2F81FBD810509D5206830F8441F10
:1013B00021F400710180204600F0ADF81FBDC0058A
:1013C000FCD5206830F8441F21F4807101801FBDD6
:1013D0002DE9F04186B0040004D094F8A90200255C
:1013E00020B108E0012006B0BDE8F08184F8A852E1
:1013F000204600F05BF8032084F8A902206803F07F
:101400007DFE04F11001142288466846FEF708FFAD
:1014100094E80F0003F0DCFD0227D0BB0021206818
:1014200004F068F9002001260EE000BF00EB800107
:1014300004EBC10181F8296001F8280F401CCD7030
:101440000D614D61C0B28D6161688142EED80020AE
:1014500012E000BF00EB800104EBC10181F869518B
:1014600081F8680181F86B51C1F87851C1F87C515D
:10147000401CC0B2C1F8805161688142EAD8142290
:1014800041466846FEF7CCFE94E80F0003F02DFEBF
:1014900010B184F8A972A5E784F8245084F8A962F1
:1014A000206803F020FE00209DE7000008B50068DA
:1014B0000B49884212D10B48C16941F40001C16156
:1014C000C069002200F40000009005211420FFF7FD
:1014D00065FBBDE808401420FFF752BB08BD0000C3
:1014E000005C00400010024070B504468068012591
:1014F000022801D0FEF73EFF2946D4F8EC0203F0A3
:10150000F6F8D4F8EC02BDE8704003F0B2B8D0F8B9
:10151000EC0203F0D6B8D0F8EC0203F0DCB810B55A
:10152000044690F8A80201280BD0012084F8A802F4
:1015300084F82410206804F0DFF8002084F8A80262
:1015400010BD022010BDD0F8EC2200F52C71104621
:1015500003F0D9B810B5044690F8A802012810D0BD
:10156000012084F8A802206804F097F801212046A1
:10157000FFF764FB206803F0B4FD002084F8A802A4
:1015800010BD022010BD000010B50446D0F8EC02DA
:1015900003F0F8F8A069002804D00348016841F07E
:1015A0000601016010BD000010ED00E02DE9F843D8
:1015B00005460078354CC00754D0E0690026C000CD
:1015C00008D4E06940F08050E061E069012600F055
:1015D000805000902E480168C90512D401688046E9
:1015E00041F480710160FFF7B1F8074605E000BFE4
:1015F000FFF7ACF8C01B642823D8D8F80000C0055A
:10160000F6D5206A10F4407021D0A98801F4407109
:1016100081421CD0206A1F49012220F440700A60D8
:1016200000220A602062C00711D0FFF78FF807463A
:1016300041F2883808E000BFFFF788F8C11B414538
:1016400002D90320BDE8F883206A8007F4D5206A18
:10165000696820F44070084320621EB1E06920F000
:101660008050E0612878800705D56068A96820F47B
:101670004040084360602878C00605D56068696905
:1016800020F48000084360600020DBE70010024087
:1016900000700040400442422DE9F0470F4605002B
:1016A00061D0434E306800F00700B84209D230687C
:1016B00020F0070038433060306800F00700B8427F
:1016C00051D128683B4C810712D5400703D560688B
:1016D00040F4E06060602878000703D5606840F45B
:1016E000605060606068A96820F0F00008436060A6
:1016F0002878C00728D06868012810D021680228FF
:1017000010D0890700292EDA616821F00301014316
:101710006160FFF71BF8804641F288390DE02168CF
:101720008903EFE78901EDE7FFF710F8A0EB080167
:10173000494502D90320BDE8F0876068696800F078
:101740000C00B0EB810FEFD1306800F00700B84219
:101750000BD9306820F0070038433060306800F063
:101760000700B84201D00120E5E72878400705D5F9
:101770006068E96820F4E06008436060287800074A
:1017800006D56068296920F4605040EAC1006060B5
:1017900000F058F86168084AC1F30311515CC84071
:1017A0000649086006480068FFF77AF90020C2E79A
:1017B0000020024000100240469B0008100000205C
:1017C000080000200F2202600C4A536803F0030354
:1017D0004360536803F0F0038360536803F4E063ED
:1017E000C36052684FF4E06303EAD2020261044826
:1017F000006800F007000860704700000010024019
:10180000002002400448054900684968044AC1F3C1
:101810000221515CC84070471000002000100240B7
:10182000569B00080448054900684968044AC1F30A
:10183000C221515CC84070471000002000100240D7
:10184000569B00080E4A51680E4801F00C03042B09
:1018500011D0082B0FD10C48C1F38343C903C05CDE
:101860000AD55168084AC1F34041921E515C054AAD
:101870005043B0FBF1F07047044948437047000003
:101880000010024000127A00369B000800093D005B
:101890002DE9F84F040070D02078C04DC00749D022
:1018A0006868C0F38100012807D06868C0F3810030
:1018B000022809D16868C00306D52868800339D595
:1018C00060680028E7D035E06068B0F5803F0BD055
:1018D00010B1B0F5A02F11D0286820F48030286016
:1018E000286820F4802002E0286840F480302860D6
:1018F000606890B1FEF72AFF06460AE0286840F4C7
:1019000080202860F0E700BFFEF720FF801B6428DE
:1019100073D828688003F7D50CE0FEF717FF06465A
:1019200005E000BFFEF712FF801B6428F0D828688E
:101930008003F7D420789A4E80074FF001094FF0CA
:10194000000839D5686810F00C0F07D06868C0F33C
:101950008100022809D16868C00306D4286880077E
:1019600014D52069012808D110E02069B0B1C6F86B
:101970000090FEF7EBFE074605E00AE1FEF7E6FE03
:10198000C01B0228C4D828688007F7D52868616979
:1019900020F0F80040EAC10028600DE0C6F80080A1
:1019A000FEF7D4FE074604E0FEF7D0FEC01B022877
:1019B00023D828688007F7D4207800072CD57948E9
:1019C000A169D9B1C0F80090FEF7C0FE074604E057
:1019D000FEF7BCFEC01B02280FD8686A8007F7D547
:1019E00071484FF4FA510068B0FBF1F0009000BF6D
:1019F0000098411E0091FAD20EE080E0C0F800800D
:101A0000FEF7A4FE074604E0FEF7A0FEC01B022876
:101A100075D8686A8007F7D42078400760D5E869F0
:101A20000027C00008D4E86940F08050E861E86908
:101A3000012700F0805000905C480168C90513D46C
:101A40000168834641F480710160FEF77FFE8246A3
:101A500006E000BFFEF77AFEA0EB0A0064284ED82D
:101A6000DBF80000C005F5D5E06801280AD008B110
:101A7000052813D0286A20F001002862286A20F087
:101A8000040002E0286A40F001002862E06841F2A8
:101A9000883B98B1FEF75AFE82460BE0286A40F078
:101AA00004002862EEE700BFFEF750FEA0EB0A013B
:101AB00059455AD8286A8007F6D50CE0FEF746FE4D
:101AC000824605E0FEF742FEA0EB0A0159454CD8DC
:101AD000286A8007F6D41FB1E86920F08050E861D9
:101AE000E06988B36968C1F38101022944D0022802
:101AF000C6F8608004D0FEF729FE044638E034E0E2
:101B0000FEF724FE074604E0FEF720FEC01B022875
:101B10002BD828688001F7D4206AB0F5803F05D122
:101B20006868A16820F4003008436860D4E90801BF
:101B30000843696821F4741108436860C6F860902E
:101B4000FEF704FE044606E025E000BFFEF7FEFDBA
:101B5000001B022809D828688001F7D51BE000BFC8
:101B6000FEF7F4FD001B022802D90320BDE8F88F20
:101B700028688001F4D40EE00128F7D06868226A52
:101B800000F48031914204D1616A00F470108842FF
:101B900001D00120EAE70020E8E700000010024041
:101BA00000004242800442421000002000700040C9
:101BB00070B5040009D0606A002540B125616561F7
:101BC000A56294F8510040B10CE0012070BD60683E
:101BD000B0F5827FF4D0E561F2E784F850502046FA
:101BE00000F040F8022084F851002068016821F0DC
:101BF00040010160A088218900F4827001F4044151
:101C00000843A18901F400610843217C01F002012D
:101C10000843217D01F001010843218B01F400718B
:101C20000843217F01F03801084394F8201001F0A7
:101C300080010843218D01F40051084321680860A8
:101C4000A069042101EA1040216848602068C16948
:101C500021F40061C1616565012084F85100002014
:101C600070BD000030B585B000240094019402944A
:101C7000039400681449884223D11448816941F4CF
:101C800080518161816901F480510491816941F041
:101C90000401816180690E4D00F004000490A020D1
:101CA0000090022001900320039069462846FEF729
:101CB00043FC4020CDE90004694628460294FEF723
:101CC0003BFC05B030BD0000003001400010024078
:101CD000000801402DE9FF4F81B0044690F8500004
:101CE00000260E9F1D4693464FF0010901280FD094
:101CF0004FF0010A84F850A0FEF728FD804694F8C2
:101D00005100616801280DD0B1F5827F08D103E050
:101D1000022005B0BDE8F08FA16809B9042801D000
:101D20000226C9E00298002865D0BBF1000FFBD065
:101D3000002DF9D094F85100042802D0052084F831
:101D4000510000206065C4F838B0E587A587029986
:101D50002163E586A58620646064206801684906E1
:101D600003D4016841F040010160E068B0F5006F04
:101D7000606803D0F0B3012D47D081E008B1012D98
:101D80003CD1206B21680088C860206B801C2063D8
:101D9000E08E401EE08631E02068816889070FD51B
:101DA000E18E69B1B9F1010F0AD1216B0988C160D7
:101DB000206B801C2063E08E401EE0864FF00009FF
:101DC00020688168C9070CD0E18F51B1C068A16B50
:101DD0000880A06B801CA063E08F401EE0874FF05E
:101DE0000109FEF7B3FCA0EB0800B84206D3781C4B
:101DF00004D001E009E05BE003265BE0E08E002810
:101E0000CAD1E08F0028C7D140E0206B216800785C
:101E10000873206B401C2063E08E401EE0862FE09C
:101E20002068816889070FD5E18E69B1B9F1010F8A
:101E30000AD1216B09780173206B401C2063E08E6E
:101E4000401EE0864FF0000920688168C9070CD069
:101E5000E18F51B1C068A16B0870A06B401CA063FA
:101E6000E08F401EE0874FF00109FEF76FFCA0EB0A
:101E70000800B84202D3781C02D0BAE7002FB8D0CD
:101E8000E08E0028CCD1E08F0028C9D142463946E7
:101E9000204601F0BCFC18B10126202060650BE053
:101EA000A06818B92068C16880680090606D08B1AA
:101EB000012601E084F851A0002084F8500030464B
:101EC00027E77047704710B5040003D094F83D0031
:101ED00010B107E0012010BD002084F83C0020462E
:101EE00000F01EF8022084F83D00211D206801F05A
:101EF000F1FF012084F8460084F83E0084F83F009A
:101F000084F8400084F8410084F8420084F84300DB
:101F100084F8440084F8450084F83D00002010BD9A
:101F20007047000090F83D10012901D00120704752
:101F3000022180F83D100168CA6842F00102CA60BF
:101F400000680E4988420ED00D4988420BD0B0F18E
:101F5000804F08D00B49884205D00B49884202D0F7
:101F60000A49884204D1816801F00701062903D09B
:101F7000016841F00101016000207047002C014020
:101F8000003401400004004000080040000C004004
:101F9000704770B50446006801694FF00005C943F9
:101FA000890715D4C168C943890711D4E91E0161A5
:101FB00001202077206880698007204602D0FFF743
:101FC000E7FF04E000F098F8204600F096F8257747
:101FD00020680169C943490717D4C168C943490743
:101FE00013D46FF00401016102202077206880691A
:101FF00010F4407F204602D0FFF7CAFF04E000F053
:102000007BF8204600F079F8257720680169C943FC
:10201000090716D4C168C943090712D46FF0080133
:102020000161042020772068C0698007204602D023
:10203000FFF7AEFF04E000F05FF8204600F05DF827
:10204000257720680169C943C90617D4C168C94307
:10205000C90613D46FF010010161082020772068B1
:10206000C06910F4407F204602D0FFF791FF04E0E2
:1020700000F042F8204600F040F82577206801691A
:10208000C943C90708D1C168C943C90704D1891E1A
:102090000161204600F032F820680169C943090651
:1020A00009D4C168C943090605D46FF080010161F4
:1020B0002046FFF706FF20680169C943490609D495
:1020C000C168C943490605D46FF04001016120464B
:1020D00000F01EF820680169C94389060BD4C16865
:1020E000C943890607D46FF0200101612046BDE88D
:1020F0007040FFF7E7BE70BD704770470068034946
:10210000884201D1FEF7B2BC7047000000080040D1
:102110007047704770470000F8B5016804460868CA
:10212000CA684B6910F00F0F4FF0000559D003F04B
:10213000010602F49077374365D0C10705D0D10579
:1021400003D5616C41F001016164410705D5D907F0
:1021500003D0616C41F002016164810705D5D907A4
:1021600003D0616C41F004016164010707D502F0FE
:102170002001314303D0616C41F008016164616C5E
:1021800000293AD0800604D5900602D5204601F0F9
:1021900016FF20684069616CC0F38010090700D405
:1021A00060B3204601F0E4FE20684069400621D576
:1021B0002068143050E8001F21F0400140E8001270
:1021C000002AF5D1E06BA8B16D494163E06BFEF7E1
:1021D0001BF9002811D0E06B416B01B0BDE8F04065
:1021E000084783060FD593060DD52046BDE8F84075
:1021F00001F0E5BE2046FFF78DFFF8BD2046FFF752
:1022000089FF6564F8BD266B2023012E7CD1C606AC
:102210007AD5D60678D508684868009048694FF0A6
:102220000206400640D5E16B086840680004000CD7
:10223000E8D0A28D8242E5D9E085886920282DD09A
:1022400020680C3050E8001F21F4807140E8001233
:10225000002AF5D12068143050E8001F21F0010158
:1022600040E80012002AF5D12068143050E8001F21
:1022700021F0400140E80012002AF5D184F84230F4
:10228000256320680C3050E8001F21F0100140E861
:102290000012002AF5D1E06BFEF792F86663A08D7C
:1022A000E18D401A81B22AE0A08DE18D401A81B201
:1022B000E08D0028A6D00029A4D022680C3252E874
:1022C000000F20F4907042E80007002FF5D120683D
:1022D000143050E8002F22F0010240E80027002FC0
:1022E000F5D184F84230256320680C3050E8002F87
:1022F00022F0100240E80023002BF5D1666320464F
:10230000FFF707FFF8BDFFE705062BD5150629D512
:1023100094F841002128F5D1A068B0F5805F01D183
:102320002069B0B1206A411C2162216800784860B0
:10233000E08C401E0004000CE084E3D12068C168FA
:1023400021F08001C1602068C16841F04001C16096
:10235000D8E7206A0088C0F308004860206A801C23
:102360002062E5E74006CDD55006CBD5CA682046A9
:1023700022F04002CA6084F8413000F0CAF8C1E798
:10238000613F000870B5040004D094F841000025B6
:1023900010B106E0012070BD84F84050204600F0E6
:1023A00023F8242084F841002068C16821F40051FA
:1023B000C160204601F064FE2068016921F490416B
:1023C00001612068416921F02A0141612068C168EA
:1023D00041F40051C1606564202084F8410084F814
:1023E00042006563002070BDF0B585B00024009404
:1023F00001940294039403683F4F02203F49032253
:102400003F4D4602BB4220D18B6943F480438B6130
:102410008B6903F4804304938B6943F004038B615D
:102420008969039201F0040104910102CDE90010D1
:1024300069462846FEF780F8CDE9006469462846DB
:102440000294FEF779F805B0F0BD2E4FBB4226D1BD
:10245000CB6943F40033CB61CB6903F400330493BD
:102460008B6943F004038B618969039201F00401D5
:1024700004910421CDE9001069462846FEF75CF876
:102480000820CDE90004694628460294FEF754F876
:10249000002205212620FEF781FB262028E01A4D88
:1024A000AB42D0D1CB6943F48023CB61CB6903F439
:1024B000802304938B6943F008038B618969134D72
:1024C00001F00801CDE90321CDE900606946284605
:1024D000FEF732F8E814CDE9000469462846029474
:1024E000FEF72AF8002205212720FEF757FB2720B8
:1024F000FEF746FBA7E7000000380140001002404D
:10250000000801400044004000480040000C014029
:1025100070477047FEE701684A69D24352050FD4FD
:102520006FF480624A61002140F8301F202242731C
:102530008173026942F00402026101730120704755
:10254000002070472DE9F843044600680D46DDE998
:10255000089701689846164641F4807101604B4621
:1025600000224FF001112046009700F06BF848B1AF
:1025700020680068C00502D54FF400702064032075
:10258000BDE8F883216805F0FE0008613B464A4635
:102590001549204600F09EF888B920684169806995
:1025A00000903A464946204600F0F2F848B1206CC7
:1025B000042804D12068016841F400710160012001
:1025C000DEE7F5B2B8F1010F09D02168300A0861E1
:1025D0003A464946204600F0DBF80028E7D120685B
:1025E00005610020CCE700000200010070B516462E
:1025F0000D4604461EE02046FFF78DFF08B101207E
:1026000070BD681C16D0FEF7A1F8801BA84200D848
:1026100085B920684069C04340070BD5002044F8C5
:10262000300F20216173A073216941F020012161E5
:102630002073E4E720684069C0434007DBD40020F2
:1026400070BD00002DE9F047984617460D46044638
:10265000C1F30746DDF820902AE000BFB8F1FF3F44
:1026600026D0FEF773F8A0EB0901414502D8B8F176
:10267000000F1DD12068012E16D0806925EA0000C8
:102680000004000C12D00020B84211D1002044F800
:10269000300F20216173A073216941F02001216175
:1026A00020730120BDE8F0874069E7E70120EBE7F0
:1026B0002068012E0AD0806925EA00000004000C81
:1026C00006D00020B842C9D00020EBE74069F3E70C
:1026D0000120F7E72DE9F047984616460D460446D7
:1026E0004FF000094FF0200AC1F3074723E02068AC
:1026F0004069C043400515D42068016841F4007169
:10270000016021686FF480604861C4F8309084F8FB
:102710003DA084F83E90216C41F00401216484F8CE
:102720003C9021E0701C06D0FEF710F8A0EB0800EA
:10273000B04203D816B1012F1FD021E02068012F2D
:1027400015D0806925EA00000004000C18D000BFF5
:1027500044F8309F84F80DA084F80E90216941F070
:102760002001216184F80C900120BDE8F0874069C8
:1027700025EA00000004000CEAD12068406901E06D
:102780002068806925EA00000004000CAFD1ECE766
:1027900070B516460D4604461EE02046FFF7BBFE08
:1027A00008B1012070BD681C16D0FDF7CFFF801B5B
:1027B000A84200D885B920684069C04300060BD5FF
:1027C000002044F8300F20216173A073216941F08B
:1027D000200121612073E4E720684069C0430006BE
:1027E000DBD4002070BD0000F0B500230A243025A2
:1027F00037261F4611E000BFB4EB107F02D905EB6E
:10280000107C01E006EB107C01F813C001EB430CD7
:1028100000015B1C8CF80170DBB29342ECD3F0BD7D
:1028200070B5D0F8B842054694F8180240B9D4F80B
:10283000140228B1607A18B90121284601F090FFEE
:102840008121284601F08CFF607A022808D104F526
:1028500003722846BDE870401F23012101F000BF2C
:1028600070BD000070B5D0F8B84205460121D4F81B
:102870001002C4F83002D4F81402C4F83402284616
:1028800001F096FE1F280DD12849D4F80C02884289
:1028900008D194F81912012904D894F81A0208B141
:1028A000102809D994F8191220230522284600F08F
:1028B00035FF0220607209E004F21B22284600F076
:1028C000F9FC0028207A08DA052804D02846BDE85B
:1028D0007040FFF7A5BF012122E0022825D0012882
:1028E00023D0032821D06689CEB1D5F8B812284666
:1028F00004F10C02D1F81432B34200D33346D1F8BC
:1029000034429BB2A41BC1F83442002481F83842FF
:1029100004240C72BDE87040812101F03CBF00210D
:102920002846BDE8704000F083B870BD555342435F
:1029300010B5D0F8B842627A022A08D009060BD541
:10294000012A09D0BDE81040012100F071B88121B1
:1029500001F006FF0020607210BD10B5D0F8B8225B
:102960000446107A022805D0032801D0042810D18B
:10297000002109E092F81912204602F21B2200F011
:1029800099FC002805DA01212046BDE8104000F03E
:102990004FB810BD10B5D0F8B8220446107A80B1F7
:1029A000012813D192F81912204602F21B2200F0DE
:1029B00081FC00280ADA2046BDE81040012100F021
:1029C00037B82046BDE81040FFF74CBF10BDD0F827
:1029D000B80200210172704770B5D0F8B8420021EA
:1029E00005462172617284F85D1284F85C12D0F899
:1029F000BC020168002088470121284601F0CFFD74
:102A00008121284601F0CBFD04F503722846BDE87C
:102A100070401F23012101F023BED0F8B82200210D
:102A20001172012151721F2302F5037201F018BEC9
:102A300070B5D0F8B84205460B48C4F82C0284F8AB
:102A40003812002020720D2304F50B7281212846D4
:102A500001F0A1FE04F503722846BDE870401F2373
:102A6000012101F0FDBD00005553425310B504494A
:102A70000448FDF781FC0249491E087010BD0000A2
:102A80008D000020A000002010B5044A0021044859
:102A900005F002F90349086010BD0000109B000812
:102AA000213C0008000000202DE9F04385B00025FE
:102AB00032480095019502950395816941F0100116
:102AC0008161816901F010010491816941F0040183
:102AD0008161816901F004010491816941F008017B
:102AE0008161816901F008010491816941F020014F
:102AF00081618069224F00F020000122049011467C
:102B00003846FDF71DFEDFF87C800022402140465C
:102B1000FDF716FEDFF87090012220214846FDF7F0
:102B20000FFE7814CDE90005012469460294384669
:102B3000FDF702FD01AA0326009482E870006946B1
:102B40003846FDF7F9FCCDE9004569460F48029487
:102B5000FDF7F2FC40208DE8710069464046FDF724
:102B6000EBFC20208DE831000220039069464846A6
:102B7000FDF7E2FC05B0BDE8F08300000010024064
:102B80000010014000140140000C01400008014009
:102B90000D4810B50B4901600C49416000214FF40C
:102BA00080428160C0E9031241618161C1610162BB
:102BB000FDF7D2FD002803D0BDE81040FDF7DABBD9
:102BC00010BD000000540040CC010020A086010090
:102BD000104810B50E4901604FF482714160002128
:102BE0008160C1604FF400720161C0E905121022DA
:102BF000C0E90721416281620A21C162FEF7D8FF64
:102C0000002803D0BDE81040FDF7B4BB10BD0000A4
:102C100000300140200200200C4810B50A49016034
:102C20004FF4E1314160002181600C22C160C0E9B4
:102C300004128161C161FFF7A5FB002803D0BDE844
:102C40001040FDF797BB10BD00380140780200200E
:102C50000C4810B50A4901604FF41651416000213B
:102C600081600C22C160C0E904128161C161FFF77B
:102C700089FB002803D0BDE81040FDF77BBB10BDE9
:102C800000440040C00200200C4810B50A49016011
:102C90004FF416514160002181600C22C160C0E9EF
:102CA00004128161C161FFF76DFB002803D0BDE80C
:102CB0001040FDF75FBB10BD004800400803002036
:102CC00010B500220F49104801F09EFB08B1FDF736
:102CD00051FB0E490C4801F075FE08B1FDF74AFBA7
:102CE0000B49094801F0CAFD08B1FDF743FB06484E
:102CF00001F0BEFE002803D0BDE81040FDF73ABB4E
:102D000010BD0000B4000020903C002028010020ED
:102D100004010020FEE7FEE730B40021084C0A461B
:102D2000002004EBC1131A54401CC0B28028FAD30F
:102D3000491CC9B20829F3D330BC00F05DB80000CB
:102D40006C38002010B5AE2000F0BAF8202000F05A
:102D5000B7F8022000F0B4F8B02000F0B1F8C820B5
:102D600000F0AEF8002000F0ABF8102000F0A8F85A
:102D7000402000F0A5F8812000F0A2F8FF2000F02C
:102D80009FF8A12000F09CF8A62000F099F8A82058
:102D900000F096F83F2000F093F8A42000F090F89F
:102DA000D32000F08DF8002000F08AF8D52000F044
:102DB00087F8802000F084F8D92000F081F82220E4
:102DC00000F07EF8DA2000F07BF8122000F078F8AE
:102DD000DB2000F075F8202000F072F88D2000F064
:102DE0006FF8142000F06CF8AF2000F069F8BDE82F
:102DF0001040FFF791BF0000FEB50024651E0F4F85
:102E0000802600BF04F1B000C0B200F059F80020E5
:102E100000F056F8102000F053F807EBC410CDE98D
:102E2000000601234022782102950548FDF758FD50
:102E3000641CE4B2082CE5D3FEBD00006C38002011
:102E4000CC01002030B5203AD4B2782802D9002035
:102E5000891CC9B2102B12D1094B0A4D002205EB77
:102E6000C11103EB041384189D5C0D559D180C448F
:102E7000521C2D7AD2B284F88050082AF3D330BD88
:102E80005E9B00086C3800202DE9F04198461746FB
:102E90000E46044600250DE0434631462046FFF726
:102EA000D1FF0834E4B2782C02D90024B61CF6B263
:102EB0006D1CEDB27A5D002AEED1BDE8F081000014
:102EC00001B584B00121642204A88DE807000B46F7
:102ED000002278210248FDF703FD05B000BD000087
:102EE000CC0100202DE9F84F044640F68F7B48F6D0
:102EF0000F794FF480684FF0000AC0E1B0F8441039
:102F000011F00F0539D030F8256031047ED530F846
:102F1000251001EA0B0141F0800120F8251005EB96
:102F2000850004EBC00797F8740107F5B477002813
:102F30006DD0F87802286BD03978226832F82100F9
:102F400048F68F73184048F2C003184322F8210056
:102F50003978206830F82120B0F8503052047DD5FF
:102F6000022202EBC1015A1808EB4201415A8905BD
:102F7000890D009173D03A89DFE0C9062DD401880C
:102F800001EA090141F400410180206804F12805AB
:102F9000B0F850302978022202EBC1015A1808EB30
:102FA0004201405AC0F309006064E16B0844E063E9
:102FB00000212046FDF743FE94F8240000289CD011
:102FC000A869002899D194F82400216840F0800075
:102FD000A1F84C0084F824A051E1018804F5B475EF
:102FE0000A0521D5B0F850202B78062101EBC3014A
:102FF0000A4408EB4201405A04F52C71C0F309035E
:10300000EB61EA88206802F05FFB02E0B0E070E06C
:1030100080E02068018801EA0B0141F08001018015
:103020002046FEF790FA2AE10904D5D5018801EA85
:103030000B0141F0800101802068B0F850202B780E
:10304000062101EBC3010A4408EB4201405A830503
:103050009B0DEB6110D0696971B101E061E05FE047
:10306000EA88206802F030FBE96968690844686111
:1030700000212046FDF7ECFD216808880205ABD44D
:10308000C0F301300328A7D0B1F850000844B0F8CD
:103090000C14C1F30901A0F80C142A6900F20C40C9
:1030A0003E2A09D95109D20600D1491E02884FF49F
:1030B000004343EA812109E0B2B15108D20700D0B0
:1030C000491C02884FF6FF7303EA81210A430280FC
:1030D000216808884BF68F72104080F4405048F207
:1030E000800210430880CAE0018841F40041018059
:1030F000EEE72068B0F850203B78062101EBC301D1
:103100000A4408EB4201415A8905890D009118D003
:10311000FA8812E0324639462046FDF7F7FD009066
:103120000FE0062202EBC1015A1808EB4201415A96
:103130008905890D009104D07A897969009B02F094
:10314000C3FAF86900990844F8617969009808445D
:103150007861B86918B139690098814204D9397821
:103160002046FDF775FD03E03946206802F024F89B
:1031700030062FD505EB850004EBC001206830F840
:10318000252002EA090242F4004220F8252091F8A5
:103190002B00283101281ED0F0056CD42068B0F82F
:1031A00050300D78022202EBC5021A4408EB4202AD
:1031B000805A8A69C0F30900824255D9121A8A617D
:1031C00054D04A6902444A61CA691044C8612068FF
:1031D00001F0F2FF53E0C1F818A0087B524608B393
:1031E000700620D5487810B1012812D03AE0206846
:1031F000B0F8502010440A7800EB0210B0F8042414
:10320000C2F30902A0F80424B0F8042442F40042F6
:1032100006E02068B0F8503018440B7800EB03103B
:10322000A0F804241EE04B78206813B1012B11D0C4
:1032300018E0B0F8502010440A7800EB0210B0F803
:103240000C24C2F30902A0F80C24B0F80C2442F4B8
:10325000004205E0B0F8503018440B7800EB031042
:10326000A0F80C24097802E0C1F818A0E9B22046C1
:10327000FDF7E5FC03E032462046FDF7BAFD206885
:10328000B0F8441009043FF539AE0020BDE8F88FCE
:1032900010B5D0F8B8421A44D4F860329A4206D930
:1032A0002123052200F03AFA4FF0FF3010BD002034
:1032B00010BD00002DE9F04113780024232B7DD0B0
:1032C0000DDC1A2B7BD005DCEBB1032B39D0122B94
:1032D00011D163E01B2B01D01E2B0CD18DE02A2BCA
:1032E0006ED004DC252B6CD0282B04D1ABE02F2B27
:1032F00068D05A2B67D02023052200F00FFA4FF038
:10330000FF30BDE8F081D0F8B87205460E46D7F818
:10331000140228B1202397F81912052228469FE0AD
:10332000D5F8BC0281683046884740B13A23022272
:103330003146284600F0F2F9052038729AE07C8187
:1033400098E0D0F8B80200214318491CC9B21C7398
:103350001229F9D3702101730C21C17490F85C1209
:1033600090F85D32994212D000EBC103491C93F8EA
:103370003C52857393F84152057693F84032C9B2B6
:10338000437680F85C12042901D180F85C42122156
:103390004181117912296DD841816BE05478D0F8C0
:1033A000B832E40712D0072033495881401E000488
:1033B000000C03EB00040A5C227305E03DE020E012
:1033C00044E03DE045E02AE0F0D153E0D0F8BC0213
:1033D00001EBC1011279C06900EB81010879401D40
:1033E000824200D81046588104E0401E80B21C186A
:1033F0000A5C22730028F8D13CE0D0F8B80244817E
:1034000038E0D0F8B81208201C4A4881401E000459
:10341000000C01EB0004135C2373F7D12AE0D0F811
:10342000B8020821164A4181491E0904090C00EB23
:103430000104535C2373F7D11CE000F038F919E064
:1034400000F00AF916E000F0BAF813E000F080F995
:1034500010E05278D0F8B852920704D52423052200
:1034600000F05CF906E0D5E99923FFF711FF002889
:1034700000DB6C81002044E7744E03087B4E030898
:10348000834E03082DE9F041D0F8B84206460F46B6
:10349000B4F85E02D4F868524FF4007145438D428F
:1034A00000D30D46B5FBF0F083B2D6F8BC0204F1B0
:1034B0000C01D4F86422D0F810C088463846E047A2
:1034C000002809DA112304223946304600F026F993
:1034D0004FF0FF30BDE8F081ABB24246812130466B
:1034E00001F059F9B4F85E02D4F86422B5FBF0F1AA
:1034F000B5FBF0F01144C4F86412D4F86812081A4D
:10350000C4F86802D4F83412A1EB0501C4F83412EF
:1035100001D1032020720020DCE72DE9F047D0F82C
:10352000B84207464FF40075B4F85E02D4F86862FA
:1035300088464643AE4200D32E46B6FBF0F083B237
:10354000D7F8BC0204F10C01D4F86422D0F814C0FE
:1035500089464046E047002809DA03230422414611
:10356000384600F0DBF84FF0FF30BDE8F087B4F8E4
:103570005E12D4F86422B6FBF1F01044C4F8640281
:10358000B6FBF1F0D4F86822101AC4F86802D4F837
:103590003422A2EB0602C4F834220BD04843A842DE
:1035A00000D3284683B24A460121384601F058F834
:1035B0000020DAE700213846FFF73AFAF8E72DE96C
:1035C000F041D0F8B84206461546207A8846C8BB76
:1035D00094F818024FF0FF3700062ED5D6F8BC023B
:1035E00081684046884730B13A230222414630463E
:1035F00000F094F813E0D5F80200414600BA20F03C
:10360000FF0268790243C4F86422B5F8070043BAA0
:103610003046C4F86832FFF73BFE002802DA38462D
:10362000BDE8F08102202072B4F85E12D4F868027E
:103630004843D4F81412884205D0202394F8191274
:103640000522D4E7FFE74FF4007060814146304621
:10365000BDE8F041FFF716BF70B505460E46D5E947
:10366000AE4004F25E224368911C3046984740B158
:103670003A2302223146284600F050F84FF0FF303E
:1036800070BDD4F86002401E010E2173010C6173FD
:10369000010AA173E073002020746074B4F85E0224
:1036A000010AA174E07408206081002070BD2DE93A
:1036B000FC410546D0F8B84200200F4606462118C6
:1036C000401C80B20E730C28F9D3D5F8BC026A46B0
:1036D00001A943683846984748B13A23022239463F
:1036E000284600F01BF84FF0FF30BDE8FC810820B1
:1036F000E0730198401E010E2174010C6174010AEF
:10370000A174E074022020756675BDF80000010AFE
:10371000A175E0750C2060810020E6E7D0F8B802C2
:1037200090F85D1200EBC10181F83C2290F85D2217
:10373000002100EBC20282F8401290F85D22521C78
:10374000D2B280F85D22042A01D180F85D12704760
:103750002DE9F041D0F8B84205461746207A884650
:1037600020B12846BDE8F041FFF7D7BE94F8180213
:103770004FF0FF36000635D4D5F8BC0281684046CC
:10378000884728B13A230AE02846FFF7C7FF1DE023
:10379000D5F8BC02C1684046884718B127230222E9
:1037A0004146F1E7D7F80200414600BA20F0FF0297
:1037B00078790243C4F86422B7F8070043BA284670
:1037C000C4F86832FFF764FD002802DA3046BDE82D
:1037D000F081B4F85E02D4F868124143D4F81402C0
:1037E000884204D0202394F819120522CCE74FF424
:1037F0000070814200D3014601208BB22072014645
:1038000004F10C02284600F02BFF0020DFE738B55A
:103810000B46009204460022802100F047F9002860
:1038200004D0606D40F020006065032038BD0000CA
:103830002DE9F041134F14460D46064600220121A2
:103840003846FCF77DFF032000F0F0F8C5F3074091
:1038500000F0ECF8C5F3072000F0E8F8E8B200F05B
:10386000E5F804E0FF2000F0E1F806F8010B641E23
:10387000A4B2F7D23846BDE8F04101221146FCF768
:103880005FBF0000001001402DE9F04707460E46DB
:1038900011F0FF00C0F10001CDB24FEA122402F096
:1038A000FF094FF4807A13D0F0B24042C0B206EB69
:1038B00000080CB3501B80B2040A00F0FF092A462E
:1038C0003146384600F03EF83D44464657462AE029
:1038D0006CB15546641EE4B20CD32A4631463846D4
:1038E00000F030F806F5807607F58077F2E731468C
:1038F000384621E04A46FAE7A945F8D9A9EB050080
:10390000C4B22A463146384600F01CF841467819C0
:10391000224611E03A463146284600F013F805F5F4
:10392000807506F58076641EE4B2F3D2B9F100002A
:1039300006D0024631462846BDE8F04700F002B8FE
:10394000BDE8F0872DE9F04114460D46064600F02B
:1039500099F8124F002201213846FCF7F1FE0220AF
:1039600000F064F8C5F3074000F060F8C5F30720E5
:1039700000F05CF8E8B200F059F803E0307800F0AD
:1039800055F8761C641EA4B2F8D2012211463846BE
:10399000FCF7D6FEBDE8F04100F05CB80010014035
:1039A00070B50E4D002201212846FCF7C9FE9F206C
:1039B00000F03CF8FF2000F039F80402FF2000F08E
:1039C00035F820430402FF2000F030F804430122C0
:1039D00011462846FCF7B4FE204670BD0010014099
:1039E00070B5044600F04EF800F034F80E4D002299
:1039F00001212846FCF7A4FE202000F017F8C4F3AC
:103A0000074000F013F8C4F3072000F00FF8E0B20D
:103A100000F00CF8012211462846FCF791FEBDE8A3
:103A2000704000F017B800000010014001B582B0EE
:103A300000208DF804004FF47A700090012301AA51
:103A400002A90348FEF746F99DF804000EBD0000E8
:103A50002002002010B50A4C002201212046FCF76C
:103A60006FFE0520FFF7E2FFFF20FFF7DFFFC00733
:103A7000FAD120460122BDE810401146FCF760BE95
:103A80000010014010B5084C002201212046FCF72F
:103A900057FE0620FFF7CAFF20460122BDE810406E
:103AA0001146FCF74DBE0000001001402DE9F8431F
:103AB0001E46914688460446089DFCF747FE401B7B
:103AC000351AFCF743FE074625480068C0F3CB30A3
:103AD000684338E0701C37D0FCF738FEC01BA842A2
:103AE00003D215B1009860B32CE02068416821F042
:103AF000E00141606068B0F5827F0BD1A068B0F54D
:103B0000004F02D0B0F5806F04D12068016821F029
:103B100040010160A06AB0F5005F09D1206801682A
:103B200021F4005101602068016841F400510160F6
:103B3000012084F85100002084F850000320BDE8E3
:103B4000F8830025401E00902068816838EA010053
:103B500004D000214945BDD10020F0E70121F9E75B
:103B6000100000204FF480400860401110800020B9
:103B700070470020704700207047002070470020E9
:103B8000704708464FF6FF7101EA432310B5510212
:103B90001A46FFF74DFE002010BD00002DE9F05F32
:103BA0005002C0F30B075E02C7F580548B464FEA04
:103BB00010394FF0000AA64200D8B4B24FF4805832
:103BC0004FEA0935424629461448FFF731FE284698
:103BD000FFF706FF0020114908E000BF0AEB0003D1
:103BE0001BF803203B18401CCA5480B2A042F5D3F6
:103BF000294642460948FFF747FEA6420AD0002759
:103C0000361B09F10109A244464501D94446D7E7CC
:103C1000B4B2D5E70020BDE8F09F00005441002079
:103C2000ADF5966DFFF74CF859A30DF5906C0FCBE1
:103C30008CE80F0014210DF59260FCF70AFB64205C
:103C400003F0E8FEFFF77EF8FFF7AAFE024654A154
:103C50000DF58C6001F00CFE002110230DF58C6237
:103C60000846FFF711F9FFF7C7F84FF47A742046BA
:103C700003F0D0FE01224DA18BA803F007F8024605
:103C80000D2814D110234AA202210020FFF7FCF8CE
:103C9000FFF7B2F80022012144A002F05BFD020010
:103CA00006D1012241A18BA802F0F0FF02464AB1E1
:103CB00043A10DF58C6001F0DBFD10230DF58C6246
:103CC000022130E0102342A202210020FFF7DCF89D
:103CD000FFF792F80A2242A1684603F019F80200A1
:103CE00031D042A10DF58C6001F0C2FD10230DF51D
:103CF0008C6204210020FFF7C7F800BFFFF77CF8B3
:103D0000204603F087FE012235A1684603F000F843
:103D100002002ED039A10DF58C6001F0A9FD102311
:103D20000DF58C6206210020FFF7AEF8FFF764F86E
:103D3000364C4FF4FA7520212046FCF7F9FC284652
:103D400003F068FEF7E7102331A204210020FFF7FB
:103D50009BF80DF59060FCF787FA02460DF2A4433C
:103D60000DF59061684603F015FA684602F0D6FC3E
:103D7000C4E70DF5956313220DF59261684603F0D3
:103D8000B7F8684602F0CAFC10230DF59262C9E745
:103D900048656C6C6F2C204D7573696321000000C1
:103DA00049443A203078253036580000303A2F0008
:103DB000466F726D617474696E672E2E2E2020001E
:103DC0004D6F756E74204572723A202564000000B4
:103DD000312E204D6F756E743A204F4B20202000FD
:103DE000303A2F746573742E74787400322E204F1D
:103DF00070656E204572723A20256400332E205281
:103E0000656164204572723A20256400000C01400F
:103E1000322E204F70656E3A204F4B20202000003C
:103E200010B5502080F31188BFF34F8FBFF36F8F11
:103E300005F090FC18B104494FF080500860002054
:103E400080F3118810BD000004ED00E030B595B09E
:103E500028216846FCF7FDF914210AA8FCF7F9F9B6
:103E600018210FA8FCF7F5F901210804CDE900108D
:103E70000024029402250491CDE907504FF4E0108C
:103E800009906846FDF704FD08B172B6FEE70F2001
:103E9000CDE90A054FF48060CDE90C4002210AA863
:103EA0000E94FDF7F9FB08B172B6FEE710201494EA
:103EB0000F900FA8FDF77AFB002801D072B6FEE73D
:103EC00015B030BD704700000148FEF762B8000031
:103ED00050030020F0B502681C4B1D4D1D4E1E4FB7
:103EE0001E4C4FF0804C984209D0A04207D060454C
:103EF00005D0A84203D0B04201D0B84204D122F08C
:103F0000700E4A6842EA0E02984209D0A04207D0D9
:103F1000604505D0A84203D0B04201D0B84203D1D9
:103F200022F44075CA682A434D6922F080022A4370
:103F300002608A68C2620A688262984201D0A04226
:103F400001D10969016301214161F0BD002C0140EB
:103F50000004004000080040000C00400034014014
:103F600010B5406A0021C185C184FEF7D3F810BDA9
:103F700001680C3151E8002F22F4907241E80023CF
:103F8000002BF5D10168143151E8002F22F0010215
:103F900041E80023002BF5D1016B012909D101680B
:103FA0000C3151E8002F22F0100241E80023002BD1
:103FB000F5D1202180F8421000210163704708B537
:103FC00090F84210222901D0022008BD82684FF4E7
:103FD00080539A4201D1016921B1816A9A421BD072
:103FE0004AB10AE00268816A5268C2F308020A8094
:103FF000816A891C08E0026972B10268526802F0A5
:104000007F020A70816A491C8162C18D491E0904C0
:10401000090CC18503D01BE002685268F1E7016812
:10402000CA6822F02002CA600168CA6822F480725D
:10403000CA6001684A6922F001024A61202180F8C1
:10404000421000214163026B012A03D0FEF760FA9F
:10405000002008BD016301680C3151E8002F22F0F7
:10406000100241E80023002BF5D101680A68D2064E
:1040700002D50A6849680091818DFEF74AF8E7E7A2
:1040800070B5044600680169E26821F440511143AB
:1040900001612169A0680843616908432168CA6811
:1040A00041F20C639A430243CA6020684169A269E5
:1040B00021F44071114341611E492068884202D1B8
:1040C000FDF7B0FB01E0FDF79DFB00EBC00101EB4C
:1040D0000012606864218000B2FBF0F3B3FBF1F3DF
:1040E0006FF018067343B2FBF0F5B2FBF0F605EB88
:1040F0008305322303EB0515B5FBF1F5B6FBF1F6AD
:1041000005F0F00505EB0615B2FBF0F6B2FBF0F09A
:10411000B0FBF1F06FF01802504306EB800003EBA8
:104120000010B0FBF1F0216800F00F002844886017
:1041300070BD0000003801400148FDF7EDBF0000F0
:10414000C00200200148FDF7E7BF0000080300207F
:1041500010B5D0F8B42252689047002010BD134625
:1041600010B50A46002100F07BFA002010BD13466E
:1041700010B50A46002100F00EFB002010BD10B55E
:104180000446802100F0ECFA2046BDE810400021F2
:1041900000F0E6BA10B505210023C0F894121A46C3
:1041A000194600F05DFA002010BD10B50223C2616F
:1041B000C0F89432026213460A46002100F0EBFA7E
:1041C000002010BD10B504210023C0F894121A4637
:1041D000194600F0E0FA002010BD000010B50A46B4
:1041E000024903A000F0E0F8004810BD543F002051
:1041F0004D534320436F6E666967000012200880AC
:1042000000487047D400002010B50A46024903A0B8
:1042100000F0CAF8004810BD543F00204D53432021
:10422000496E746572666163650000000420088051
:1042300000487047D000002010B50A46024903A08C
:1042400000F0B2F8004810BD543F002053544D69AF
:1042500063726F656C656374726F6E69637300007F
:1042600010B50A46024903A000F09EF8004810BDB0
:10427000543F002053544D3332204D61737320530B
:10428000746F72616765000010B51A2008800A48D3
:104290000168001D0468001D0068081809D0082284
:1042A0000649FEF7A1FA0549042210312046FEF71F
:1042B0009BFA0248801E10BDE8F7FF1FEA000020AD
:1042C000F8B504460020ADF8000048880D46010A04
:1042D000082948D2DFE801F04704091747473C4561
:1042E000D4F8B012207C0A6819E0207C022600284D
:1042F000D4F8B40205D0C16A6846884701464670C2
:104300003EE0816AF8E7C0B206282CD2DFE800F070
:10431000030A1014181CD4F8B002426805E069467C
:1043200090471CE0D4F8B0028268E2B1207CF6E746
:10433000D4F8B002C268F8E7D4F8B0020269F4E732
:10434000D4F8B0024269F0E7D4F8B0028269ECE731
:10435000207C40B9D4F8B402416B684688470146D6
:104360000EE0207C20B129462046FFF708FFF8BD6B
:10437000D4F8B402016B68468847014607204870AC
:10438000BDF8000048B1EA8852B1824200D9024625
:10439000ADF800202046FFF708FFE8880028E6D1A6
:1043A0002046FFF70FFFF8BD70B5002300281ED090
:1043B0000446002502E06D1CEDB2641C2678002E38
:1043C000F9D1022404EB450414801278CA545B1C12
:1043D0000322CA5400245B1C06E0CA545B1CDAB2F8
:1043E0008C54521CD3B2401C0278002AF5D170BD07
:1043F00001004FF0000004D0012901D0022901D0B2
:10440000022070470120704710B580B1D0F8B43257
:1044100013B10023C0F8B43209B1C0F8B0120121C1
:1044200080F89C12027000F0C7F8002010BD022036
:1044300010BD10B5D0F8C002FCF73AFCBDE8104042
:10444000FFF7D6BF10B5D0F8C002FCF70BFCBDE8F3
:104450001040FFF7CDBF2DE9F0411746044651B19A
:10446000D4F8B40242691AB194F89C02032851D0DE
:104470000220BDE8F081D4F89432002504F1140044
:10448000022B03D0042B3AD0C3B33CE0D0E9036342
:104490009E4207D9F11AC1608AB239462046FFF719
:1044A00066FE12E08068B0FBF3F103FB110199B9DD
:1044B000984211D3D4F8981288420DD200221146A6
:1044C0002046FFF754FEC4F8985200231A461946B6
:1044D000204600F0C5F816E0D4F8B402C16829B14E
:1044E00094F89C02032801D1204688478021204669
:1044F00000F036F92046FFF74DFE04E0FFE780218B
:10450000204600F02DF994F8A002012804D184F887
:10451000A05201E0204690470020AAE770B515465A
:10452000044649B1D4F8B40282691AB194F89C02E5
:10453000032830D0022070BDD4F8941204F5AA707C
:10454000032902D005291ED027E0D0E903218A42A1
:104550000BD9531AC3600846834200D303469AB26C
:1045600029462046FFF7FBFD17E0D4F8B4020169A5
:1045700029B194F89C02032801D12046884720469F
:10458000FFF720FE09E000200146C4F8940220460F
:1045900000F0E6F801E020469047002070BD10B51D
:1045A000D0F8C002FCF7C1FDBDE81040FFF720BF06
:1045B000D0F8C002FCF7D3BD10B519490446C1F8C4
:1045C000EC02C0F8C01217480860082048600220BA
:1045D000886000208861C86108620846FCF7F8FE20
:1045E00008B1FBF7C7FE0022D4F8C0021823114619
:1045F00004F53074FCF704FB582300228021206866
:10460000FCF7FEFA9823002281212068FCF7F8FAD3
:10461000D823002201212068FCF7F2FA002010BD07
:10462000C4530020005C00400A0601F07F01D0F86E
:10463000C00201EB810100EBC10002D590F82A0015
:10464000704790F86A01704710B51C461346D0F8C1
:10465000C0022246FCF78CFDBDE81040FFF7C8BE43
:1046600010B5D0F8C002FCF7B0FDBDE81040FFF770
:10467000BFBE70B50022044640231146FFF7E4FF99
:1046800040260125C4F8646133460022802120467B
:10469000C4F85851FFF7D8FF6662A56184F89C52B0
:1046A0000020C4F894026060C4F8A402D4F8B802F0
:1046B00028B1D4F8B4020021426820469047002077
:1046C00070BD90F89C12042903D190F89D1280F8D7
:1046D0009C120020704710B590F89C12032904D159
:1046E000D0F8B412C96901B18847002010BD017427
:1046F0000020704710B5D0F8C002FCF710FFBDE8ED
:104700001040FFF775BE70B5044600F52A700546E7
:1047100000F044F90120C4F89402B4F8AE02C4F8E1
:10472000980294F8A80210F01F010AD001290DD0B8
:10473000022910D000F08001204600F011F800207E
:1047400070BD2946204600F098F9F8E72946204632
:1047500000F0C4FAF3E72946204600F017FAEEE726
:1047600010B5D0F8C002FCF747FDBDE81040FFF7D8
:104770003FBE10B5D0F8C002FCF7ECFEBDE810401B
:10478000FFF736BE90F89C1280F89D12042180F845
:104790009C120020704710B5D0F8C002FCF765FDF0
:1047A000BDE81040FFF724BE10B5FEF7D6F8002094
:1047B00010BD10B5FEF7EEF8002010BD70B5044630
:1047C0000121FFF73FFE002581212046C4F86C51EE
:1047D000FFF738FE2046E562FEF7F9F8D4F8B80294
:1047E00018B100F0A2FAC4F8B852002070BD000061
:1047F0000A21018000487047C0010020202101806B
:104800000048704780010020202101800048704747
:10481000600100202021018000487047A001002095
:1048200070B50446007C0125D0B14023022201214D
:104830002046FFF709FF4023C4F86C510222812172
:104840002046FFF701FF4FF41B70E56200F06EFA9F
:10485000C4F8B80280B12046FEF7BEF8002070BD53
:104860004FF400763346022201212046FFF7ECFE8A
:104870003346C4F86C51E1E7022070BD09B1C0F8BD
:10488000BC12002070472DE9F8430026D0F8B8721A
:104890000546ADF8006008780C46B04610F060019F
:1048A00020D020293DD16178FE2902D0FF2938D1BE
:1048B0000EE0618881BBE188012932D1000630D544
:1048C000D5F8BC02806980470122394638601FE074
:1048D000618809BBE188F9B9000622D42846FEF7B1
:1048E0009CF823E0607830B1012825D00A2809D04F
:1048F0000B2816D111E095F89C02032811D1022251
:10490000694605E095F89C0203280AD10122391D69
:104910002846FFF74AFC09E003E095F89C020328CB
:1049200007D021462846FFF72AFC02263046BDE87C
:10493000F883A0787860F9E721792846FFF72FFE01
:1049400021792846FFF77EFDA0884FF00107010678
:1049500000F00F0000EB80004FF4007305EB8000C7
:104960000BD5C0F81880287C00B140230222812199
:104970002846FFF769FEEF620BE0C0F85881287CFB
:1049800000B14023022201212846FFF75DFEC5F851
:104990006C7121792846FDF7CBFFC7E70A780270D2
:1049A0004A7842708A78CB7802EB032242800A79F7
:1049B0004B7902EB032282808A79C97902EB0121CB
:1049C000C18070470246002011B1C2F8B41270478E
:1049D0000220704710B5D0F8B42202241AB1126830
:1049E000904700B90024204610BD000070B50E4667
:1049F0001E4D897804462970012931D894F89C020B
:104A000002280BD003280FD031462046FFF7B7FB12
:104A100029782046BDE87040FFF79ABBD9B1032042
:104A2000616084F89C0209E071B16068884212D02C
:104A3000C1B22046FFF78CFB297861602046FFF762
:104A4000C9FF02280CD006E0022084F89C02204610
:104A50006160FFF77DFB2046BDE87040FFF7B2BB09
:104A600031462046BDE87040FFF789BB2401002095
:104A700010B5FFF77EFE002010BD2DE9F0410A7849
:104A8000002612F0600208D0202A01D0402A70D1FE
:104A9000D0F8B422926890476DE04B78002201254F
:104AA0000A2B66D2DFE803F0405D655765080565AF
:104AB0002C29FFF705FC5EE004468888D8B9C88831
:104AC000C8B94888802816D200F07F0794F89C0265
:104AD000032810D084F89E7239462046FFF70AFE5C
:104AE0002046FFF76FFB1FB1022084F89C0242E0D2
:104AF00084F89C523FE020463BE0FFF777FF3AE026
:104B0000CB88012B35D190F89C32012B04D0022B9D
:104B100002D0032B2DD104E08260012200F10801B4
:104B200016E00122011D13E090F89C22012A03D017
:104B3000022A01D0032A1CD1CA88022A19D1C560D1
:104B4000D0F8A41209B10321C160022200F10C01C6
:104B5000FFF72BFB0FE0498801290CD1C0F8A452C4
:104B600011E090F89C32012B08D0022B06D0032BC9
:104B700004D0FFF704FB3046BDE8F08149880129E5
:104B8000F9D1C0F8A422FFF71DFBF4E72DE9F041AD
:104B90000A46044610780027097910F060030AD00D
:104BA000202B01D0402B50D1D4F8B4021146836899
:104BB000204698478FE0C0F34110012806D0507876
:104BC000D0B301282AD003283FD107E0D4F8B4029B
:104BD000114683682046BDE8F041184794F89C02CE
:104BE000022802D0032872D10AE071B380296ED066
:104BF0002046FFF7B5FD80212046FFF7B1FD6AE0B2
:104C0000508838B931B1802904D0D08810B92046F5
:104C1000FFF7A6FD2046FFF7D5FA5CE094F89C026A
:104C20000228E2D0032852D1508898BB4806F1D020
:104C30002046FFF7FEFBEDE7FFE794F89C02002615
:104C4000022803D0032842D112E040E009B18029B4
:104C50003DD1080601F07F0000EB800004EB8001ED
:104C600001D5143101E001F5AA7102220E602AE09B
:104C7000080601F00F0000EB800004EB80000AD56D
:104C8000806920B301F07F0000EB800004EB800519
:104C900014350BE01FE0D0F85801C0B101F07F00DF
:104CA00000EB800004EB800505F5AA7541B1802971
:104CB00006D02046FFF7B8FC10B10120286000E0C4
:104CC0002E60022229462046FFF76FFA03E01146C4
:104CD0002046FFF754FA3846BDE8F08170B5054626
:104CE00008780C4610F0600003D0202801D040283E
:104CF00016D195F89C02012803D0022801D0032880
:104D00000ED1207901280BD8D5F8B4028268284644
:104D10009047E188014306D12846FFF753FA02E0A5
:104D20002846FFF72CFA002070BD704700487047F6
:104D3000545100202DE9F0470C78002630F824303B
:104D400048F68F121340CA78002A78D0012A7CD006
:104D5000022A02D0032A75D0012648F280021343AA
:104D600020F824300D7830F8253048F68F74234031
:104D70002B43134320F825300D7B48F2C00948F639
:104D8000BF734CF2800A4BF68F77EDB3CD7891F874
:104D900000C0022D30F82C507DD048F68F6805EA0F
:104DA0000805154320F82C50B0F8505091F800C079
:104DB000054405EB0C15B1F808C02CF0010CA5F862
:104DC00000C4B0F8505091F800C0054405EB0C1534
:104DD000B1F80AC02CF0010CA5F808C44D78002DDC
:104DE0007ED00D7830F825C05FEA4C4C07D530F8FE
:104DF00025C00CEA040C4CEA0A0C20F825C091F8F6
:104E000000C030F82C5000E022E06D0606D530F8E6
:104E10002C50254045EA090520F82C50CC780D7817
:104E2000012C30F8254004EA03047CD084F02003F0
:104E3000134320F82530C1E001E006E002E043F42E
:104E400000738AE743F4C06387E743F4806384E731
:104E50004D784DB3B0F850500F78054405EB071569
:104E6000CF8827F00107A5F800740F7830F8275095
:104E70006D0606D530F82750254045EA090520F88B
:104E80002750CC78012C07D00C7830F8241019402A
:104E900081F0200104E064E00C7830F8241019401F
:104EA000114320F8241090E0B0F850300D780344FE
:104EB00003EB0513CD8825F00105A3F80854B0F8DD
:104EC00050300D78034403EB0513B3F80C54C5F3CD
:104ED0000905A3F80C540D6903F20C433E2D00E0C4
:104EE00045E00BD94FEA551CED0601D1ACF1010CA0
:104EF0001D884FF4004848EA8C2C0BE035B34FEA8C
:104F0000550CED0701D00CF1010C1D884FF6FF7810
:104F100008EA8C2C45EA0C051D800D7830F8253008
:104F20005B0408D500E046E030F82530234043EA32
:104F30000A0320F82530097861B130F821303B4070
:104F400083F40053134320F821303EE01D8845F4DC
:104F50000045E1E70188394081F440511143018067
:104F600033E0254048F2801845EA08051AE791F831
:104F700000C030F82C506D0406D530F82C50254078
:104F800045EA0A0520F82C5091F800C030F82C5062
:104F90006D0606D530F82C50254045EA090520F865
:104FA0002C500D7830F825403C4084F44054144394
:104FB00020F8254070E7144320F825400B7830F89E
:104FC00023103940114320F823103046BDE8F08704
:104FD000002070472DE9F04391F80C804F780A7853
:104FE00048F6BF7C4BF68F7948F2800348F2C00543
:104FF0004CF2800648F68F74B8F1000F28D0002FCD
:1050000030F822704FEA474748D0002F05DA30F8D1
:1050100022702740374320F822700A7830F8227037
:105020007F0605D530F8227027402F4320F82270E4
:105030000D7830F825202240324320F825200C78C6
:1050400030F8242002EA0C021A4320F824201AE047
:105050007FB130F82260760605D530F82260264010
:105060002E4320F822600A7830F8221001EA0C0161
:105070000EE030F822506D0405D530F8225025405E
:10508000354320F822500A7830F8221001EA09014D
:10509000194320F822100020BDE8F083002F05DA24
:1050A00030F822702740374320F822700A7830F811
:1050B0002260760605D530F8226026402E4320F87F
:1050C00022600E7830F8262022402A4320F826203D
:1050D0000C7830F8242002EA09021A4320F8242030
:1050E000C1E70020704700207047012120F8401FD1
:1050F00000210180818001820846704730F8401FFE
:1051000021F43F410180002070470020704730B5F6
:105110000A7BB2BB4A7848F68F7548F28004C2B168
:105120000B7830F82320520607D530F823202A4088
:1051300048F2C0052A4320F82320CA78012A20D04B
:105140000A7830F8221048F6BF73194081F0200128
:1051500014E00A7830F822305B0407D530F82230AA
:105160002B404CF280052B4320F822300A7830F88F
:1051700022104BF68F73194081F44051214320F8DF
:105180002210002030BD10B54A780978002A48F274
:10519000800330F8212005D048F6BF74224082F009
:1051A000100204E04BF68F74224082F480521A43BE
:1051B00020F82120002010BD2DE9F0470D464B7846
:1051C000097B04464FF0000948F68F7248F2800AC6
:1051D0004FF400474FF6FF78012B09D000296FD01C
:1051E000E87802286DD001286CD00120BDE8F08756
:1051F000AE692869864200D9064691B1E97802294C
:105200001ED0286A801B2862287834F820104906AE
:10521000B4F85010214401EB001073D5A0F80C64D1
:1052200016E1B3B2EA882046696900F06BFAB4F877
:1052300050002978204400EB0110A0F804640DE12F
:10524000296A814277D9297834F82100104048F240
:105250008012104324F82100286A801B28622878D5
:1052600034F820104906697871D511B101292AD086
:1052700030E0B4F85010214401EB0010B0F80C14E9
:10528000C1F30901A0F80C1400F20C403E2E07D91E
:105290007109F20600D1491E028847EA812107E020
:1052A0004EB17108F20700D0491C028808EA81213A
:1052B0000A4302800EE0018841F40041018009E0C8
:1052C000F1E020E195E1B4F85020111901EB001054
:1052D000A0F80C646A89B3B22046696900F012FA3A
:1052E0006869304468612969286A884202D9801B4C
:1052F000286202E00646C5F82090687818B10128B7
:105300002BD032E02FE0B4F850002978204400EB95
:105310000110B0F80414C1F30901A0F8041400F25C
:1053200004403E2E08D97109F20600D1491E0288B8
:1053300047EA812108E0A1E056B17108F20700D0E8
:10534000491C028808EA81210A4302800DE00EE030
:10535000018841F40041018007E0B4F85000297849
:10536000204400EB0110A0F804642A8971E011B117
:10537000012927D02DE0B4F85010214401EB001092
:10538000B0F80414C1F30901A0F8041400F20440B9
:105390003E2E07D97109F20600D1491E028847EA5C
:1053A000812107E04EB17108F20700D0491C028844
:1053B00008EA81210A4302800BE0018841F40041A0
:1053C000018006E0B4F85010214401EB0010A0F871
:1053D00004642A89B3B22046696900F093F96869C8
:1053E000304468612969286A884202D9801B286292
:1053F00002E00646C5F82090687810B1012836D042
:1054000026E0B4F850002978204400EB0110B0F8F1
:105410000C14C1F30901A0F80C1400F20C403E2E4C
:1054200007D97109F20600D1491E028847EA812195
:1054300007E04EB17108F20700D0491C028808EA63
:1054400081210A43028003E0018841F40041018088
:105450006A89B3B22046696900F054F9297834F8B2
:10546000210048F6BF72104080F030000FE1B4F820
:1054700050100819297800EB0110CFE62A7834F88B
:10548000220048F68F63184040EA0A0024F8220000
:10549000B4F850002A78204400EB02108BB2A0F838
:1054A00004342A89D6E7A9692869814202D9091AF0
:1054B000A96102E00846C5F81890B4F850102A789F
:1054C000214401EB0211B1F80C24C2F30902A1F846
:1054D0000C2401F20C413E287DD94209C00600D1BE
:1054E000521E088847EA82220AE0088840F40040F9
:1054F00007E04208C00700D0521C088808EA822250
:1055000010430880BBE033BBB4F850002978204436
:1055100000EB0110B0F80414C1F30901A0F8041461
:10552000296900F204403E2907D94B09C90600D178
:105530005B1E018847EA832307E041B14B08C90796
:1055400000D05B1C018808EA8323194302E001882C
:1055500041F400410180687810B1012828D030E082
:10556000B4F850002978204400EB0110B0F80C1476
:10557000C1F30901A0F80C14296900F20C403E297E
:1055800007D94B09C90600D15B1E018847EA83236E
:1055900007E041B14B08C90700D05B1C018808EA4D
:1055A0008323194302E0018841F40041018008E0AF
:1055B000B4F850100819297800EB0110298AA0F8D6
:1055C0000C14E869C0B3297834F82100430401D5EC
:1055D000430605D400E046E044F2400318424ED1B1
:1055E00034F82100104048F2C002104324F8210092
:1055F00045E0A9692869814202D9091AA96102E036
:105600000846C5F8189013BBB4F850102A78214406
:1056100001EB0211B1F80424C2F30902A1F8042439
:1056200001F204413E2808D94209C30600D1521EA6
:105630000B8847EA822208E021E078B14208C307DC
:1056400000D0521C0B8808EA822213430B80697831
:1056500000293FF42EAF012909D010E00A8842F456
:1056600000420A80F3E700287FF443AF3DE7B4F837
:10567000502011192A7801EB0211A1F80C042978A5
:1056800034F821004BF68F72104080F4405040EA0D
:105690000A0024F821000020A8E50021A0F8441009
:1056A0004FF43F41A0F840100020704700207047A1
:1056B000002070470148FBF7F1BD0000C4530020F3
:1056C000B0F844007047000010B500EB42005C08E1
:1056D00000F5806009D000BF30F8042B01F8012BE1
:1056E000120A01F8012B641EF6D1DA0701D00088F6
:1056F000087010BD0020704711B98021A0F84C102F
:105700000020704710B55B1C00EB42005B0800F501
:10571000806009D011F8012B11F8014B42EA0422F4
:1057200020F8042B5B1EF5D110BD000010B5FEF76C
:1057300037F90849884203D06FF07F41884206D08C
:105740000548017821F001010170002010BD0320FF
:1057500010BD00001740EF009C0000200C480078AE
:10576000C00701D003207047012039B1012907D0BB
:10577000022908D00329F6D10820106000207047C4
:105780004FF48040F9E74FF400701080F6E7000016
:105790009C0000200846084910B50978C90701D0C7
:1057A000032010BD4FF6FF7101EA432351021A4650
:1057B000FEF73EF8002010BD9C0000200148007854
:1057C000704700009C0000202DE9FF5F264800780C
:1057D000C00703D0032004B0BDE8F09F4FF480550C
:1057E00054025E02284602F0C7FE5FEA000B17D0A3
:1057F0004FEA1439C4F30B07C7F580544FF0000A81
:10580000A64200D8B4B2A8464FEA09354246294616
:105810005846FEF70DF82846FEF7E2F800200AE0A9
:105820000120D8E70AEB000201993B18401C8A5C72
:105830000BF8032080B2A042F4D3294642465846D2
:10584000FEF722F8A6420AD00027361B09F101090B
:10585000A244464501D94446D6E7B4B2D4E75846F7
:1058600003F08AF80020B6E79C000020FEE7000065
:105870000FB4084B10B504A902AA039800F02CF845
:10588000044602A9002000F058FA204610BC5DF83A
:1058900014FB00003B5D00080907090E002804DB2B
:1058A00000F1E02080F80014704700F00F0000F1D4
:1058B000E02080F8141D704702E008C8121F08C1DC
:1058C000002AFAD170477047002001E001C1121F81
:1058D000002AFBD1704700002DE9FF4F8DB00F4625
:1058E0000546002606E025280BD0DDE90F1290477B
:1058F0006D1C761C28780028F5D111B03046BDE823
:10590000F08F0024A246A1460122EC4900E00443A6
:1059100015F8013F203B02FA03F00842F7D128783E
:105920002A2810D06FF02F022878A0F13001092921
:1059300014D80AEB8A0102EB410144F0020400EBA7
:10594000010A6D1CF0E701CF5FEA000A03D544F4B9
:105950000054CAF1000A44F002046D1C28782E2875
:1059600017D115F8010F44F004042A280ED06FF067
:105970002F022878A0F1300109290AD809EB890102
:1059800002EB410100EB01096D1CF2E757F8049BA3
:105990006D1C28786C280FD006DC4C2817D068289E
:1059A0000DD06A2814D104E0742810D07A280FD1C1
:1059B0000DE044F400140AE044F4801401E044F4DF
:1059C00040146978814202D104F580146D1C6D1C6D
:1059D0002A786E2A1FD00CDC632A31D004DC002A1E
:1059E0008BD0582A11D1A3E0642A68D0692A0CD13F
:1059F00065E0732A2ED004DC6F2A73D0702A04D19C
:105A00009BE0752A6FD0782A6ED01046DDE90F1220
:105A10009047761C50E1C4F30250022806D00328B8
:105A200009D0042801CF09D0066045E101CFF11764
:105A3000C0E9006140E101CF06803DE106703BE135
:105A400017F8040B8DF8000000208DF80100EB46DC
:105A5000012003E057F804BB4FF0FF3061074FF01F
:105A6000000102D40DE008F10101884649450FDA32
:105A70008045F8DB1BF808100029F4D108E008F194
:105A8000010188468142FADB1BF808100029F6D193
:105A9000DDE90F23AAEB08008146214600F036F924
:105AA000304400EB080604E0DDE90F121BF8010B9F
:105AB0009047B8F10108F7D221464846F7E00A219D
:105AC000C4F302534FF0000B0891022B04D001CF16
:105AD000C117032B09D00AE0FF1D27F00707F7E8DD
